:020000040800F2
:1000000000080020AD010008EB3700080D3500089E
:10001000E9370008D91D00086D4000080000000005
:100020000000000000000000000000001B3A000873
:10003000DB1D000800000000193A00081D3A000806
:10004000C3010008C3010008C3010008C301000880
:10005000C3010008C3010008C3010008C301000870
:10006000C3010008C3010008C3010008C301000860
:10007000C3010008C3010008C3010008C301000850
:10008000C3010008C3010008C3010008C301000840
:10009000C3010008C3010008C3010008C301000830
:1000A000C3010008C3010008C3010008C301000820
:1000B000793A0008C3010008C3010008C301000821
:1000C000C3010008C3010008C3010008C301000800
:1000D000C3010008C301000861400008C301000813
:1000E000C3010008C3010008C301000800F002F8C2
:1000F00000F04DF80AA090E8000C82448344AAF175
:100100000107DA4501D100F042F8AFF2090EBAE872
:100110000F0013F0010F18BFFB1A43F0010318473B
:1001200094690000B4690000103A24BF78C878C10F
:10013000FAD8520724BF30C830C144BF04680C60ED
:10014000704700000023002400250026103A28BF35
:1001500078C1FBD8520728BF30C148BF0B60704739
:10016000662906F0BB81002070471FB500F078FBC0
:1001700004000020002105F021F8401C60600020F0
:10018000002105F005F8E0601FBD10B510BD00F0BE
:10019000AFFC1146FFF7E9FF04F01CFD00F052FF31
:1001A00003B4FFF7F2FF03BC04F032F9084800473C
:1001B000FEE7FEE7FEE7FEE7FEE7FEE7FEE7FEE717
:1001C000FEE7FEE703480449044A054B7047000078
:1001D000ED000008000200200008002000040020BC
:1001E00000040020704700000FB4044910B503AAB2
:1001F000029800F0D1FA10BC5DF814FB0800002052
:100200002DE9F0474FF0000A89460446C0F820A0C7
:100210002046E1688847002876D0252806D0D4E912
:1002200001219047206A401C2062F1E7E1682046E6
:1002300000258847C4F81CA006460027C4F818A06B
:100240002A2E09D0304604F020F838B304EB870892
:10025000303EC8F8186019E059F8041B204604EB3A
:1002600087029161E1688847012F064618D1E0694D
:10027000002820DA25F020051DE0D8F8180000EB52
:10028000800006EB40003038C8F818002046E168CE
:100290008847064603F0F9FF0028EED1012F0AD067
:1002A0002E2E08D12046E16888477F1C0646022F83
:1002B00045F02005C4DBA069002803DA404245F080
:1002C0000105A061E80701D025F01005B6B1A6F13F
:1002D0004100192802D8203645F400654A463146C7
:1002E000204625604D46FFF73BFF58B1012806D058
:1002F000ED1D25F0070000F1080989E704E005F18C
:10030000040985E730468AE7206ABDE8F0874FF0A8
:10031000000200B5134694469646203922BFA0E855
:100320000C50A0E80C50B1F12001BFF4F7AF090761
:1003300028BFA0E80C5048BF0CC05DF804EB890052
:1003400028BF40F8042B08BF704748BF20F8022B95
:1003500011F0804F18BF00F8012B704770477047AD
:100360007047704710B500F07FFA006810BD10B5F7
:10037000044600F079FA046010BD70472DE9FF4F84
:100380000C461E464FF0FF378BB0D2E90001DDF876
:1003900060800A908A46C1F30A5505B93D4600219E
:1003A00008464FF00000BAF1000F00F4400005DAF3
:1003B00000EB80004FF4400101EA50004FEA9059F1
:1003C000B9F1010F00DDB9460A9850EA4A000ED093
:1003D00044F61050A5F2FF3545432F14B8F1000F35
:1003E0001ED07542291E1EDDC9F100021CE0B8F1C5
:1003F000010F4FF0000001D0302103E0F24305E08F
:100400002154401CB042FBDB304600220021215425
:100410000B99C1F80880C1E900200FB0BDE8F08F4A
:10042000BD1B6D1CDEE74A4600DA694206A800F0F3
:10043000E5FA06AB93E8070003AB83E807005046F4
:100440000A9901F094F88DE80700A0F500501F38D4
:1004500000900398002D0ADD42F21F014A4608442D
:10046000002303A90390684601F040FB09E0A0F5D2
:1004700000504A461F38002303A90390684601F044
:100480005FFB8DE807000004000C03D04FF0FF3045
:10049000410800E01046B8F1000F03D0002200929E
:1004A00015461EE0751E05D400F0E2F930326255A3
:1004B0006D1EF9D5B3460122084302D000227F1CED
:1004C00004E02078302801D100227F1E002A0997FD
:1004D00084D01DE0112D07DA00F0CAF930326255E0
:1004E0006D1C50EA0102F5D1084302D00098C8B152
:1004F0000EE00021681E05E0235C625C6354225418
:10050000401E491C8142F7DBAB46A81B401E0990E8
:10051000002004F80B000B98099AC0F80880C0E985
:10052000002B7AE711264FF0000857E72DE9F04F2E
:1005300088460446D21D22F0070191B0D1E900019E
:10054000CDE90A0103F093FD02460B98C00F01D0DC
:100550002D2007E02068810701D52B2002E0202113
:1005600001EAC000032A099001D0072A05DB0346EF
:100570004146204600F0E2F90BE12078800601D5E3
:10058000E06900E00620B8F1650F814606D0B8F1B9
:10059000660F18D0B8F1670F70D131E00020B9F1C3
:1005A000110F009001DB112301E009F101030AAAF8
:1005B00001A90CA8FFF7E2FEDDE90C70002609F1A5
:1005C0000105834647E001204B4600904FF000476D
:1005D0000AAA01A90CA8FFF7D1FEDDE90DB00C991C
:1005E0005D46002610B909F101000D18B9EB0500B0
:1005F00003D4C0F1FF3609F10105A5EB09002BE09A
:10060000B9F1010F01DA4FF001090020B9F1110F22
:100610000090484601DD112300E003460AAA01A923
:100620000CA8FFF7ABFEDDE90C704D4600268346B3
:10063000207800070AD4AB4500DA5D4601A8012DF9
:1006400004DD411911F8011C302907D04F4502DAA9
:1006500017F1040F04DA012082460FE06D1EEEE769
:10066000002F02DCED1B3E4403E0781CA84200DDB5
:100670007D1CB81B00F1010A4FF0004720780007ED
:1006800003D4AA4501DB4FF0FF3A0021B7F1004F38
:100690000DF143088DF8431024D002202B23002FA6
:1006A00001DA7F422D230A21021EA0F1010000DCA5
:1006B0005FB197FBF1FC97FBF1F201FB1C7C174645
:1006C0000CF1300C08F801CDEEE7A8F10100037041
:1006D0002188090501D5452100E06521A0F1010827
:1006E00000F8011C09980FA9A1EB0807FF1D00B134
:1006F0000120411901EBEA70A1693844081A401E33
:10070000A0612078C00602D42046AFF3008009988B
:1007100028B1D4E901219047206A401C206220784A
:10072000C00622D52046AFF300801EE0002E04DB79
:10073000B34502DD01A8805D00E03020D4E901214D
:100740009047206A401C2062761CAAF101005FEAF3
:10075000000A0AD100F084F8C0680168405CD4E95E
:1007600001219047206A401C2062281EA5F1010546
:10077000DCDC07E0D4E9012118F8010B9047206A7E
:10078000401C2062381EA7F10107F3DC2046AFF3BE
:100790000080032011B041E6074B70B50D467B4445
:1007A00000F0B9F80446284600F09AF910B14FF06D
:1007B000FF3070BD204670BD374200000FB40023EB
:1007C00000B589B00CA900910B99CB60214B7B44FB
:1007D0000693214B7B44079304236FF00042CDE93D
:1007E00001321E4A7A446B4608920246002005F008
:1007F000FDFE09B05DF814FB70B506464FF0FF3002
:1008000015460C46324686B00091CDE90101694695
:100810000020049004A8FFF7D1FF02460498211895
:1008200025B108B1084600E0204628600498002859
:100830000DD0002A02DD0098884208D03246081BFD
:1008400069460094CDE9010404A8FFF7B7FF06B09C
:1008500070BD0000EB010000030200001301000066
:1008600000487047C001002000487047A0010020E8
:1008700030B5B0F10A024FEA900E71F100034EEA72
:10088000817EB0EB0E0061EB91014FEA101E4EEA43
:10089000017E10EB0E0041EB11114FEA102E4EEAD3
:1008A000016E10EB0E0041EB11214FEA104E4EEAA3
:1008B000014E10EB0E0041EB1141401841F10001D7
:1008C0004FEAD00040EA41704FEAD10110EB8005B9
:1008D0004FEA810444EA907444EB01046D1944EB3F
:1008E0000404521BA3414FF0000348BF0A3200D555
:1008F00030BD401C41F1000130BD10B5044600F090
:100900001DF90068005D00F0010010BD01694A1C7E
:1009100002610878704700B58FB0CDE90131002140
:10092000059105497944CDE9031011466846FFF762
:1009300067FC0FB000BD0000E5FFFFFF2DE9F041AF
:100940001F46044603260168072A01F4006004DB01
:1009500008B116A505E016A503E008B115A500E04D
:1009600015A521F010002060A069C01EA0610FB184
:10097000401EA0612046AFF300804FB1D4E90121B1
:1009800038469047206A401C2062C01C206206E066
:10099000206AFAE7D4E9012115F8010B9047761E89
:1009A000F8D22046AFF30080BDE8F0814E414E0002
:1009B0006E616E00494E4600696E6600426842B143
:1009C000016811F8013B23B1521EC0E9001218461C
:1009D00070470121C160881E704742685AB1C368E0
:1009E000016843B983688B4205D0491E521CC0E997
:1009F0000012002070474FF0FF3070472DE9F0479C
:100A0000814616468AB0354878440DC88DE80D00F9
:100A100032487844801C03AC0DC884E80D0041F6D0
:100A20009B300844372190FBF1F290FBF1F5A5F1E2
:100A3000800501FB12041B3C02D56442012000E04A
:100A40000020DFF898A080460027FA44AAF1BE0AE9
:100A50000EE0E0070AD03246684607EB4701012363
:100A60000AEB810101F06CF88DE8070064107F1C2F
:100A7000002CEED1194F7F44AE3F19E0E80715D0A6
:100A800007EB04100DF1180A90E80E008AE80E003A
:100A9000C068F04201D1981908903246012306A996
:100AA00003A801F04DF803AB83E807006D10641C48
:100AB000002DE3D14FF0010332466946B8F1000F33
:100AC00003A802D001F012F801E001F039F8C9E9F9
:100AD0000001C9F808200AB0BDE8F0879060000066
:100AE000007B00F08000704700487047A0010020A4
:100AF0007546FFF7F9FFAE4605006946534620F0FC
:100B00000700854618B020B5FFF75CFBBDE8204024
:100B10004FF000064FF000074FF000084FF0000BB9
:100B200021F00701AC46ACE8C009ACE8C009ACE86C
:100B3000C009ACE8C0098D467047000010B5FFF74A
:100B40008FFE001D10BD00BF754600002DE9FF4F50
:100B500006468BB00878FF2806D0491C2D2805D002
:100B600000244FF0000908E000200CE00124F8E721
:100B700009EB8903491C00EB43090878FF28F7D1EA
:100B800014B1C9F100008146107800252C46AA4610
:100B900029462D2801D02B2804D1521C2D2813D0F2
:100BA000002082468B461078FF280FD04FF0000CB3
:100BB0000A21521CA5FB017804FB018105FB0C11E5
:100BC000C5194BEB0104EEE70120EAE700210846D6
:100BD0004FF00000BAF1000F02D000EB8000400897
:100BE000C0F38157012F01DD4FF0FF370E9955EA11
:100BF000040009EB01080BD04FF0020918F5FA7F49
:100C000016DA4FEACA70002F706008DD012007E095
:100C10004FEACA70C6E900B00FB0BDE8F08F0020FF
:100C20003060FFF721FEC0F800901821084616E05A
:100C3000B8F5FA7F18DD002F02DAF748784401E0B2
:100C4000F6487844D0E90010C6E9001040EACA70BE
:100C50007060FFF709FEC0F80090142108460FB03D
:100C6000BDE8F04F05F037BC002108464FF000000A
:100C7000B8F10001099002DAC7F1000200E03A463B
:100C800001DAC8F1000106A8FFF7B8FE06AB93E849
:100C9000070003AB83E8070044F23E005BEA04016F
:100CA0000090584604D144F21E012C465D46009146
:100CB000210C0904014306D10099240444EA154497
:100CC0002D041039009104F07F41014306D10099B1
:100CD000240244EA15642D020839009104F07041A1
:100CE000014306D10099240144EA15742D01091F1E
:100CF000009104F04041014306D10099A40044EA68
:100D00009574AD00891E009104F00041084304D1A0
:100D100000986D196441401E00904FF001033A465F
:100D20006846B8F1000FCDE9014503A902DD00F0E6
:100D30001CFF01E000F0EFFEBAF1000F04460D4683
:100D400001D084F00044002108464FF000000999CA
:100D500040F2FF77484010F00C0F07D124F000401C
:100D6000284303D0C4F30A50B84212D1FFF77CFDE8
:100D7000C0F80090C4F30A50B8420AD1A848784499
:100D8000D0E90010C6E9001004F00041084370608B
:100D900042E7C6E900543FE72DE9FF4F1F464FF0F9
:100DA000000A4FF0FF38454691B0D7E90146CDF82B
:100DB0003CA0FFF755FDC0680168405C1090B96920
:100DC00012986D1C8847396A814688470028F6D1F9
:100DD000B9F1FF3F0AD0002E24F4D06411DDB9F13F
:100DE0002B0F08D0B9F12D0F0BD102E0404615B002
:100DF00013E744F48064B96912986D1C8847761E25
:100E00008146600504A901D52D2000E02B20002E8D
:100E100001F1010B0DF130088DF810003FDDB9F143
:100E2000690F08D0B9F1490F05D0B9F16E0F02D0A2
:100E3000B9F14E0F1CD13B4601A8009580E8500245
:100E4000DDE912126FF0020005F0D4FBC11CCED117
:100E50000EE0B96912986D1C884781461398761E7A
:100E600044F4007405600F98401C002E0F9016DDAE
:100E7000B9F1300FEDD0B9F1780F02D0B9F1580FB8
:100E80000DD10F9801280AD13B46CDE90054DDE988
:100E90001212001F029605F0ABFBC11CA7D11099DE
:100EA00089453ED144F0800406E01399681CAAF1FC
:100EB000010A44F400740860B9696D1C1298761E2A
:100EC000884730288146F0D02BE01099894505D11C
:100ED000200603D4761E44F0800418E0484603F050
:100EE000D4F908B3761E0DF123018B4544F4007448
:100EF00008D2A9F130000BF8010B200607D5AAF1A2
:100F0000010003E0200602D40AF101008246A00598
:100F100002D51399681C0860B96912986D1C88473E
:100F20008146002ED1DC53E0002E51DDB9F1650F72
:100F300002D0B9F1450F4BD1A00549D5B9696D1C57
:100F40001298761E24F440748847002E81460CDDEA
:100F50002B2804D0B9F12D0F07D144F48074B9695E
:100F600012986D1C8847761E8146E00501D52D211B
:100F700000E02B2108F8011BCDF8008021E0761E4F
:100F80000DF13901884544F400740CD2A9F1300008
:100F900010F0FF0088F8000002D10099884509D9B7
:100FA00008F1010806E0E00501D51E4801E042F223
:100FB0000F708246B96912986D1C88478146139854
:100FC0000560002E04DD484603F05FF90028D6D105
:100FD000F96912988847FF2053468BF8000088F87B
:100FE000000000200A900B9004AA0CA90AA8FFF7A1
:100FF000ADFDA00502D46FF00100F8E614F0240F57
:1010000012D0E0071CD13868DDE90A12031D3B60ED
:101010000068C0E9001213E09C5E00008E5E0000D4
:10102000525D0000F1D8FFFF0AA9684603F0B2F84C
:10103000E00705D13868009A011D39600068026038
:101040002846D4E610B50446AFF300802046BDE83C
:101050001040FFF7A5B800004FF0013C50F8042BFA
:1010600051F8043B9A4221D1A2EB0C03934313EABB
:10107000CC1317D150F8042B51F8043B9A4215D1E8
:10108000A2EB0C03934313EACC130BD150F8042BBF
:1010900051F8043B9A4209D1A2EB0C03934313EAA3
:1010A000CC13DBD04FF00000704700BFD01A01BA5C
:1010B000B1FA81F101F0180122FA01F0CB40C1F13F
:1010C0002001DBB2C0B2C01A2CFA01F3D11A91434D
:1010D00011EAC311E6D170472DE9FF4F1F464FF0CB
:1010E0003C0987B04FF00042DDE9141001F101081E
:1010F000DDF858A002EA4050039000200590834696
:10110000054604460490B969461E08988847AAF126
:10111000010A0290BAF1000F3BDD02982E2815D08B
:10112000102100F016FA00282EDB4FF0010B059974
:10113000014317D0B9F1000F0BDB4A46C11700F08D
:10114000F5F905430C43A9F1040905E001200490D9
:101150000BE008B145F0010501200590049820B985
:10116000361D02E0049800B1361FB969089808F1ED
:1011700001088847BBF1000FAAF1010A0290C9D00B
:101180000999C1F80080C5E70298702808D0502856
:1011900006D0F96908988847BBF1000F14D04FE0DA
:1011A000002002900120BBF1000F049009D0B96922
:1011B000089808F101088847AAF10109B9F1000F60
:1011C00007DCF969089888476FF001000BB0BDE8AB
:1011D000F08F2B2804D02D280CD14FF0FF30049035
:1011E000B969089808F101088847A9F10109B9F11E
:1011F000000FE6DD411CE4D00A2100F0AAF9002826
:10120000DFDB029908F1010801EB810100EB4100ED
:101210000290B969089888470A2100F09AF9099A5A
:10122000A9F10109B9F1000FC2F8008001DD002821
:10123000E7DAF969089888470499029800FB016683
:1012400055EA040004D004F04041090002D006E051
:10125000039898E0A40044EA9574AD00B61E04F02B
:101260000041080002D16D196441761E159810F0F6
:10127000240F03D04FF00B095C4803E04FF028091E
:101280006FF07D008246564507DAAAEB06018944D5
:10129000B9F1410F01DD4FF0410901200021A9F111
:1012A000010200F043F9024628400B462140084362
:1012B00001D0012100E00021501E029143F1FF31D5
:1012C00028402140084301D0012000E0002002997D
:1012D000834651EA0B014FD0002108464FF0000031
:1012E000039900F4400039B100EB80004FF4400155
:1012F00000EBD07001EA60008015012802DD4FF09C
:10130000FF3000E013D0401C36D0029860B3BBF130
:10131000000F0CD14A460120002100F007F92840B7
:101320002140084301D0012000E00020E0B101206D
:101330004A46002100F0FAF8034640190A46614186
:101340002D1A8C4111D3B9F1400F09DD159810F019
:10135000240F02D0AAF1340603E0AAF1170600E038
:10136000761C00254FF0004406E05B1E42F1FF3280
:1013700020EA030521EA0204CAF10100B04206DABC
:101380001B49039808430190002000900EE0039A47
:10139000C4F3D321E80A0A43164940EA44500A43F9
:1013A0003146CDE90002684602F05AFF159810F068
:1013B000240F0BD01598C00715D13868DDE900124D
:1013C000031D3B600068C0E900120CE002A86946FA
:1013D00002F0E0FE1598C00705D13868029A011D99
:1013E0003960006802604046F0E6000002FCFFFF42
:1013F0000000F07F0000F03F2DE9FF4F92461D46B0
:1014000085B04FF00041DDE9124BDDE914727F1E1B
:1014100001EA4B50414940F0FF4940EA01080021F0
:1014200022F020004928049102D04E2828D04CE018
:101430003BA0012607C88DE80700A9690698641C2F
:1014400088477F1E014606D41DF8060018B121F01A
:10145000200181420BD0E96906988847032E34D0D9
:10146000082E32D06FF0010009B0BDE8F08F761C75
:10147000032E01D0082EE0D1601CCAF80000DCE782
:10148000A9690698641C88477F1E2AD420F0200092
:10149000412826D1A9690698641C88477F1E20D45C
:1014A00020F020004E281CD1A9690698641C8847AA
:1014B0007F1E48F4002849F48009CAF8004001D48E
:1014C000282806D0E969069888475FEACB7012D0D1
:1014D00022E0A9690698641C88477F1E01D4002871
:1014E00003DAE96906988847BCE72928F1D1641C2A
:1014F000CAF80040E9E71BF0240F07D028680499D8
:10150000031D2B600068C0E9001805E02868021D73
:101510002A600068C0F800902046A5E70000F07F30
:10152000494E46494E49545900000000B2F120038B
:101530000AD5C2F1200301FA02F120FA03F300FAFE
:1015400002F041EA0301704700FA03F14FF0000096
:1015500070473A2800D2303820F02002412A01D3C7
:10156000A2F13700884201D34FF0FF3070475FEAA5
:10157000400C08BF91F0000F4FEA8C234FEAC122C4
:1015800043EA51514FEA1C5018BF00F5F0404FEAB2
:10159000300018BF41F000415FEA6C5C00F0298028
:1015A000BCF1FF3F08BF40F080407047130C06BFFE
:1015B00012044FF0100C4FF0000C130E04BF120277
:1015C0000CF1080C130F04BF12010CF1040C930F63
:1015D00004BF92000CF1020CD30F04BF52000CF1B7
:1015E000010C11464FF00002A0F11F00A0EB0C000F
:1015F000704711F0004F08BF704731F000413FF4D1
:10160000D5AF0B0C06BF09044FF0100C4FF0000CC7
:101610000B0E04BF09020CF1080C0B0F04BF0901EB
:101620000CF1040C8B0F04BF89000CF1020CCB0FE2
:1016300004BF49000CF1010CCCF12003A0EB0C001D
:1016400022FA03F302FA0CF241EA030100F101006D
:10165000704720F07F4C80EA030023F07F47ACEB1B
:10166000070303F57C5300F0004003F1FF032DE96D
:1016700080494FEA154B09B44FEA144325EA0B4E53
:1016800024EA03480FF2042606EB132749083E78A4
:101690005FEA320203FB0667C7F5000707FB06F6A1
:1016A0004FEA54374FEAD64606F1020607FB066CAE
:1016B000CCF1005C4FEA1C472CEA074C07FB06F410
:1016C0000CFB06F504EB15464FEA961634BF0020D6
:1016D0004FF000404FEAD13706FB07FC4FEA1C4CA5
:1016E0000CFB0BF7D21B03FB0CF761EB07010CFBA8
:1016F0000EF7B0EB074072EB17420CFB08F734BF54
:10170000A2EB0742B2EB074261EB17414FEA0C44F0
:101710004FEA910706FB07FC4FEA1C4C0CFB0BF74A
:10172000B0EBC74072EB573203FB0CF734BFA2EBB0
:10173000C742B2EBC74261EB57310CFB0EF7B0EB7F
:10174000C70072EB57720CFB08F734BFA2EBC7025D
:10175000B2EBC70261EB5771039F4FEA816141EA27
:10176000921104EBCC044FEAD1374FEA826206FBB8
:1017700007FC42EA90124FEA80604FEA1C4C0CFBD7
:101780000BF7D21B03FB0CF761EB07010CFB0EF709
:10179000B0EB074072EB17420CFB08F734BFA2EB2B
:1017A0000742B2EB074261EB17414FEA8C554FEA13
:1017B000910704EB9C2406FB07FC4FEA1C4C0CFB36
:1017C0000BF7B0EBC74072EB573203FB0CF734BF9B
:1017D000A2EBC742B2EBC74261EB57310CFB0EF7ED
:1017E000B0EBC70072EB57720CFB08F734BFA2EBEB
:1017F000C702B2EBC70261EB577115EB4C254FEAFC
:10180000816141EA92114FEA82624FEAD13742EA9E
:10181000901206FB07FC44F100044FEA80604FEA97
:101820001C4C0CFB0BF7D21B03FB0CF761EB070105
:101830000CFB0EF7B0EB074072EB17420CFB08F7FE
:1018400034BFA2EB0742B2EB074261EB174115EB45
:101850001C154FEA813141EA92414FEA823242EA55
:1018600090424FEA80304FEA0C7644F1000448EA97
:1018700003434EEA0B484FF0000EB2EB080C71EB3D
:10188000030724BF624639464EEB0E0E4FF0000BA5
:101890000018524149414BEB0B0BB2EB080C71EBBA
:1018A00003077BF1000B24BF624639464EEB0E0E58
:1018B0004FF0000B0018524149414BEB0B0BB2EBC0
:1018C000080C71EB03077BF1000B24BF624639461D
:1018D0004EEB0E0E51EA020718BF46F0010616EB5A
:1018E0000E7655F1000254F1000103D5BDE88901DF
:1018F000BDE80088BDE88901BDE80048B61952413D
:1019000041EB0101A3F10103704780807F7E7D7C64
:101910007B7A7978777676757473727171706F6E81
:101920006E6D6C6C6B6A6A6968686766666564642C
:10193000636362616160605F5F5E5E5D5D5C5C5BB6
:101940005B5A5A5959585857575656555555545425
:10195000535352525251515050504F4F4F4E4E4D83
:101960004D4D4C4C4C4B4B4B4A4A4A4949494848CF
:10197000484747474746464645454544444444430F
:1019800043434342424242414141000046EA064647
:10199000A3F570534FEA164646EA42564FEAD22262
:1019A00042EA415210B54FEAD121A3F1010300F000
:1019B0002FF820F0004000F1020C00F0004701EB8E
:1019C00000501146BCF5006F40EA070000D210BD80
:1019D000BAF1000F0AD01CB503B44FF004004FF069
:1019E00004014FF000000FBCBDE810404FF00001B3
:1019F000BBF1010FB9BF04484FF0FF31034800218C
:101A000040EA070010BD00BFFFFFEF7F0000F07F3E
:101A1000002B9C4630D477002BD01CB54FEA3707FB
:101A200003B44FF010004FF01001BAF1000F06D0D0
:101A3000BCF1000FDCBF40F0080040F008014FF09F
:101A400000000FBCBDE810400BF1010BBBF1010F12
:101A500008BF5FEA170722BF12F1010211F101016D
:101A60004FF0004143F1000300F0004043EA000062
:101A70007047F9D35708D0E746EA064613F1400FFE
:101A80004FEA16461FDD13F1200FDFBF16430A464B
:101A9000002120335B42BED0C3F1200746EA064650
:101AA00002FA07F74FEA164646EA0706C3F120078F
:101AB00022FA03F201FA07F721FA03F14FF00003CB
:101AC00042EA0702A7E746EA020646EA06464FEA66
:101AD000164646EA0106BCBF46EA0646360C4FF0FB
:101AE00000034FF000024FF0000194E72DE9804C15
:101AF0009A46934670B491E8380007C831EA400C22
:101B000048BF34EA430C03D5FFF7A3FDFFF780FF7E
:101B1000F0BCBDE8008C2DE9804C9A46934670B429
:101B200091E8380007C831EA400C48BF34EA430C5A
:101B300003D5FFF78EFDFFF729FFF0BCBDE8008C51
:101B40002DE9804C9A46934670B491E8380007C856
:101B500010F0804F08BF13F0804F03D100F01AF847
:101B6000FFF756FFF0BCBDE8008C2DE9804C9A468B
:101B7000934670B491E8380007C810F0804F08BF52
:101B800013F0804F03D100F005F8FFF7FFFEF0BC23
:101B9000BDE8008C20F07F4780EA030023F07F4CF3
:101BA00007EB0C03A3F57C5300F00040A3F1FE0308
:101BB00092F0000F00F0B38095F0000F00F07780F6
:101BC0002DE901494FEA11404FEA144621EA004845
:101BD00000FB06FC24EA064708FB06F607FB08F8AC
:101BE00000FB07F718EB06484CEB164C4FEA124B7C
:101BF00018EB07484FEA15464CEB174022EA0B4E0C
:101C00000BFB06FC25EA06470EFB06F607FB0EFE5D
:101C10000BFB07F71EEB064E4CEB164C4FF0000685
:101C20001EEB074E4CEB174B18EB0B0840F1000076
:101C300018EB0E0B58EB000840F100008F1A4FF024
:101C400000013CBFC943661B14BFB5EB040C002167
:101C50003CBFC943F61B4FEA17444EEA8E0E27EAF3
:101C600004454FEA1C4704FB07622CEA074C05FBBE
:101C700007F70CFB05F604FB0CFC16EB074642EBE2
:101C8000174216EB0C4642EB1C421BEB060658EBC8
:101C90000202414146EA9E0601D5BDE80189B61916
:101CA000524141EB0101A3F10103BDE801894FEA73
:101CB00014454FEA114724EA054621EA074C05FB83
:101CC00007F406FB07F70CFB06F105FB0CFC11EB18
:101CD000074144EB17444FEA124711EB0C4144EB28
:101CE0001C4422EA074C05FB07F206FB07F70CFB36
:101CF00006F605FB0CFC16EB074642EB174216EB0B
:101D00000C4642EB1C456A1854F1000148BF70476D
:101D1000B619524141EB0101A3F10103704795F05F
:101D2000000F37D04FEA11424FEA144721EA02462A
:101D300024EA074C02FB07F106FB07F70CFB06F44D
:101D400002FB0CFC14EB074441EB17414FEA15472B
:101D500014EB0C4441EB1C4125EA074C02FB07F550
:101D600006FB07F70CFB06F602FB0CFC16EB07461E
:101D700045EB174516EB0C4645EB1C42121951F189
:101D8000000148BF7047B619524141EB0101A3F170
:101D9000010370474FEA14454FEA114724EA05460C
:101DA00021EA074C05FB07F106FB07F70CFB06F2DF
:101DB0004FF0000605FB0CFC12EB074241EB17410C
:101DC00012EB0C4251EB1C4148BF7047921841EB9B
:101DD0000101A3F101037047FEE7704772B6FEE709
:101DE00070B54FF40041094800F074F9084D440003
:101DF0000821284600F06EF920434006040E2915FC
:101E0000284600F067F9204370BD0000000801403B
:101E1000000C014010B590F821100022022905D0D5
:101E20000421816380F82020012010BD01680B6827
:101E300023F00E030B6001680B6823F001030B60B5
:101E400090F84030C46B012101FA03F3636080F81D
:101E5000211080F82020104610BD000010B590F829
:101E600021100024022903D00421816301243DE0D4
:101E700001680A6822F00E020A6001680A6822F00E
:101E800001020A601A4A0168914201D1012121E050
:101E9000174A1432914201D110211BE0144A283212
:101EA000914201D1891515E0114A3C32914201D18C
:101EB00089140FE00E4A5032914202D14FF4803122
:101EC00008E00B4A6432914202D14FF4801101E0E4
:101ED0004FF08071064A083A5160012180F82110C4
:101EE000002180F82010416B01B18847204610BDC9
:101EF000080002402DE9F84FDFF8B8910024A9F15D
:101F0000040B23460F2709F1040AABF1040EC9E0C4
:101F10000125A5402A40AA427DD1674ED1F804C0D0
:101F2000ACEB0608B44532D014DCBCF1030F3AD058
:101F300009DCBCF1000F2AD0BCF1010F1CD0BCF1B0
:101F4000020F31D11DE0BCF1110F17D0BCF1120FFF
:101F50002AD119E0B8F5881F19D006DCB8F5803F02
:101F600015D0B8F5801F1FD111E0B8F5001F0ED0B5
:101F7000B8F5041F18D10AE0CB6815E0CB681B1D2B
:101F800012E0CB6808330FE0CB680C330CE08B68B1
:101F90002BB1012B4FF0080303D0456104E004236B
:101FA00002E0056100E00023FF2A01D8064601E0B7
:101FB00000F104064FEA840501D9A5F12005D6F801
:101FC000008007FA05FC28EA0C0803FA05F548EA40
:101FD0000508C6F800804D68ED0062D5374DAE6942
:101FE00046F00106AE61AD6924F0030605F0010577
:101FF0000095334D06EB050CDCF80850A607360FAC
:1020000007FA06F825EA0805DFF8B880404503D14D
:102010004FF0000817E044E0DFF8AC80404502D103
:102020004FF001080FE0DFF8A480404502D14FF0E7
:10203000020808E0DFF89880404502D14FF003081D
:1020400001E04FF0040808FA06F848EA0508CCF861
:1020500008804D68D9F80060ED024D4601D5164361
:1020600000E096432E604D68DAF80060AD025546F8
:1020700001D5164300E096432E604D68DBF8006002
:10208000AD035D4601D5164300E096432E604D68D2
:10209000DEF80060ED03754601D5164300E0964377
:1020A0002E60641C0D682A46E5407FF431AFBDE820
:1020B000F88F0000080401400000111000100240D9
:1020C0000000014000080140000C014000100140E8
:1020D000001401408068084000D0012070470AB118
:1020E000016170470904FBE7014880687047000000
:1020F0000C0000200248816802781144816070471A
:102100000C000020074810B5016841F01001016083
:10211000032000F075F80F2000F006F800F024F816
:10212000002010BD0020024070B50D4D04464FF454
:102130007A712878B1FBF0F00A490968B1FBF0F038
:1021400000F0DCFA48B9102C07D200222146501EBC
:1021500000F036F800206C6070BD012070BD0000FA
:102160000C000020180000200C4808B5816941F0DF
:1021700001018161816901F001010091C16941F0B2
:102180008051C161C06900F08050009004484168EE
:1021900021F0E06141F00071416008BD0010024093
:1021A00000000140002809DB00F01F0201219140DE
:1021B0004009800000F1E020C0F8001170470000E5
:1021C000F0B40E4B1B680C46C3F30223C3F10705A2
:1021D000042D00D90425191D072901D2002300E090
:1021E000DB1E012606FA05F1491E214099409E405A
:1021F000761E16403143F0BC01F04DBF0CED00E0FF
:10220000064900F0070208684FF6FF03184040EA4D
:102210000220034A10430860704700000CED00E004
:102220000000FA052DE9F0470F46050061D0434E46
:10223000306800F00700B84209D2306820F007008B
:1022400038433060306800F00700B84251D1286848
:102250003B4C810712D5400703D5606840F4E0602D
:1022600060602878000703D5606840F460506060C3
:102270006068A96820F0F000084360602878C00713
:1022800028D06868012810D02168022810D089075A
:1022900000292EDA616821F0030101436160FFF734
:1022A00023FF804641F288390DE021688903EFE77A
:1022B0008901EDE7FFF718FFA0EB0801494502D9B6
:1022C0000320BDE8F0876068696800F00C00B0EB9F
:1022D000810FEFD1306800F00700B8420BD93068A9
:1022E00020F0070038433060306800F00700B84243
:1022F00001D00120E5E72878400705D56068E96846
:1023000020F4E060084360602878000706D5606824
:10231000296920F4605040EAC100606000F038F89C
:102320006168084AC1F30311515CC840064908605E
:1023300006480068FFF7F8FE0020C2E700200240D0
:10234000001002403A66000818000020100000202B
:102350000448054900684968044AC1F30221515CF8
:10236000C840704718000020001002404A6600086C
:102370000448054900684968044AC1F3C221515C18
:10238000C840704718000020001002404A6600084C
:102390000E4A51680E4801F00C03042B11D0082B93
:1023A0000FD10C48C1F38343C903C05C0AD55168FF
:1023B000084AC1F34041921E515C054A5043B0FBAC
:1023C000F1F0704704494843704700000010024094
:1023D00000127A002A66000800093D002DE9F84F36
:1023E000040070D02078C04DC00749D06868C0F3A1
:1023F0008100012807D06868C0F38100022809D154
:102400006868C00306D52868800339D5606800284D
:10241000E7D035E06068B0F5803F0BD010B1B0F583
:10242000A02F11D0286820F480302860286820F47C
:10243000802002E0286840F480302860606890B115
:10244000FFF752FE06460AE0286840F48020286024
:10245000F0E700BFFFF748FE801B642873D82868A8
:102460008003F7D50CE0FFF73FFE064605E000BF0E
:10247000FFF73AFE801B6428F0D828688003F7D461
:1024800020789A4E80074FF001094FF0000839D5A7
:10249000686810F00C0F07D06868C0F3810002284C
:1024A00009D16868C00306D42868800714D520695C
:1024B000012808D110E02069B0B1C6F80090FFF7FC
:1024C00013FE074605E00AE1FFF70EFEC01B0228D7
:1024D000C4D828688007F7D52868616920F0F8001B
:1024E00040EAC10028600DE0C6F80080FFF7FCFD5F
:1024F000074604E0FFF7F8FDC01B022823D8286830
:102500008007F7D4207800072CD57948A169D9B184
:10251000C0F80090FFF7E8FD074604E0FFF7E4FD90
:10252000C01B02280FD8686A8007F7D571484FF49E
:10253000FA510068B0FBF1F0009000BF0098411E16
:102540000091FAD20EE080E0C0F80080FFF7CCFDE9
:10255000074604E0FFF7C8FDC01B022875D8686A6B
:102560008007F7D42078400760D5E8690027C000CD
:1025700008D4E86940F08050E861E869012700F07C
:10258000805000905C480168C90513D401688346F7
:1025900041F480710160FFF7A7FD824606E000BFAD
:1025A000FFF7A2FDA0EB0A0064284ED8DBF800007C
:1025B000C005F5D5E06801280AD008B1052813D078
:1025C000286A20F001002862286A20F0040002E056
:1025D000286A40F001002862E06841F2883B98B127
:1025E000FFF782FD82460BE0286A40F00400286273
:1025F000EEE700BFFFF778FDA0EB0A0159455AD876
:10260000286A8007F6D50CE0FFF76EFD824605E0EC
:10261000FFF76AFDA0EB0A0159454CD8286A8007EC
:10262000F6D41FB1E86920F08050E861E06988B312
:102630006968C1F38101022944D00228C6F860808C
:1026400004D0FFF751FD044638E034E0FFF74CFDBD
:10265000074604E0FFF748FDC01B02282BD8286876
:102660008001F7D4206AB0F5803F05D16868A16881
:1026700020F4003008436860D4E908010843696821
:1026800021F4741108436860C6F86090FFF72CFDD0
:10269000044606E025E000BFFFF726FD001B0228E8
:1026A00009D828688001F7D51BE000BFFFF71CFDA3
:1026B000001B022802D90320BDE8F88F286880019A
:1026C000F4D40EE00128F7D06868226A00F4803163
:1026D000914204D1616A00F47010884201D0012057
:1026E000EAE70020E8E70000001002400000424254
:1026F00080044242180000200070004010B5401EC7
:10270000B0F1807F01D3012010BD4FF0E024606163
:102710000F21601701F0BFFC0020A061072020619D
:10272000002010BD7047704710B590F83C20012A7A
:1027300022D0012280F83C20CA688C6822F44072C2
:1027400022434C6822F4806222430C6822F4006227
:1027500022430C6922F4805222434C6922F4005235
:102760002243C969002322F480420A4301684A6473
:1027700080F83C30002010BD022010BD70B590F8EC
:102780003C20012A26D0012480F83C40022280F817
:102790003D2003685A689D6822F070060A6832433B
:1027A0005A600D4B02689A4208D0B2F1804F05D0B2
:1027B0000A4B9A4202D00A4B9A4204D1496825F04A
:1027C00080031943916080F83D40002180F83C105F
:1027D000084670BD022070BD002C0140000400407E
:1027E0000008004010B5040003D094F83D0010B17B
:1027F00007E0012010BD002084F83C00204600F0D6
:102800001FF8022084F83D00211D206801F03AF9EC
:10281000012084F8460084F83E0084F83F0084F8E4
:10282000400084F8410084F8420084F8430084F8B2
:10283000440084F8450084F83D00002010BD0000ED
:1028400030B585B0002405460094019402940394A9
:102850000068284A2849904209D1886940F40060FC
:102860008861886900F40060049005B030BDB0F163
:10287000804FFAD1C86940F00100C861C86900F012
:1028800001000490886940F008008861886900F0C0
:1028900008000490886940F00400886188696946EE
:1028A00000F0040004904FF4816000901348FFF79B
:1028B00021FB4FF40040CDE9000469461048029422
:1028C000FFF718FB0F48416821F4407141F0E061C7
:1028D00041F440714160002211461C20FFF770FC5A
:1028E0001C20FFF75FFC2868C16841F00201C1604D
:1028F000BBE70000002C014000100240000C01402A
:10290000000801400000014090F83D10012901D06D
:1029100001207047022180F83D100168CA6842F02A
:102920000102CA6000680B49884208D0B0F1804FAC
:1029300005D00949884202D00849884204D18168FB
:1029400001F00701062903D0016841F0010101608F
:1029500000207047002C01400004004000080040A7
:1029600070B5044690F83C000025012817D00126D8
:1029700084F83C60022084F83D002068826822F0E0
:10298000770222F47F4282600868502838D00DDC3C
:1029900020284FD005DC90B3102811D14AE0022046
:1029A00070BD302846D040280AD13BE060282FD0A7
:1029B00070280DD0B0F5805F03D0B0F5005F12D065
:1029C000012584F83D60002084F83C00284670BD55
:1029D000CB68D1E90121206801F097F8206881686F
:1029E00041F0770109E0CB68D1E90121206801F0CD
:1029F0008CF82068816841F480418160E1E719E04A
:102A0000CA684968206801F07BF95021206806E017
:102A1000CA684968206801F0B1F96021206801F0B6
:102A20007EF8CEE7CA684968206801F069F940215C
:102A30002068F4E7226801461046F0E70268506813
:102A400020F0800008435060002070470168B1F119
:102A5000804F04D1007F012801D102F005BB7047EF
:102A60002DE9F041054690F83C0000260C4601286F
:102A700010D0012085F83C0072B1042A1CD0082A2D
:102A80002CD00C2A50D00126002085F83C0030467E
:102A9000BDE8F0810220FBE7D4E90012E368286872
:102AA00001F040F92868816921F00C0181612868F2
:102AB0008169A26811430FE0D4E90012E368286835
:102AC00001F06EF92868816921F44061816128680C
:102AD0008169A26841EA02218161D5E72868D4E9C9
:102AE000002C277B036A016A21F480710162C169AD
:102AF00023F4007321F0030141EA0C0121F0F00CF2
:102B000039074FF400774CEA116107EA02221A43B1
:102B1000C16102622868C16921F00C01C1612868A5
:102B2000C169A26811432BE02868D4E90021E76855
:102B3000036AD0F820C02CF4805CC0F820C0D0F824
:102B40001CC023F400532CF4407C4CEA012121F4F6
:102B5000704C4FF6FF7101EA07314FF4005741EA1C
:102B60000C0107EA02321A43C16102622868C16996
:102B700021F44061C1612868C169A26841EA02216B
:102B8000C16181E710B5040003D094F83D0010B195
:102B900007E0012010BD002084F83C00204600F032
:102BA0001EF8022084F83D00211D206800F06AFF15
:102BB000012084F8460084F83E0084F83F0084F841
:102BC000400084F8410084F8420084F8430084F80F
:102BD000440084F8450084F83D00002010BD704793
:102BE00030B50446002551B104290DD0082910D074
:102BF00094F8410094F84520012811D10EE094F892
:102C00003E0094F84220F7E794F83F0094F8432000
:102C1000F2E794F8400094F84420EDE7012A01D04F
:102C2000012030BD022059B1042912D0082919D041
:102C300084F8410084F845000C2938D0012534E09F
:102C400084F83E0084F842002068C26842F0020224
:102C500010E084F83F0084F843002068C26842F026
:102C6000040207E084F8400084F844002068C26849
:102C700042F00802C2600122206800F039FF0E49CC
:102C80002068884208D0B0F1804F05D00B498842B7
:102C900002D00B49884204D1816801F0070106295E
:102CA00003D0016841F001010160284630BD206871
:102CB000C26842F01002DDE7002C01400004004031
:102CC0000008004070B50446006801694FF0000537
:102CD000C943890715D4C168C943890711D4E91EBE
:102CE000016101202077206880698007204602D09A
:102CF000FFF7ACFE04E000F0BFF8204600F051F909
:102D0000257720680169C943490717D4C168C943B9
:102D1000490713D46FF00401016102202077206875
:102D2000806910F4407F204602D0FFF78FFE04E058
:102D300000F0A2F8204600F034F9257720680169F8
:102D4000C943090716D4C168C943090712D46FF0F3
:102D500008010161042020772068C06980072046AF
:102D600002D0FFF773FE04E000F086F8204600F082
:102D700018F9257720680169C943C90617D4C168C5
:102D8000C943C90613D46FF01001016108202077F0
:102D90002068C06910F4407F204602D0FFF756FE3D
:102DA00004E000F069F8204600F0FBF82577206881
:102DB0000169C943C90708D1C168C943C90704D11A
:102DC000891E0161204600F03BF920680169C94372
:102DD000090609D4C168C943090605D46FF080010A
:102DE00001612046FFF79EFC20680169C94349063E
:102DF00009D4C168C943490605D46FF04001016197
:102E0000204600F049F920680169C94389060BD4BE
:102E1000C168C943890607D46FF0200101612046CB
:102E2000BDE87040FFF77FBC70BD000000B585B005
:102E30000021009101910291039100680B498842A1
:102E400012D10B48816941F00401816180696946B2
:102E500000F0040004904FF4E06000900220019024
:102E600003900448FFF746F805B000BD002C014070
:102E70000010024000080140704770B5044690F809
:102E80003C0000260D4601280FD0012084F83C00AC
:102E90006AB1042A1DD0082A2FD00C2A3FD001265F
:102EA000002084F83C00304670BD022070BD2068D0
:102EB00000F03EFE2068816941F0080181612068D0
:102EC000816921F004018161206881692A691143C7
:102ED00011E0206800F054FE2068816941F400612F
:102EE00081612068816921F4806181612068816944
:102EF0002A6941EA02218161D2E7206800F06CFE74
:102F00002068C16941F00801C1612068C16921F0F0
:102F10000401C1612068C1692A69114311E0206878
:102F200000F086FE2068C16941F40061C16120683B
:102F3000C16921F48061C1612068C1692A6941EADF
:102F40000221C161ACE710B5040003D094F83D0044
:102F500010B107E0012010BD002084F83C0020469D
:102F600000F01EF8022084F83D00211D206800F0CA
:102F700089FD012084F8460084F83E0084F83F0073
:102F800084F8400084F8410084F8420084F843004B
:102F900084F8440084F8450084F83D00002010BD0A
:102FA0007047704710B50446022249B104290ED07B
:102FB000082913D094F84100012816D0012010BD33
:102FC00094F83E000128F9D184F83E200FE094F8EF
:102FD0003F000128F2D184F83F2008E094F8400037
:102FE0000128EBD184F8402001E084F8412001223F
:102FF000206800F07DFD0F492068884203D1426CB3
:1030000042F4004242642068884208D0B0F1804F08
:1030100005D00949884202D00849884204D1816814
:1030200001F00701062903D0016841F001010160A8
:10303000002010BD002C01400004004000080040AA
:10304000704770B5044690F83C00012812D0012565
:1030500084F83C50022084F83D00204600F00AFE2F
:1030600001004FF0000007D084F83D5084F83C0088
:10307000012070BD022070BD2168CA6822F04002A4
:10308000CA602168CA6822F48042CA6084F83D5050
:1030900084F83C00002070BD704770477047000006
:1030A000F8B5016804460868CA684B6910F00F0F4C
:1030B0004FF0000559D003F0010602F49077374332
:1030C00065D0C10705D0D10503D5616C41F0010180
:1030D0006164410705D5D90703D0616C41F0020155
:1030E0006164810705D5D90703D0616C41F0040103
:1030F0006164010707D502F02001314303D0616C00
:1031000041F008016164616C00293AD0800604D561
:10311000900602D5204600F08DFE20684069616C63
:10312000C0F38010090700D460B3204600F05BFEB6
:1031300020684069400621D52068143050E8001FFF
:1031400021F0400140E80012002AF5D1E06BA8B15F
:103150006D494163E06BFEF781FE002811D0E06B02
:10316000416B01B0BDE8F040084783060FD59306D8
:103170000DD52046BDE8F84000F05CBE2046FFF7C4
:103180008DFFF8BD2046FFF789FF6564F8BD266B0B
:103190002023012E7CD1C6067AD5D60678D50868BC
:1031A0004868009048694FF00206400640D5E16B40
:1031B000086840680004000CE8D0A28D8242E5D97E
:1031C000E085886920282DD020680C3050E8001F49
:1031D00021F4807140E80012002AF5D120681430F3
:1031E00050E8001F21F0010140E80012002AF5D14B
:1031F0002068143050E8001F21F0400140E8001220
:10320000002AF5D184F84230256320680C3050E85C
:10321000001F21F0100140E80012002AF5D1E06BF8
:10322000FEF7F8FD6663A08DE18D401A81B22AE0B9
:10323000A08DE18D401A81B2E08D0028A6D0002932
:10324000A4D022680C3252E8000F20F4907042E8BB
:103250000007002FF5D12068143050E8002F22F02D
:10326000010240E80027002FF5D184F842302563A1
:1032700020680C3050E8002F22F0100240E80023B4
:10328000002BF5D166632046FFF707FFF8BDFFE787
:1032900005062BD5150629D594F841002128F5D12E
:1032A000A068B0F5805F01D12069B0B1206A411CEF
:1032B0002162216800784860E08C401E0004000C08
:1032C000E084E3D12068C16821F08001C1602068FA
:1032D000C16841F04001C160D8E7206A0088C0F3AE
:1032E00008004860206A801C2062E5E74006CDD5D2
:1032F0005006CBD5CA68204622F04002CA6084F846
:10330000413000F002F9C1E7D73D000870B5040074
:1033100004D094F84100002510B106E0012070BDF2
:1033200084F84050204600F023F8242084F841001F
:103330002068C16821F40051C160204600F0DCFD26
:103340002068016921F4904101612068416921F000
:103350002A0141612068C16841F40051C16065647F
:10336000202084F8410084F842006563002070BD8D
:1033700030B585B000240094019402940394006851
:10338000184988422BD11848C16941F40031C16104
:10339000C16901F400310491816941F00401816146
:1033A0008069124D00F00400049004200090022077
:1033B00001900320039069462846FEF79BFD0820F4
:1033C000CDE90004694628460294FEF793FD0022E9
:1033D00011462620FEF7F4FE2620FEF7E3FE05B098
:1033E00030BD0000004400400010024000080140D1
:1033F00090F84230202B01D00220704721B11AB141
:103400000023036300F0D4BD012070470068144915
:10341000884224D11348144A4188491C89B241800A
:103420000388022B15D0012B114404D011F8011C84
:103430000D290CD00DE011F8013C00210A2B01D020
:10344000018002E002230380D177418001E0012165
:1034500001804088111801220448FFF7C9BF704756
:103460000044004000000020A80000205801002077
:103470002DE9F843044690F841001F4616460D46D4
:10348000202802D00220BDE8F8837DB176B100206B
:103490006064212084F84100FEF726FEA684804661
:1034A000E684A068B0F5805F02D003E00120EAE77F
:1034B000206910B12E4600250EE000260CE0802188
:1034C000204600F090FDA0B9AEB116F8010B2168BE
:1034D0004860E08C401EE084E08C43464FF00002E0
:1034E00000970028EBD14FF04001204600F07BFD13
:1034F00030B10320C7E735F8020BC0F30800E6E758
:10350000202084F841000020BDE77047FEE700005E
:1035100070B502F081FC0B4A0B4B02F0ABF90B4D7E
:1035200006460C46286802F077FC094A094B02F06F
:10353000A1F93246234601F089FE01F055FE2860CC
:1035400070BD00009A9999999999B93F7800002027
:10355000CDCCCCCCCCCCEC3F2DE9F04385B00024D5
:1035600025480094019402940394816941F020015C
:103570008161816901F020010491816941F00401B8
:103580008161816901F004010491816941F00801C0
:103590008161816901F008010491816941F01001A4
:1035A00081618069DFF8548000F0100004900022EF
:1035B00040214046FEF793FDDFF844904FF4E0577A
:1035C000002239464846FEF78AFD402001250226A2
:1035D000CDE90005CDE9024669464046FEF78AFC82
:1035E00000970396CDE9015469464846FEF782FCF0
:1035F00005B0BDE8F0830000001002400008014063
:103600000010014010B596B000240F94109411944E
:10361000129413941C2168461494FCF778FE202120
:1036200007A8FCF774FE30482E49C0E9001440F2A8
:103630002B11C0E90241046144618461FFF7D2F8B3
:1036400008B1FEF7CBFB4FF480500F900FA926482E
:10365000FFF786F908B1FEF7C1FB2348FFF773FCBB
:1036600008B1FEF7BBFB139413A91F481494FFF78E
:1036700085F808B1FEF7B2FB6020CDE900040294A2
:103680000394049405940022694617480694FFF7B2
:10369000F4FB08B1FEF7A2FB042269461248FFF7CB
:1036A000ECFB08B1FEF79AFB082269460E48FFF7CB
:1036B000E4FB08B1FEF792FB0794089409944FF4D9
:1036C00000500A94CDE90B4007A907480E94FFF774
:1036D0002BF808B1FEF782FB0348FFF7A7FB16B0F3
:1036E00010BD0000002C0140C800002010B58AB0B9
:1036F00000242E4804940594069407940894099491
:103700000094019402944FF080410394016040F2D0
:10371000AF41C0E9011442F20F71C0E903148461A2
:10372000FFF760F808B1FEF759FB4FF480500490A2
:1037300004A91E48FFF714F908B1FEF74FFB1B4818
:10374000FFF720FA08B1FEF749FB089408A91748CB
:103750000994FFF713F808B1FEF740FB0320CDE909
:10376000004002940022694610480394FFF778F95C
:1037700008B1FEF733FB042269460C48FFF770F9E5
:1037800008B1FEF72BFB082269460848FFF768F9E5
:1037900008B1FEF723FB80210448FFF74FF900280A
:1037A00001D0FEF71BFB0AB010BD00001001002085
:1037B0000C4810B50A4901604FF4165141600021D0
:1037C00081600C22C160C0E904128161C161FFF710
:1037D0009DFD002803D0BDE81040FEF7FFBA10BDE4
:1037E0000044004058010020FEE7FEE72DE9F041CB
:1037F00080464FF0E0208669214C224DE06A8642E7
:1038000001D2801B03E06FF07F41891B084402F066
:103810009DFC294602F0A0FBE6621B4E054610F017
:10382000FF4F02D0B5F17C5F00DD184D4046A16826
:1038300002F0D4FC07464046E16902F0D7FD216959
:1038400002F0CCFC294602F087FB0146384602F024
:103850000FFB05463068294680F0004002F08AFDE3
:1038600003D2306880F0004505E02846316802F058
:1038700081FD00D23568C4F81C802846BDE8F0817F
:1038800078000020001B374B6C0000206F12833A39
:103890000C480B494FF0E02241608907C1600A499A
:1038A0000162002141618161416293698362074B3A
:1038B00083604FF07C530361C1619169C1627047BD
:1038C000CDCCCC3D780000200000C8420000A040D4
:1038D0002DE9F04781464FF0E02086694A4C4B4D78
:1038E000A06A864201D2801B03E06FF07F41891BF2
:1038F000084402F02BFC294602F02EFBDFF8108171
:10390000054610F0FF4FA66202D0B5F17C5F00DDE6
:10391000404D4846616802F061FC82464846A16914
:1039200002F0A6FA02F078FA06460F462946E06849
:1039300002F054FC02F070FA4FF0FF3202F002FE87
:1039400032463B4601F096FF06460F46606902F09C
:1039500063FA32463B4601F079FC01F045FC07462C
:10396000D8F80000464680F00040394602F002FDDB
:1039700003D2306880F0004705E03846316802F035
:10398000F9FC00D237685046394602F071FA804699
:103990003068414680F0004002F0ECFC03D2306811
:1039A00080F0004607E04046316802F0E3FC01D2B7
:1039B000366800E046463046616A02F017FD294647
:1039C00002F0CAFA8046216A02F0D4FC07D22946E6
:1039D000206A02F003FC616A02F04AFA0DE0206AF4
:1039E000414680F0004002F0C5FC07D22946206A1B
:1039F00002F0F4FB616A02F0EEFC06466662C4E97E
:103A000005793046BDE8F08778000020001B374B71
:103A1000680000206F12833A70477047FEF76ABB58
:103A200030B58FB028216846FCF771FC14210AA834
:103A3000FCF76DFC022501200490009510200590F4
:103A400000248003CDE9084007956846FEF7C6FCD0
:103A500008B172B6FEE70F200A90CDE90B540D9421
:103A600000210AA80E94FEF7DDFB002801D072B6F3
:103A7000FEE70FB030BD00000148FFF723B900009A
:103A800010010020F0B50268164B174C174D4FF08F
:103A90008047984205D0B84203D0A04201D0A84246
:103AA00003D122F070064A683243984205D0B842EA
:103AB00003D0A04201D0A84203D122F44074CA68C6
:103AC00022434C6922F08002224302608A68C2626B
:103AD0000A688262984201D109690163012141614A
:103AE000F0BD0000002C0140000400400008004030
:103AF00010B501F01F030121046A99408C43046250
:103B0000016A9A401143016210BD10B5846842EA0F
:103B1000032224F47F440A432243826010BD82685A
:103B200022F070020A4342F00701816070470000F2
:103B300030B5036A026A22F00102026242688469B7
:103B400024F073050C682C4323F002058B682B438B
:103B50000A4DA8420BD123F00805CB6822F440722D
:103B60002B434D6923F0040315438A692A434260BD
:103B7000846149684163036230BD0000002C01404C
:103B800030B5026A036A23F0100303624368846954
:103B90000D6824F4E64444EA05248D6822F02002EE
:103BA00042EA05120B4DA8420ED1CD6822F08002E8
:103BB00042EA05124D6923F4406343EA85038D69A7
:103BC00022F0400243EA85034360846149688163CF
:103BD000026230BD002C014030B5036A026A22F453
:103BE000807202624268C46923F4007324F0730592
:103BF0000C682C438D6843EA05230C4DA8420ED176
:103C0000CD6823F4006343EA05234D6922F4405252
:103C100042EA05128D6923F4806342EA051242608C
:103C2000C4614968C163036230BD0000002C0140DB
:103C300030B5046A026A22F4805202624268C369A3
:103C40000D6823F4E64343EA05238D6824F4005409
:103C500044EA0534064DA84204D14D6922F480425D
:103C600042EA85124260C36149680164046230BD62
:103C7000002C014070B5036800249A6822F070059A
:103C80004A682A4322F007050A682A439A604A686C
:103C900012F00F0F31D11211082A2ED2DFE802F0F4
:103CA0002E2E2E2E0B2127040B69D1E9022100684C
:103CB000FFF72BFF22E00A68052A10D00268136A7A
:103CC000156A25F00105156202689569096925F0F4
:103CD000F00545EA01119161006803620EE00120E0
:103CE00070BD0A698968006800F00AF806E00A6990
:103CF0008968006800F042F800E00124204670BDA9
:103D000010B5036A046A24F001040462846924F093
:103D1000F00444EA021423F00A020A4384610262B6
:103D200010BD000070B5056A046A24F00104046245
:103D300084690F4EB04208D0B0F1804F05D00D4ECF
:103D4000B04202D00C4EB04203D124F0030414431D
:103D500001E044F001041A0724F0F00444EA12627E
:103D600025F00A0301F00A0119438261016270BD66
:103D7000002C0140000400400008004010B5036A18
:103D8000046A24F010040462846923F0A00324F47C
:103D9000704444EA023243EA01118261016210BDBB
:103DA00030B5046A056A25F010050562856925F4B9
:103DB000407545EA022222F470454FF6FF7202EA8E
:103DC000033224F0A0032A43A02404EA011119437A
:103DD0008261016230BD10B5406A0021C185C18495
:103DE000FFF75CF910BD01680C3151E8002F22F497
:103DF000907241E80023002BF5D10168143151E89D
:103E0000002F22F0010241E80023002BF5D1016BC5
:103E1000012909D101680C3151E8002F22F010026C
:103E200041E80023002BF5D1202180F84210002129
:103E30000163704708B590F84210222901D0022092
:103E400008BD82684FF480539A4201D1016921B1C3
:103E5000816A9A421BD04AB10AE00268816A5268BC
:103E6000C2F308020A80816A891C08E0026972B103
:103E70000268526802F07F020A70816A491C8162FE
:103E8000C18D491E0904090CC18503D01BE00268DD
:103E90005268F1E70168CA6822F02002CA6001682E
:103EA000CA6822F48072CA6001684A6922F001027D
:103EB0004A61202180F8421000214163026B012AEF
:103EC00003D0FFF7A3FA002008BD016301680C319D
:103ED00051E8002F22F0100241E80023002BF5D119
:103EE00001680A68D20602D50A6849680091818D86
:103EF000FFF7D3F8E7E7000070B5044600680169F2
:103F0000E26821F44051114301612169A06808432E
:103F1000616908432168CA6841F20C639A4302430D
:103F2000CA6020684169A26921F44071114341616E
:103F30001E492068884202D1FEF71AFA01E0FEF716
:103F400007FA00EBC00101EB0012606864218000F9
:103F5000B2FBF0F3B3FBF1F36FF018067343B2FB5F
:103F6000F0F5B2FBF0F605EB8305322303EB051504
:103F7000B5FBF1F5B6FBF1F605F0F00505EB06151E
:103F8000B2FBF0F6B2FBF0F0B0FBF1F06FF018020C
:103F9000504306EB800003EB0010B0FBF1F021680A
:103FA00000F00F002844886070BD00000038014018
:103FB00081628285C28500214164222180F84210FD
:103FC000016921B10168CA6842F48072CA6001685F
:103FD0004A6942F001024A610068C16841F020016B
:103FE000C160002070472DE9F041984617460E4603
:103FF0000446069D27E0681C25D02DB1FEF774F815
:10400000A0EB0800A8421ED920680C3050E8001F21
:1040100021F4D07140E80012002AF5D12068143054
:1040200050E8001F21F0010140E80012002AF5D1FC
:10403000202084F8410084F84200002084F84000E9
:104040000320BDE8F0812068006836EA000004D053
:104050000020B842CFD00020F3E70120F9E70000AC
:104060000148FFF71DB8000058010020FEE7490095
:1040700050EAC12018BF04204A0D18BF40F00100CB
:1040800040F2FF72B2EB515F08BF40F0020001281E
:1040900008BF052070470907090E002804DB00F15E
:1040A000E02080F80014704700F00F0000F1E020DD
:1040B00080F8141D70472DE9F0414F1E00EBC70139
:1040C0000446D1E9000115461E4637F006020DD020
:1040D0002A46334601F0CEFB7F1E04EBC703D3E92B
:1040E000002301F0B3F837F00602F1D1022F25D0FA
:1040F000042F13D0062F18BFBDE8F0812A4633469F
:1041000001F0B8FBD4E90A2301F0A0F82A463346AF
:1041100001F0B0FBD4E9082301F098F82A463346B1
:1041200001F0A8FBD4E9062301F090F82A463346B3
:1041300001F0A0FBD4E9042301F088F82A463346B5
:1041400001F098FBD4E9022301F080F82A463346B7
:1041500001F090FBD4E90023BDE8F04101F076B80E
:10416000012202F0EFB901F071B8002213461046A7
:10417000114601F027B940F2013200204FF0E04132
:1041800002F0E0B9024A0020110702F0DBB900009A
:1041900001FDFFFF10B50446D1E9000100F002F86F
:1041A000206010BDF8B504460D466A4600F020FCBC
:1041B00000987E30009000281EDC00221346204626
:1041C000294601F057FA17D0002140F608004FF0B9
:1041D000000006462046294601F006F8044640F64F
:1041E000080006EA00014FF0000034F0004004BF70
:1041F0000220FCF7BCF829E00098FF2828DB00210A
:1042000008464FF0000000F4400600221346204606
:10421000294601F0D5FC8CBF002501250220FCF7C2
:10422000A6F84FF0FF4446B1002D0CBF4FF400003C
:104230004FF48000B04218BF084C042108464FF0EC
:104240000000002D04BF84F00040F8BD2046F8BDFA
:1042500020462946BDE8F84000F0C6BFFFFF7F7F3B
:1042600010B504460A46D4E90003194600F04EFC96
:10427000C4E9000110BD10B50446084601F04EFF28
:104280002146BDE8104001F0A9BF30380A2801D20C
:10429000012070470020704770B501F0BDFD0C4C47
:1042A0000C4D22462B4600F04DFB00F09DFF10F117
:1042B000FF4F02D201F0B0FD05E001F0ADFD224656
:1042C0002B4600F0C3FFBDE8704000F08DBF00003A
:1042D000EA2E4454FB2119402DE9F05F05463E4F7C
:1042E000DFF8F8A0DFF8F8903E4EDFF8FCB001F000
:1042F00093FD3E4A3E4B01F0BDFA88460446BD425E
:1043000017DA0022134601F05BFC204641464FF0CD
:1043100000024B4602D800F099FF01E001F092FC48
:1043200001F0E4F956F8200001F03DFA5A465346F0
:104330004CE03048854214DA00222046134601F052
:104340003FFC204641464FF000024B4602D800F0A9
:104350007DFF01E001F076FC01F0C8F9C0F5C770FF
:10436000E0E72548254F85424FF0000220461346DE
:1043700015DA01F025FC204641464FF000024B467D
:1043800002D800F063FF01E001F05CFC01F0AEF93F
:1043900006EB8000A0F58050D0F8C80912E001F0CB
:1043A0000FFC204641464FF000024B4602D800F079
:1043B0004DFF01E001F046FC01F098F9C0F54770AF
:1043C00056F8200001F0EFF95A463B4601F052FA48
:1043D000BDE8F05F00F008BFDB0FC93FE2361A3FCF
:1043E0000000E03F5C6600082D431CEB9CA223B953
:1043F000FCAB5F40DB0F4940E4CB9640E2361ABF8E
:104400000249A1EB600101F0E9BE0000865A375F66
:10441000704700002DE9F04781464FF0E0208569A4
:10442000304C314F314EA068DFF8C480854201D254
:10443000401B03E06FF07F41491B084401F086FEFA
:10444000394601F089FD01F0E7FC3246434601F0B0
:1044500011FA00F0C9FEA560264D064610F0FF4F88
:1044600002D0B6F17C5F00DD234E2069314601F0B9
:10447000B5FE07464846296801F0B8FF20F0004025
:10448000394601F077FF1DD2296848460F4601F0F2
:10449000ADFF10F1FF4F02D34FF0FF3005E0B0F554
:1044A000000F01DB012000E0002001F037FE216950
:1044B00001F094FE314601F091FE394601F0D8FC3E
:1044C000286002E04846C5F80090E6686169FFF799
:1044D000D2FE02460021304600F074FC3046BDE8B2
:1044E000F08700005C000020000040418DEDB5A089
:1044F000F7C6B03E380000206F12833A2DE9F84F1E
:1045000004460D4621F0004000917349814211DCC0
:104510007249884201DC06D12CB120462946BDE80B
:10452000F84FFFF71DBE6E48002DCCBF6D496E4998
:10453000BDE8F88F6D49814211DD6D498142D8BFD8
:104540004FF0FF366DDD20462946FFF790FD042829
:1045500008BFFFF717FE20462946BDE8F88F6549DA
:10456000654F25F00045814233DD6449814219DD04
:10457000002632464FF080432046294600F066FE72
:1045800080468A4601222046294601F0DBFF0022B0
:104590003B4601F057FB4246534600F013FF0446EA
:1045A0000D463EE001260022BA463B4620462946FB
:1045B00000F04CFE80460F46002253462046294616
:1045C00001F040FB42463B4600F0FCFE04460D462F
:1045D00027E04B4981421BDDDFF828A1022600229B
:1045E00053462046294601F045F900223B4600F09B
:1045F0002DFE80460F46002253462046294601F0F4
:1046000021FB42463B4600F0DDFE04460D4608E035
:10461000032622462B4600203B4900F0D3FE0446E9
:104620000D4622462B461046194601F023F98B46CB
:10463000824602460B4601F01DF907460246334802
:1046400088460B4606217844FFF735FD52465B4607
:1046500001F010F982462E488B463A464346052122
:104660007844FFF728FD3A46434601F003F9024635
:104670000B46002E504659460CDA00F0E7FD224664
:104680002B4601F0F7F801B022462B46BDE8F04F6B
:1046900001F0CCBA00F0DAFD22462B4601F0EAF830
:1046A0001C4A7A4402EBC603D3E9002301F0CAFA9C
:1046B00022462B4601F0C6FA174A7A4402EBC6039B
:1046C000D3E9002301F0B2FA009A002AB8BF81F0C2
:1046D0000041BDE8F88F0000000010440000F07FAA
:1046E000182D4454FB21F93FFB21F9BF0000DC3FAA
:1046F0000000203E0000F33F0000F03F0000E63FD6
:10470000008003400000F83F0000F0BF9E2300003F
:104710005C230000FA220000C22200002DE9F04DC7
:104720009446CCF1000423F000464CEA0404594FAF
:1047300046EAD4749A46884621F00042BC4206D824
:10474000454240EA050442EAD474BC4204D9BDE8BB
:10475000F04D6246FFF707BDAAF14055A5F17F6510
:1047600055EA0C040BD0022404EAAA744A4DDFF87F
:104770002CE144EAD87452EA000B04D00CE0BDE806
:10478000F04DFFF7BBBE002C14BF012CBDE8F08D2F
:10479000022C30D0032C32D056EA0C0B0AD0BE4289
:1047A00020D1BA4209D126F0804622F08042334619
:1047B000114617E000291ADB25E0DFF8E4B0FB44DE
:1047C000002C04BFDBE90001BDE8F08D012C02BF25
:1047D000DBE9000181F00041BDE8F08D022C0AD038
:1047E000032C0CD0BA4212D1B8F1000F0BDA2A48D0
:1047F0002C49BDE8F08D28462B49BDE8F08D2846B0
:104800007146BDE8F08D24482849BDE8F08D921B23
:1048100012153C2AC4BF204F244E10DCBAF1000F01
:10482000BEBF12F13C0F00273E4608DB624600F097
:10483000C9FD21F00041FFF761FE07460E4694B125
:10484000012C08BF86F000460DD0194A194B022CE6
:104850003846314615D001F0F5F92A46BDE8F04D4D
:10486000114B01F0EFB9002213463846314600F0F3
:1048700001FF04BF0220FBF77AFD38463146BDE850
:10488000F08D01F0DFF92A46BDE8F04D064B01F04E
:10489000CDB900000000F07F182D4454FB2109C061
:1048A00056220000FB21F9BFFB210940FB21F93F03
:1048B000075C143326A6A13C30B583B00446FBF751
:1048C00051FD05460020CDE900000246214668461C
:1048D000FBF792FF2846FBF74AFDDDE9000103B034
:1048E00030BD000010B50E4C2088022808D10D48BC
:1048F0000178542905D00CA0FBF776FC002020801D
:1049000010BD401CFFF7D8FF00F06EFC606001F0A6
:1049100083FA02460B4608A0FBF766FCEEE70000B0
:1049200000000020A8000020696E70757420657278
:10493000726F720D0A00000052783D252E34660D0C
:104940000A00000070B514461D460E46002814BF2C
:1049500001210021314321F00041C1F17F6101F1CA
:10496000E041C90F16D1002C14BF012100212943B9
:1049700021F00041C1F17F6101F1E041C90F09D18E
:104980001449B1EB460F08BF00281CD0690008BFCE
:10499000002C18D0314601F065F8024640F2FF7055
:1049A00030EA11500DD0F017B0EBE17F09D0084686
:1049B00065F31E0084460B462046614601F036F939
:1049C0000246104670BD0120FBF7D1FCBDE87040E7
:1049D000FFF7CBBB0000E0FF13B54FF6FF730122DA
:1049E00069460248FEF744FD00981CBD58010020AE
:1049F00010B5144600222260114A21F00043934270
:104A0000A8BF10BD53EA000208BF10BDB3F5801F58
:104A1000A8BF226807DA362201F094FD6FF0350254
:104A200021F000432260DFF81CC06FF31E510CEB35
:104A300023531A4441F0FF5141F00051226010BD50
:104A40000000F07F02FCFFFF70B50D4C606801F0C4
:104A500065FB0546E06894F9001000EB400001EBAF
:104A6000400001F05BFB294601F076FA01F0D4F931
:104A7000044A054B00F0FEFEBDE8704000F0B4BBF8
:104A80001C000020EA2E4454FB2119402DE9F0417E
:104A90001A4EB169706930B14FF0E0229269511A33
:104AA000B1EB400F02DD0020BDE8F08101F036FBE4
:104AB000134901F051FA01F0AFF904460D46B04632
:104AC000706801F02BFB01F0A7F902460B460D4878
:104AD0000D4900F077FC07460E46D8F8100000F0AC
:104AE00062FE3A46334600F0C5FE22462B4600F0F1
:104AF00069FCBDE8F04100F077BB00001C0000201D
:104B0000001B374BEA2E4454FB2119402DE9F0419C
:104B100006460C4640F2FF75174635EA14502BD076
:104B200000221346304600F0A5FD25D03A46304617
:104B3000214601F007FD06460C4635EA145010D018
:104B400000221346304600F095FD15D10220FBF7F8
:104B50000EFCFFF717FB0A46214662F31E01BDE873
:104B6000F0810220FBF703FCFFF705FB0A46214614
:104B700062F31E01BDE8F08130462146BDE8F081B8
:104B80000F4810B50078042819D0032817D0FFF774
:104B90005BFF0C49044608600B48406901F0BEFA0F
:104BA000214601F01BFBFFF777FB0849024608602E
:104BB0000748D0E90010BDE8104000F003B910BD6F
:104BC00059000020380000205C0000203C0000203C
:104BD0005000002086B0FDF795FAFEF721FFFEF7A2
:104BE000BBFCFEF70FFDFEF781FDFEF7E1FD33494B
:104BF00031480024086033493148072508603349AB
:104C00003148086032494002086032483249047035
:104C1000012008703148214605603148FEF7C2F98D
:104C200004212F48FEF7BEF908212D48FEF7BAF9F6
:104C30002C4E012291023046FDF751FA0122D10299
:104C40003046FDF74CFA012211033046FDF747FAD2
:104C5000012240212448FDF742FA01222349244839
:104C6000FEF7C6FB4020CDE900400A2002906946CD
:104C70002048FEF7E6F91F48FDF746FE00211D48D3
:104C8000FDF7AEFFFEF704FE4FF0E0201A49416148
:104C90001A4AF02182F8141D8461056118A0FBF7FF
:104CA000A3FA1B4D6C60686800F034F8FFF768FFEA
:104CB000FFF718FEF7E700000000C0416000002089
:104CC0000000A040680000200000A0416C0000200F
:104CD00074000020580000205900002070000020BF
:104CE000C80000200010014000080140A80000207A
:104CF0005801002010010020FEFFFF000FE000E03F
:104D00004D6F746F722072656164790D0A00000046
:104D1000000000202DE9F047054600F09DF9DFF87E
:104D200084A001460027CAF800001F48DFF87C90E5
:104D30001F4C00781F4A204EDFF88080052809D2DA
:104D4000DFE800F003180C24290099F8000018B1DE
:104D5000C8F80050BDE8F0876560FBE718491560AA
:104D60002846096801F042FBFEF740FD3060DAF8A2
:104D7000001001E02846356001F038FBFEF7A8FD81
:104D8000C8F8000099F8001049B1E3E728463560FB
:104D900000F0B2F903E028461560FFF73BFBC4E9D9
:104DA0000070D7E740000020590000205800002084
:104DB000500000204C00002048000020440000204B
:104DC000380000202DE9FE4F82460C4601F0FF45D9
:104DD000964F104601F020F88846814615B351469B
:104DE000084601F0FBF905462146084601F0F6F9B0
:104DF000294601F03DF8FFF703FB796801F0ACF8B4
:104E00000546204601F008F804460E46504601F0DB
:104E100003F822463346FFF781FC02460B4648461C
:104E2000414608E05046796801F096F80546484644
:104E300041467F4A7F4B00F009FA00F0D5F9FFF7B1
:104E40002BFA02467C487D49854201DB054602E09B
:104E50008D4200D90D46104600F0DEFF0446784A28
:104E6000784B019100F0AEFA0022774B00F0EEF99A
:104E700000F06CFC8246284600F0CEFF06468846CD
:104E80005046019D00F0A6FC81466D4A6D4B029193
:104E900000F0F0FC22462B4600F0D4FE00F0A4F90E
:104EA000FFF71AFA00F0B8FFDFF8A0B1684B5A46D6
:104EB00000F0E0FC4346324600F0DCFC00F094F9E0
:104EC000354600904646484600225F4B029900F066
:104ED000B9FE5B4A5B4B00F0CDFC02460B46204618
:104EE000019900F0AFFE00F07FF9FFF7F5F900F04F
:104EF00093FF5A46564B00F0BDFC2A46334600F05D
:104F0000B9FC00F071F980464FF07E50009901F035
:104F10006DFA414601F06AFA02464FF0FF31BAF1EC
:104F2000070F62D2DFE80AF0610413243344520011
:104F3000104601F035FB06464146009800F098FF08
:104F4000314600F095FF0546304641460CE01046DC
:104F500001F026FB0646009900F08AFF054641460F
:104F6000009800F085FF314600F082FF04463FE0E4
:104F7000104601F015FB05464146009800F078FF09
:104F8000294600F075FF0446284641460CE01046CD
:104F900001F006FB0546009900F06AFF0446414611
:104FA000009800F065FF294600F062FF06461FE00A
:104FB000104601F0F5FA0446414600F059FF054657
:104FC0004146009800F054FF2146EDE7104601F0FD
:104FD000E7FA04464146009800F04AFF214600F0F7
:104FE00047FF054620460099DEE700252C462E4661
:104FF000386801F093F80746294601F0EFF801F010
:105000006DF8144D296848633846214601F0E6F8EA
:1050100001F064F8296888633846314601F0DEF80B
:1050200001F05CF82968C863BDE8FE8F5C000020D1
:10503000F4D64354FB21F93F46B6133F46B613BF9F
:1050400040AF2D3852C1F03F0000F03F6B6058E890
:105050007AB6FB3FC800002010B5FFF717FDBDE88A
:105060001040FEF755BA000010B54FF0E0208469FB
:10507000FCF7B6FE41B21E4890F90120914233D0B0
:1050800041701C4990F90120895690F900208B1A33
:105090004FF0FF32032B05DD0261C26803691A4439
:1050A000C2600DE090F90030CB1A13F1030F01DA62
:1050B0000122F1E790F90030994200DD01220261FE
:1050C00001700169826891420FD181698C4202D2DC
:1050D0008169091B04E06FF07F418269091B11445B
:1050E000416184610169816010BD0021F8E7000021
:1050F0001C000020526600082DE9F04781464FF061
:10510000E02085691C4C1D4F1D4EA068DFF874809F
:10511000854201D2401B03E06FF07F41491B0844E8
:1051200001F014F8394600F017FF00F075FE324622
:10513000434600F09FFB00F057F8014610F0FF4F88
:10514000A56002D0B1F17C5F00DD0F49484601F057
:1051500045F80E4D296800F08BFEFFF79DF828609A
:10516000E5686169FFF787F8024600212846FFF7E6
:1051700029FE2846BDE8F0875C0000200000404181
:105180008DEDB5A0F7C6B03E6F12833A380000200F
:1051900010B500290AD00878002807D005487844BF
:1051A000FBF75AFF002801D0002010BD02487844C8
:1051B00010BD0000461900003E19000010B500297E
:1051C0000AD00878002807D005487844FBF744FF48
:1051D000002801D0002010BD0248784410BD000016
:1051E000361900002E19000021F00042A2F1605291
:1051F000B2F5801F01F0004328BFD2F17F6C0BD9BC
:105200005FEA001C43EAC20242EB507018BF7047CD
:1052100028BF20F001007047B2F5801FBCBF1846C0
:1052200070474FEA410C1CF5001F02D2084601F0FE
:105230009CB870B500F0C8FB00000089FFF7F6BF0E
:105240004FF00040A0F580007047000010B591EAD3
:10525000030F48BF83F0004300F1FC84841A71EB14
:10526000030C05D2121943EB0C03001B61EB0C017C
:10527000DFF824E14FEA1154A4EB135C1EEA430F5C
:1052800018BF9EEA445F73D023EA0E03DCF1200EC0
:1052900021EA045143F4801332D322FA0CFE10EBBE
:1052A0000E0023FA0CFE41EB0E01CCF1200E03FAA6
:1052B0000EFE10EB0E0051F10001B1F5801FCCF194
:1052C000200E32D201EB045112FA0EF2BDE810406A
:1052D00058BF7047401C38BF5FEA420218BF704792
:1052E000002814BF20F0010041F100014FEA410302
:1052F00013F5001F38BF7047A1F1C04100F05ABC40
:10530000012A43EB0302ACF1200CDCF11F0E32BF8B
:105310004FF0000E23FA0CF310EB030041EB0451A5
:10532000B4EB115FD0D0A1EB045101F58011490815
:105330005FEA300001EB04510ED350F1000038BF9A
:1053400012FA0EFE08D1BDE81040C9E7401C38BF74
:105350005FEA4202CAD1C3E7BDE810404FEA410309
:1053600013F5001F38BF7047A1F1C04100F022BC07
:105370009EEA445F08D011EA5E0FBDE8104004BF0A
:1053800001F0004100207047BDE8104070B500F00A
:105390001BFB00BF64FBBE3E0000E0FF02494FF074
:1053A000000001F09DB800BF0000F87F491058BF11
:1053B000C1F140415B1058BFC3F140438B42EFF352
:1053C000008070472DE9C04130B4DFF8A0C23CEA4C
:1053D000111418BF3CEA131400F0EC8081EA0305B5
:1053E0001CEA111444EAD57418BF1CEA131500F026
:1053F000C780A4EB05044FF0004545EAC12145EA0A
:10540000C32341EA505143EA525304F17F74994255
:1054100004F500344FEAC0204FEAC22208BF904290
:1054200000F09C804FEA13650FF24016765D4FEA5C
:10543000134506FB05F7C7F1807706FB07F74FEA30
:10544000D737A7FB03687642C8F58038A7FB06CE9E
:1054500038BFA8F1010807FB08E64FF0000EA6FBD5
:10546000028CE6FB03CEDCF1000CCEF1004E38BF1F
:10547000AEF1010EA6FB0C584FF000074FF00005EF
:10548000E6FB0E87A1FB08C6A0FB07CE16EB0E06B7
:1054900045F10005E1FB076515F1E04E7EBFA4F57F
:1054A00080345FEA46066D4116F1800745F100053C
:1054B0004FEA17274FEA066647EA0567A6F1DE4678
:1054C000B6F1805F4FEA15251FD9384624F0010C4C
:1054D00005EBC471BCF1FE6F01EB0C1102D8F0BCFE
:1054E000BDE8008124425CBF01F5801E9EEAC47FB6
:1054F00002D4F0BCBDE80081244238D4F0BCA1F154
:10550000C041BDE8004100F055BB4FEAD22242EA5B
:1055100043524FEAD323A7FB02864FEAD02040EA4A
:10552000415007FB03661EEA0E0F4FEAD12105FB2F
:10553000026658BFA6EB0056B6EB00564FEA520E75
:105540004EEAC37E18EB0E0E56EB530EBDD518EB8C
:1055500002085E417F1C55F10005B6E74FF4801547
:105560004FF000074FF000064FF00008ADE7F0BC29
:105570004FF0000001F1C04101F00041BDE80081A1
:1055800011EA0C1F0CEA131500D00CE013EA0C1FF3
:1055900000F025804FF00000F0BC81EA030101F02B
:1055A0000041BDE80081F0BCBDE8004181EA030193
:1055B00000F000BBF0BCBDE8004170B500F004FA9B
:1055C000097EFC3E00F007B881EA03014FF00000BD
:1055D00001F00041704781EA030100F0EBBAF0BC32
:1055E000BDE800414FF0000021497047FFFDFBF985
:1055F000F7F5F4F2F0EEEDEBE9E8E6E4E3E1E0DE06
:10560000DDDBDAD8D7D5D4D3D1D0CFCDCCCBCAC877
:10561000C7C6C5C4C2C1C0BFBEBDBCBBBAB9B8B79E
:10562000B6B5B4B3B2B1B0AFAEADACABAAA9A8A891
:10563000A7A6A5A4A3A3A2A1A09F9F9E9D9C9C9B5F
:105640009A9999989797969595949393929191900A
:105650008F8F8E8E8D8C8C8B8B8A8989888887879B
:105660008685858484838382828181800000FF0710
:105670000000F87F51EA030C17D41CF5801F58BFB7
:10568000BCF5801F00F10680994218BF704708BF23
:105690009042704707D711F5801F58BF13F5801F40
:1056A00019D499427047894270471CF5801F08D56C
:1056B000BCF5801FF7D58B4218BF704708BF8242E8
:1056C00070474FF4001C1CEB410F38BF1CEB430F1D
:1056D00001D28B42704770B500F076F992244900F0
:1056E0004FF000514FF08053FFF760BE4FEA410387
:1056F0004FEA5353A3F58063D3F11E03C8BFD3F120
:10570000210C0CDD4FF0004242EAC12242EA505225
:1057100032FA03FC8CEAE17CACEBE1707047102BB1
:10572000C4BF0020704703F5787CBCF1FF3F04D074
:105730006FF0004282EA2100704770B500F044F932
:105740004992248000207047F2E700004FEA11538D
:10575000A3F58063D3F11E03A8BFD3F1200C08DBAF
:105760004FF0004242EAC12252EA505232FA03F0AC
:10577000704709420BD4102BC4BF0020704703F5BB
:10578000787CBCF1FF3F05D04FF0FF3070474FF001
:105790000000704770B500F017F900BF49922480EF
:1057A00000207047F0E710F0004248BF4042B0FAD6
:1057B00080F310FA03F10AD0C3F11D0303F58063EF
:1057C0004FEA415002EB035202EBD12170474FF0F8
:1057D00000007047B0FA80F310FA03F10AD0C3F169
:1057E0001D0303F580634FEA41504FEA035202EB79
:1057F000D12170474FF000007047000051EA030CC0
:1058000017D41CF5801F58BFBCF5801F00F106801F
:10581000994218BF704708BF9042704707D711F5EB
:10582000801F58BF13F5801F19D4994270478942D1
:1058300070471CF5801F08D5BCF5801FF7D58B423B
:1058400018BF704708BF824270474FF4001C1CEB22
:10585000410F38BF1CEB430F01D28B42704770B52C
:1058600000F0B2F8922449004FF000514FF08053FD
:10587000FFF79CBDDFF848C170B51CEA111E1EBFC2
:105880001CEA13159EEA0C0F95EA0C0F00F06F80CE
:1058900081EA030423EA4C134EEAD47E21EA4C1138
:1058A00041F4801143F48013AE44A1FB024CA0FBF1
:1058B0000365AEF17F7E361955EB0C05A1FB034C59
:1058C0004CF10003A0FB021C16EB0C06654153F1E2
:1058D0000003094218BF46F0010613F4007F0BD104
:1058E0004FEA03314FEA0530340341EA155140EAEB
:1058F00016506FF003020AE04FEAC3214FEAC520B9
:10590000F40241EA555140EA56506FF0020202EBB0
:105910002E4201EB025585EACE710AD05FEA440CB3
:1059200018BF24F0004450F1000041F1000120EACA
:10593000D47040F2FE7C624500D270BDA84214BF14
:105940004FF080444FF04044002E08BF0024BEF1C9
:10595000806FA8BFA1F1C041BDE8704080F22A81EC
:105960004FF0000001F1C04101F0004170479EEA94
:105970000C0F0CEA131518BF95EA0C0F06D04FF068
:10598000000081EA030E0EF0004170BD00F01CF82B
:105990008900013E00F007B800F009B84FEA430C57
:1059A0005FEA5C5C08D081EA030100F003B94FEACA
:1059B000410C5FEA5C5CF6D14FF000000149704792
:1059C0000000FF070000F87F0EF1020E2EF0030E1C
:1059D0005EF8046B364205D4012A43EB030515F546
:1059E000001F12D8012841EB010C1CF5001F0CD838
:1059F0000ED14FEAD17C15F5001F0CEB4C0C0CF1CD
:105A0000020C08BF4CEBD37C04E04FF0080C01E023
:105A10004FEAD37C0CEB4C0526FA05F606F0070698
:105A2000B6F1040C06D20EEB860CBDE870404CF0CB
:105A3000010C6047DFE80CF0090B02024FF0004157
:105A40004FF00000A1F5002170BD19461046012855
:105A500051EB010418BFD4F5001484BF002001F0FD
:105A6000004170BDDFF844C170B53CEA111418BFA5
:105A70003CEA131500F08F8011F1004F1CEA13155A
:105A80000CEA111468BF45F0050518BF11EA0C1F98
:105A900000F079802E4621EA4C1123EA4C1341F4A0
:105AA000801143F48013A5F58035AC423DDD801AAA
:105AB0009941A4F5803609D54042C1F1000134BFB7
:105AC000B1F10101B1F1000185F0010511F4F01F00
:105AD00008D011F4801FE8D1400041EB0101A4F58A
