:020000040800F2
:1000000048050020050100085B250008252300089D
:10001000592500086D0F0008952A0008000000000F
:100020000000000000000000000000005F25000844
:100030006F0F0008000000005D2500086125000822
:100040001B0100081B0100081B0100081B01000820
:100050001B0100081B0100081B0100081B01000810
:100060001B0100081B0100081B0100081B01000800
:100070001B0100081B0100081B0100081B010008F0
:100080001B0100081B0100081B0100081B010008E0
:100090001B0100081B0100081B0100081B010008D0
:1000A0001B0100081B0100081B0100081B010008C0
:1000B000BD2500081B0100081B0100081B010008EA
:1000C0001B0100081B0100081B0100081B010008A0
:1000D0001B0100081B010008892A00081B010008F9
:1000E0001B0100081B0100081B010008DFF810D0ED
:1000F00000F01CFD004800470D3C0008AFF30080F5
:100100004805002005480047FEE7FEE7FEE7FEE75A
:10011000FEE7FEE7FEE7FEE7FEE7FEE7ED0000088C
:10012000202A04DB203A21FA02F00021704721FA4C
:1001300002F3D040C2F120029140084319467047B3
:10014000D2B201E000F8012B491EFBD27047002219
:10015000F6E710B513460A4604461946FFF7F0FFC6
:10016000204610BDF0B480EA0102D40F4200B2EB89
:10017000410F02D20246084611464A0042D0C30D42
:10018000DDB2C1F3C752AD1A202D35DAC1F3160125
:1001900041F4000204B15242C5F1200602FA06F110
:1001A0002A411044B3EBD05F23D0C4B1012DA0EBA2
:1001B000C35009DCF0BC4FF0004202EAC352DBB28C
:1001C00000F5000000F0B3BB400000F1807000EBD0
:1001D000C350A0F1807040EAD170490009E049089D
:1001E00041EAC071A0EBC35000F50000400800EBED
:1001F000C350F0BC00F092BB6142012202EB41010E
:10020000001BF6E7F0BC704781F00041AAE780F0E0
:100210000040A7E780EA010210B502F00043400069
:1002200022D04A001FD0010E01EB1261C0F356002C
:10023000C2F3560240F4000042F40002A0FB022088
:1002400000047F39140400D0401C50EA124001D44D
:100250004000491EC2B20C0604EBD010401C4008FE
:10026000802A02D003E0002010BD20F00100002908
:1002700000DA0020184310BD30B480EA010202F019
:10028000004530F0004221F0004013D090B1C30D82
:10029000D40DC2F31601C0F31600E41A41F40001B4
:1002A00040F400027D34914201D3641C00E0490017
:1002B000002C02DA30BC002070474FF4000000230D
:1002C000914201D3891A034340084FEA4101F7D113
:1002D00051B1914202D14FF0004105E002D24FF0FE
:1002E000010101E06FF0010103EBC450284430BC70
:1002F00000F014BB420005D0C0F3C75252429142F5
:1003000001DC0020704700EBC15070472DE9FE4F23
:10031000804681EA0300C00F0C46009021F00041A6
:1003200023F00045B8EB0200A94105D24046214622
:1003300090461C460B46024623F00040104347D02F
:10034000270DC7F30A00C3F30A510290401A019027
:1003500040286BDAC3F3130040F4801B00989246E8
:1003600020B10023D2EB030A63EB0B0B0198594633
:10037000C0F14002504600F062FA06460D46504673
:100380005946019A00F06AFA10EB08006141002416
:1003900087EA115284EAE7731A4340D0009A62B3A5
:1003A000019A012A4FEA075215DC001B61EB02019A
:1003B0004FF0004202EA0752CDE90042001C41F52D
:1003C000801132462B4600F0EFFA03B0BDE8F08F03
:1003D00040462146F9E7001B61EB0201001C41F594
:1003E000801300185B412018A2F5001747EB0301AA
:1003F00040EAD570B6196D4111E06D084FEA360636
:1004000045EAC0754FEA0752001B61EB0201001C70
:1004100041F5801149084FEA300000195141324638
:100420002B4603B0BDE8F04F00F0AFBA00980122B0
:1004300040000023D0EB020263EBE07300982146FA
:100440004FEAE074B8EB000061EB0401E9E783F0E8
:1004500000435BE781F0004158E72DE9FE4F81EA58
:10046000030404F0004421F0004100944FF0000B1D
:1004700023F0004350EA01045ED052EA03045BD04B
:10048000C3F30A54C1F30A552C44A4F2F334019483
:10049000A0FB0254C1F3130141F48011C3F3130311
:1004A00043F4801301FB024400FB034E840A970AC5
:1004B00044EA815447EA8357A4FB076802958D0AF2
:1004C00005FB07854FEA932C04FB0C542705029D7E
:1004D0004FEA065847EA1637B5EB08056EEB070CEE
:1004E000870E920E47EA811742EA8312A7FB0201A8
:1004F000B6EB0B0164EB00042B0D43EA0C335E18E2
:1005000044EB1C50DA465146E7FB0201C5F31304E5
:100510004FEA0B3343EA14534FEA0432019C43EA97
:100520000603A4F10C040294009CCDE900B400F091
:100530003BFA03B0BDE8F08F00200146F9E72DE952
:10054000F04D81EA030404F0004B21F0004514460D
:100550004FF0000A23F0004150EA050220D054EA8F
:1005600001021DD0C5F30A570246C5F31303C1F3B8
:100570001300C1F30A5640F4801543F48013A7EB2F
:100580000608101BD64608F2FD3873EB050002D3AF
:1005900008F1010801E092185B41B8F1000F03DA9D
:1005A00000200146BDE8F08D00204FF48011064682
:1005B00084460EE0171B73EB050705D3121B63EB94
:1005C000050306434CEA010C49084FEA3000921833
:1005D0005B4150EA0107EDD152EA030012D082EAF2
:1005E000040083EA0501084305D0101BAB4106D285
:1005F0000122002306E000224FF0004302E06FF0EA
:10060000010253101AEB06004CEB085110EB0A00E4
:1006100041EB0B01BDE8F04D00F0B7B9C10F80EA26
:10062000E0700844CA079623002100F080B99623A1
:100630000022114600F07BB90EB5C10F80EAE070D0
:100640000844CA07002140F233438DE80E000A46F1
:100650000B4600F0A9F903B000BD0EB540F23341DE
:1006600002910021CDE900110A460B4600F09CF9E9
:1006700003B000BD20F00040C10DC0F3160040F4EF
:1006800000007F2901DA00207047962903DCC1F1C0
:100690009601C840704796398840704770B5C1F3DD
:1006A0000A5201F000450024C1F3130140F2FF3368
:1006B00041F480119A4201DA002070BD40F23343C8
:1006C0009A42A2F2334203DC5242FFF729FD00E0D6
:1006D00090402C43F1D0404270BDC1F30A5210B596
:1006E000C1F3130140F2FF3341F480119A4201DA61
:1006F000002010BD40F233439A42A2F2334203DCA1
:100700005242FFF70DFD10BD904010BD00F00042B9
:1007100030F000400AD0C10D01F56071C0F3160041
:1007200042EA0151C20840071143704700200146C8
:100730007047000030B5041E71F1000404DB4FF077
:100740000044404264EB0101141E73F1000405DB18
:100750001C464FF00043524263EB0403994208BF2A
:10076000904230BD01F0004330B421F0004150EA26
:10077000010206D00A0DA2F56072C1F31301002A2E
:1007800002DC30BC00207047440F44EAC104C100C1
:10079000E01830BC00EBC25000F0C0B8002801DB0C
:1007A000C0F10040002901DBC1F1004188427047DF
:1007B00030B50B46014600202022012409E021FA31
:1007C00002F59D4205D303FA02F5491B04FA02F52E
:1007D0002844151EA2F10102F1DC30BD2DE9F05FC5
:1007E0000546002092469B468846064681464024A0
:1007F0001BE02846414647462246FFF791FC5346F8
:100800005A46C01A914110D311461846224600F0AC
:1008100016F82D1A67EB01084F46224601200021E9
:1008200000F00DF817EB00094E41201EA4F1010461
:10083000DFDC484631462A464346BDE8F09F202A81
:1008400004DB203A00FA02F1002070479140C2F127
:10085000200320FA03F3194390407047202A06DB57
:10086000CB17203A41FA02F043EAE07306E041FA7E
:1008700002F3D040C2F1200291400843194670476C
:100880000FB4002300B589B00CA900910B996FF04B
:100890000042CB601E4B06931E4B07930423CDE909
:1008A00001321D4A089202466B46002000F0EAF928
:1008B00009B05DF814FB70B586B006464FF0FF3006
:1008C0000091CDE90101002015460C460490324606
:1008D000694604A8FFF7D4FF02460498211825B101
:1008E00008B1084600E020462860049800280DD092
:1008F000002A02DD0098884208D0081B0094CDE948
:1009000001043246694604A8FFF7BAFF06B070BD7D
:10091000BD0E0008DB0E0008510B00080029A8BF1F
:100920007047401C490008BF20F00100704710B418
:10093000B0FA80FC00FA0CF050EA010404BF10BCCD
:10094000704749B1CCF1200421FA04F411FA0CF1FA
:1009500018BF012121430843A3EB0C01CB1D4FEA33
:1009600000614FEA102042BF002010BC704700EB2E
:10097000C35010440029A4BF10BC7047401C49005C
:1009800008BF20F0010010BC704710B5141E73F1B1
:10099000000408DA401C41F1000192185B411A433F
:1009A00001D120F0010010BD2DE9F04D92469B468B
:1009B00011B1B1FA81F202E0B0FA80F22032904631
:1009C000FFF73DFF04460F4640EA0A0041EA0B01EB
:1009D00053465A46084313D0114653EA010019D032
:1009E000C8F140025046FFF79BFB05460E465046B5
:1009F00059464246FFF723FF084305D0012004E093
:100A000020463946BDE8F08D0020054346EAE076F1
:100A10002C4337430A986305E40AA0EB0800002240
:100A2000FD0A44EA47540A3002D500200146E9E7AE
:100A3000010510196941DDE9084500196941BDE862
:100A4000F04DA2E72DE9FE4FC3F30A5701F0004530
:100A50000024C1F30A56C3F31303C1F3130143F493
:100A6000801312EB020AA64641F48011009543EB75
:100A7000030CA7F1010B16E0B0EB0A0061EB0C01CF
:100A8000071E71F1000707DA4FF00008D0EB0800ED
:100A900085F0004568EB0101171A73EB0107EBD3F2
:100AA000761E001849415E45F6DA50EA010209D087
:100AB000CDE900E5002213460296FFF775FF03B06B
:100AC000BDE8F08F20460099F9E7C1F30A52C1F35F
:100AD000130140F2FF3341F480119A4202DA002000
:100AE0000146704740F233439A42A2F2334202DC9D
:100AF0005242FFF715BBFFF7A2BE000030B5041E3F
:100B000071F1000404DB4FF00044404264EB01014A
:100B1000141E73F1000405DB1C464FF000435242E3
:100B200063EB04038B4208BF824230BD064C074D85
:100B300006E0E06840F0010394E8070098471034AD
:100B4000AC42F6D3FFF7D6FA6044000880440008B0
:100B5000C0B24FF4F05100F0E9B900002DE9FF4FA9
:100B6000087883B09946FF2805D0491C2D2804D069
:100B70000024002008E000200BE00124F9E700EB4E
:100B8000800003EB4000491C0B78FF2BF7D104B128
:100B9000404200230293147819461D462D2C01D0A3
:100BA0002B2C04D1521C2D2C13D000240294AA46C5
:100BB0001478FF2C0FD00A25A3FB057801FB0581D3
:100BC0004FF0000C03FB0C11521CE3194AEB01011E
:100BD000EEE70124EAE7814453EA010002D019F567
:100BE000C87F06DA03980021C0E9001107B0BDE80C
:100BF000F08F0025AE4E2F46DFF8B882184600F081
:100C0000A9F9CDE90001B9F1000002DAC9F1000447
:100C100000E004460023A74A1AEB030B42EB045AF8
:100C200012E0E00707D02A46334638464146FFF730
:100C300014FC074688462A46334610461946FFF7F5
:100C40000CFC05460E466410002CEAD1DDE90001DB
:100C5000B9F1000F5A46534606DAFFF770FC3A46E0
:100C60004346FFF76CFC05E0FFF7F7FB3A464346C7
:100C7000FFF7F3FB029A0AB181F00041039AC2E93F
:100C80000001B3E72DE9FF4F1F468DB0D7E90146BC
:100C90004FF0FF382E2045464FF000090B90B96900
:100CA0006D1C0E988847396A824688470028F6D11D
:100CB000BAF1FF3F0AD024F4D064002E11DDBAF15E
:100CC0002B0F08D0BAF12D0F0BD102E0404611B026
:100CD0008DE744F48064B9696D1C0E98884782469C
:100CE000761E6946600501D52D2000E02B208DF889
:100CF000000001F1010B0DF1200809E0B9696D1C3C
:100D00000E98884782460F9844F40074761E05605A
:100D1000002E02DDBAF1300FF0D00B998A453ED19A
:100D200044F0800406E00F99681CA9F1010944F41D
:100D300000740860B9696D1C761E0E98884782465B
:100D40003028F0D02BE00B998A4505D1200603D43A
:100D500044F08004761E18E0504602F021F808B3F3
:100D60000DF11301761E44F400748B4508D2AAF1EC
:100D700030000BF8010B200607D5A9F1010003E0B4
:100D8000200602D409F101008146A00502D50F9981
:100D9000681C0860B9696D1C0E9888478246002E51
:100DA000D1DC53E0002E51DDBAF1650F02D0BAF16B
:100DB000450F4BD1A00549D5B9696D1C24F4407489
:100DC000761E0E9888478246002E0CDD2B2804D014
:100DD000BAF12D0F07D144F48074B9696D1C0E98D7
:100DE00088478246761EE00501D52D2100E02B21A3
:100DF00008F8011BCDF82C8021E00DF12901761EA9
:100E000044F4007488450CD2AAF1300010F0FF00C1
:100E100088F8000002D10B99884509D908F101082A
:100E200006E0E00501D5244801E042F20F7081465A
:100E3000B9696D1C0E98884782460F980560002E90
:100E400004DD504601F0ACFF0028D6D1F9690E98B8
:100E50008847FF208BF8000088F8000000200690EB
:100E600007904B466A4608A906A8FFF777FEA0053B
:100E700002D46FF001002AE714F0240F0AD0E00733
:100E800014D1DDE906123868031D3B600068C0E933
:100E900000120BE0DDE90601FFF764FC0146E00704
:100EA00004D13868021D3A600068016028460EE7E8
:100EB000000014400000F03FF1D8FFFF426842B14B
:100EC000016811F8013B23B1521EC0E90012184617
:100ED00070470121C160881E704742685AB1C368DB
:100EE000016843B983688B4205D0491E521CC0E992
:100EF0000012002070474FF0FF30704770B521F0AE
:100F0000004303430CD0C1F30A550024D5EB04057C
:100F100064EB0403D617AD1AB34102DB002001468F
:100F200070BD201841EB025170BD00007F2801D92F
:100F3000002208E0064A02EB5002C007127800D1F6
:100F4000120902F00F020120904008407047000093
:100F5000204400080EB540F2334202920022CDE94F
:100F600000221346FFF720FD03B000BDFEE77047E7
:100F700072B6FEE710B590F821100022022905D0C4
:100F80000421816380F82020012010BD01680B68D6
:100F900023F00E030B6001680B6823F001030B6064
:100FA00090F84030C46B012101FA03F3636080F8CC
:100FB000211080F82020104610BD000010B590F8D8
:100FC00021100024022903D00421816301243DE083
:100FD00001680A6822F00E020A6001680A6822F0BD
:100FE00001020A601A4A0168914201D1012121E0FF
:100FF000174A1432914201D110211BE0144A2832C1
:10100000914201D1891515E0114A3C32914201D13A
:1010100089140FE00E4A5032914202D14FF48031D0
:1010200008E00B4A6432914202D14FF4801101E092
:101030004FF08071064A083A5160012180F8211072
:10104000002180F82010416B01B18847204610BD77
:10105000080002402DE9F84FDFF8B8910024A9F10B
:10106000040B23460F2709F1040AABF1040EC9E073
:101070000125A5402A40AA427DD1674ED1F804C07F
:10108000ACEB0608B44532D014DCBCF1030F3AD007
:1010900009DCBCF1000F2AD0BCF1010F1CD0BCF15F
:1010A000020F31D11DE0BCF1110F17D0BCF1120FAE
:1010B0002AD119E0B8F5881F19D006DCB8F5803FB1
:1010C00015D0B8F5801F1FD111E0B8F5001F0ED064
:1010D000B8F5041F18D10AE0CB6815E0CB681B1DDA
:1010E00012E0CB6808330FE0CB680C330CE08B6860
:1010F0002BB1012B4FF0080303D0456104E004231A
:1011000002E0056100E00023FF2A01D8064601E065
:1011100000F104064FEA840501D9A5F12005D6F8AF
:10112000008007FA05FC28EA0C0803FA05F548EAEE
:101130000508C6F800804D68ED0062D5374DAE69F0
:1011400046F00106AE61AD6924F0030605F0010525
:101150000095334D06EB050CDCF80850A607360F5A
:1011600007FA06F825EA0805DFF8B880404503D1FC
:101170004FF0000817E044E0DFF8AC80404502D1B2
:101180004FF001080FE0DFF8A480404502D14FF096
:10119000020808E0DFF89880404502D14FF00308CC
:1011A00001E04FF0040808FA06F848EA0508CCF810
:1011B00008804D68D9F80060ED024D4601D5164310
:1011C00000E096432E604D68DAF80060AD025546A7
:1011D00001D5164300E096432E604D68DBF80060B1
:1011E000AD035D4601D5164300E096432E604D6881
:1011F000DEF80060ED03754601D5164300E0964326
:101200002E60641C0D682A46E5407FF431AFBDE8CE
:10121000F88F000008040140000011100010024087
:101220000000014000080140000C01400010014096
:10123000001401400AB1016170470904FBE7000096
:1012400001488068704700000C0000200248816857
:1012500002781144816070470C000020074810B5E7
:10126000016841F010010160032000F075F80F20C3
:1012700000F006F800F024F8002010BD0020024025
:1012800070B50D4D04464FF47A712878B1FBF0F03B
:101290000A490968B1FBF0F000F0DCFA48B9102CFB
:1012A00007D200222146501E00F036F800206C6064
:1012B00070BD012070BD00000C000020180000204F
:1012C0000C4808B5816941F001018161816901F033
:1012D00001010091C16941F08051C161C06900F014
:1012E000805000900448416821F0E06141F00071B5
:1012F000416008BD0010024000000140002809DBE9
:1013000000F01F02012191404009800000F1E0201F
:10131000C0F8001170470000F0B40E4B1B680C467B
:10132000C3F30223C3F10705042D00D90425191DB9
:10133000072901D2002300E0DB1E012606FA05F191
:10134000491E214099409E40761E16403143F0BC14
:1013500001F0C6BB0CED00E0064900F0070208688A
:101360004FF6FF03184040EA0220034A104308608A
:10137000704700000CED00E00000FA052DE9F04791
:101380000F46050061D0434E306800F00700B842B8
:1013900009D2306820F0070038433060306800F030
:1013A0000700B84251D128683B4C810712D540074D
:1013B00003D5606840F4E06060602878000703D5DA
:1013C000606840F4605060606068A96820F0F000D8
:1013D000084360602878C00728D06868012810D0CA
:1013E0002168022810D0890700292EDA616821F0CF
:1013F000030101436160FFF723FF804641F2883912
:101400000DE021688903EFE78901EDE7FFF718FF99
:10141000A0EB0801494502D90320BDE8F0876068C8
:10142000696800F00C00B0EB810FEFD1306800F07C
:101430000700B8420BD9306820F00700384330600D
:10144000306800F00700B84201D00120E5E72878B5
:10145000400705D56068E96820F4E06008436060F3
:101460002878000706D56068296920F4605040EAB2
:10147000C100606000F038F86168084AC1F30311E8
:10148000515CC8400649086006480068FFF7F8FE4E
:101490000020C2E700200240001002404640000841
:1014A0001800002010000020044805490068496821
:1014B000044AC1F30221515CC84070471800002063
:1014C0000010024056400008044805490068496879
:1014D000044AC1F3C221515CC84070471800002083
:1014E00000100240564000080E4A51680E4801F0B4
:1014F0000C03042B11D0082B0FD10C48C1F38343EC
:10150000C903C05C0AD55168084AC1F34041921E24
:10151000515C054A5043B0FBF1F070470449484321
:10152000704700000010024000127A0036400008A8
:1015300000093D002DE9F84F040070D02078C04D1F
:10154000C00749D06868C0F38100012807D06868E7
:10155000C0F38100022809D16868C00306D5286855
:10156000800339D560680028E7D035E06068B0F5C1
:10157000803F0BD010B1B0F5A02F11D0286820F417
:1015800080302860286820F4802002E0286840F439
:1015900080302860606890B1FFF752FE06460AE08E
:1015A000286840F480202860F0E700BFFFF748FE7D
:1015B000801B642873D828688003F7D50CE0FFF7F8
:1015C0003FFE064605E000BFFFF73AFE801B642899
:1015D000F0D828688003F7D420789A4E80074FF01F
:1015E00001094FF0000839D5686810F00C0F07D0DA
:1015F0006868C0F38100022809D16868C00306D476
:101600002868800714D52069012808D110E02069D6
:10161000B0B1C6F80090FFF713FE074605E00AE1F7
:10162000FFF70EFEC01B0228C4D828688007F7D534
:101630002868616920F0F80040EAC10028600DE0E8
:10164000C6F80080FFF7FCFD074604E0FFF7F8FD51
:10165000C01B022823D828688007F7D42078000709
:101660002CD57948A169D9B1C0F80090FFF7E8FD01
:10167000074604E0FFF7E4FDC01B02280FD8686AA4
:101680008007F7D571484FF4FA510068B0FBF1F0CC
:10169000009000BF0098411E0091FAD20EE080E059
:1016A000C0F80080FFF7CCFD074604E0FFF7C8FD57
:1016B000C01B022875D8686A8007F7D420784007D5
:1016C00060D5E8690027C00008D4E86940F0805080
:1016D000E861E869012700F0805000905C480168EB
:1016E000C90513D40168834641F480710160FFF796
:1016F000A7FD824606E000BFFFF7A2FDA0EB0A00AF
:1017000064284ED8DBF80000C005F5D5E068012854
:101710000AD008B1052813D0286A20F001002862F9
:10172000286A20F0040002E0286A40F001002862E4
:10173000E06841F2883B98B1FFF782FD82460BE0FA
:10174000286A40F004002862EEE700BFFFF778FD4A
:10175000A0EB0A0159455AD8286A8007F6D50CE053
:10176000FFF76EFD824605E0FFF76AFDA0EB0A0178
:1017700059454CD8286A8007F6D41FB1E86920F093
:101780008050E861E06988B36968C1F3810102298A
:1017900044D00228C6F8608004D0FFF751FD04460B
:1017A00038E034E0FFF74CFD074604E0FFF748FD62
:1017B000C01B02282BD828688001F7D4206AB0F516
:1017C000803F05D16868A16820F400300843686054
:1017D000D4E908010843696821F47411084368607A
:1017E000C6F86090FFF72CFD044606E025E000BF38
:1017F000FFF726FD001B022809D828688001F7D5CD
:101800001BE000BFFFF71CFD001B022802D90320CC
:10181000BDE8F88F28688001F4D40EE00128F7D0E5
:101820006868226A00F48031914204D1616A00F450
:101830007010884201D00120EAE70020E8E70000AC
:101840000010024000004242800442421800002082
:101850000070004010B5401EB0F1807F01D3012020
:1018600010BD4FF0E02460610F21601701F038F9DE
:101870000020A06107202061002010BD7047704744
:1018800010B590F83C20012A22D0012280F83C209B
:10189000CA688C6822F4407222434C6822F4806249
:1018A00022430C6822F4006222430C6922F4805225
:1018B00022434C6922F400522243C969002322F4D6
:1018C00080420A4301684A6480F83C30002010BD21
:1018D000022010BD70B590F83C20012A26D00124CA
:1018E00080F83C40022280F83D2003685A689D68D9
:1018F00022F070060A6832435A600D4B02689A4221
:1019000008D0B2F1804F05D00A4B9A4202D00A4B60
:101910009A4204D1496825F080031943916080F808
:101920003D40002180F83C10084670BD022070BD8B
:10193000002C0140000400400008004010B50400E5
:1019400003D094F83D0010B107E0012010BD002045
:1019500084F83C00204600F01FF8022084F83D0087
:10196000211D206800F030FE012084F8460084F834
:101970003E0084F83F0084F8400084F8410084F879
:10198000420084F8430084F8440084F8450084F859
:101990003D00002010BD000008B5114A0168114843
:1019A000914208D1816941F400618161806900F44C
:1019B0000060009008BDB1F1804FFBD1C16941F0DA
:1019C0000101C161C069002200F0010000901146D0
:1019D0001C20FFF7A1FCBDE808401C20FFF78EBCCF
:1019E000002C01400010024090F83D10012901D068
:1019F00001207047022180F83D100168CA6842F05A
:101A00000102CA6000680B49884208D0B0F1804FDB
:101A100005D00949884202D00849884204D181682A
:101A200001F00701062903D0016841F001010160BE
:101A300000207047002C01400004004000080040D6
:101A400070B5044690F83C000025012817D0012607
:101A500084F83C60022084F83D002068826822F00F
:101A6000770222F47F4282600868502838D00DDC6B
:101A700020284FD005DC90B3102811D14AE0022075
:101A800070BD302846D040280AD13BE060282FD0D6
:101A900070280DD0B0F5805F03D0B0F5005F12D094
:101AA000012584F83D60002084F83C00284670BD84
:101AB000CB68D1E90121206800F0C9FD2068816868
:101AC00041F0770109E0CB68D1E90121206800F0FD
:101AD000BEFD2068816841F480418160E1E719E042
:101AE000CA684968206800F067FE5021206806E057
:101AF000CA684968206800F070FE6021206800F024
:101B0000B0FDCEE7CA684968206800F055FE402164
:101B10002068F4E7226801461046F0E7704770B588
:101B20000446006801694FF00005C943890715D4D0
:101B3000C168C943890711D4E91E016101202077DA
:101B4000206880698007204602D0FFF7E7FF04E0A5
:101B500000F0BEF8204600F050F9257720680169B2
:101B6000C943490717D4C168C943490713D46FF063
:101B700004010161022020772068806910F4407F11
:101B8000204602D0FFF7CAFF04E000F0A1F820468B
:101B900000F033F9257720680169C943090716D495
:101BA000C168C943090712D46FF00801016104201C
:101BB00020772068C0698007204602D0FFF7AEFF7B
:101BC00004E000F085F8204600F017F9257720683A
:101BD0000169C943C90617D4C168C943C90613D4EA
:101BE0006FF010010161082020772068C06910F4AF
:101BF000407F204602D0FFF791FF04E000F068F834
:101C0000204600F0FAF8257720680169C943C90722
:101C100008D1C168C943C90704D1891E01612046A2
:101C200000F03AF920680169C943090609D4C1687E
:101C3000C943090605D46FF0800101612046FFF712
:101C40001DFE20680169C943490609D4C168C9431A
:101C5000490605D46FF040010161204600F028F9E3
:101C600020680169C94389060BD4C168C943890644
:101C700007D46FF0200101612046BDE87040FFF7F6
:101C8000FEBD70BD00B585B00021009101910291AB
:101C9000039100680B49884212D10B48816941F0D9
:101CA000040181618069694600F0040004904FF4EA
:101CB000E06000900220019003900448FFF7CAF909
:101CC00005B000BD002C014000100240000801409A
:101CD000704770B5044690F83C0000260D46012878
:101CE0000FD0012084F83C006AB1042A1DD0082AD4
:101CF0002FD00C2A3FD00126002084F83C0030462B
:101D000070BD022070BD206800F0B4FC20688169BD
:101D100041F0080181612068816921F0040181613D
:101D2000206881692A69114311E0206800F0CAFC2B
:101D30002068816941F4006181612068816921F432
:101D400080618161206881692A6941EA022181619B
:101D5000D2E7206800F0E2FC2068C16941F0080188
:101D6000C1612068C16921F00401C1612068C169B5
:101D70002A69114311E0206800F0FCFC2068C16969
:101D800041F40061C1612068C16921F48061C161D1
:101D90002068C1692A6941EA0221C161ACE710B536
:101DA000040003D094F83D0010B107E0012010BDFD
:101DB000002084F83C00204600F01EF8022084F841
:101DC0003D00211D206800F0FFFB012084F8460043
:101DD00084F83E0084F83F0084F8400084F8410015
:101DE00084F8420084F8430084F8440084F84500F5
:101DF00084F83D00002010BD7047704710B50446C0
:101E0000022249B104290ED0082913D094F84100C8
:101E1000012816D0012010BD94F83E000128F9D108
:101E200084F83E200FE094F83F000128F2D184F8B6
:101E30003F2008E094F840000128EBD184F84020CE
:101E400001E084F841200122206800F0F3FB0F49F3
:101E50002068884203D1426C42F400424264206808
:101E6000884208D0B0F1804F05D00949884202D09D
:101E70000849884204D1816801F00701062903D08E
:101E8000016841F001010160002010BD002C0140FB
:101E900000040040000800400068B0F1804F03D10A
:101EA0000248406801F028BF704700000000002091
:101EB0007047704770470000F8B50168044608682D
:101EC000CA684B6910F00F0F4FF0000559D003F0AE
:101ED000010602F49077374365D0C10705D0D105DC
:101EE00003D5616C41F001016164410705D5D90753
:101EF00003D0616C41F002016164810705D5D90707
:101F000003D0616C41F004016164010707D502F060
:101F10002001314303D0616C41F008016164616CC0
:101F200000293AD0800604D5900602D5204600F05C
:101F300095FC20684069616CC0F38010090700D4EB
:101F400060B3204600F063FC20684069400621D55C
:101F50002068143050E8001F21F0400140E80012D2
:101F6000002AF5D1E06BA8B16D494163E06BFFF742
:101F700025F8002811D0E06B416B01B0BDE8F040BE
:101F8000084783060FD593060DD52046BDE8F840D7
:101F900000F064BC2046FFF78DFFF8BD2046FFF738
:101FA00089FF6564F8BD266B2023012E7CD1C6060F
:101FB0007AD5D60678D508684868009048694FF009
:101FC0000206400640D5E16B086840680004000C3A
:101FD000E8D0A28D8242E5D9E085886920282DD0FD
:101FE00020680C3050E8001F21F4807140E8001296
:101FF000002AF5D12068143050E8001F21F00101BB
:1020000040E80012002AF5D12068143050E8001F83
:1020100021F0400140E80012002AF5D184F8423056
:10202000256320680C3050E8001F21F0100140E8C3
:102030000012002AF5D1E06BFEF79CFF6663A08DCD
:10204000E18D401A81B22AE0A08DE18D401A81B263
:10205000E08D0028A6D00029A4D022680C3252E8D6
:10206000000F20F4907042E80007002FF5D120689F
:10207000143050E8002F22F0010240E80027002F22
:10208000F5D184F84230256320680C3050E8002FE9
:1020900022F0100240E80023002BF5D166632046B1
:1020A000FFF707FFF8BDFFE705062BD5150629D575
:1020B00094F841002128F5D1A068B0F5805F01D1E6
:1020C0002069B0B1206A411C216221680078486013
:1020D000E08C401E0004000CE084E3D12068C1685D
:1020E00021F08001C1602068C16841F04001C160F9
:1020F000D8E7206A0088C0F308004860206A801C86
:102100002062E5E74006CDD55006CBD5CA6820460B
:1021100022F04002CA6084F8413000F002F9C1E7C1
:10212000FF27000870B5040004D094F84100002592
:1021300010B106E0012070BD84F84050204600F048
:1021400023F8242084F841002068C16821F400515C
:10215000C160204600F0E4FB2068016921F4904151
:1021600001612068416921F02A0141612068C1684C
:1021700041F40051C1606564202084F8410084F876
:1021800042006563002070BD30B585B00024009426
:102190000194029403940068184988422BD118488E
:1021A000C16941F40031C161C16901F40031049198
:1021B000816941F0040181618069124D00F00400E1
:1021C00004900420009002200190032003906946AF
:1021D0002846FEF73FFF0820CDE90004694628465F
:1021E0000294FEF737FF002211462620FFF794F8ED
:1021F0002620FFF783F805B030BD00000044004002
:10220000001002400008014090F84230202B01D01D
:102210000220704721B11AB10023036300F0DCBB38
:102220000120704700681449884224D11348144A99
:102230004188491C89B241800388022B15D0012BAB
:10224000114404D011F8011C0D290CD00DE011F837
:10225000013C00210A2B01D0018002E0022303800F
:10226000D177418001E001210180408811180122CD
:102270000448FFF7C9BF7047004400400000002039
:1022800050000020000100202DE9F843044690F89A
:1022900041001F4616460D46202802D00220BDE808
:1022A000F8837DB176B100206064212084F841007C
:1022B000FEF7C6FFA6848046E684A068B0F5805F7E
:1022C00002D003E00120EAE7206910B12E46002584
:1022D0000EE000260CE08021204600F098FBA0B91B
:1022E000AEB116F8010B21684860E08C401EE08416
:1022F000E08C43464FF0000200970028EBD14FF0EE
:102300004001204600F083FB30B10320C7E735F8D9
:10231000020BC0F30800E6E7202084F8410000200B
:10232000BDE77047FEE700002DE9F04385B00024CB
:1023300021480094019402940394816941F02001A2
:102340008161816901F020010491816941F00401FA
:102350008161816901F004010491816941F01001FA
:1023600081618069DFF8548000F010000490002241
:1023700060214046FEF75EFFDFF844904FF4E057DF
:10238000002239464846FEF755FF60200125022607
:10239000CDE90005CDE9024669464046FEF75AFE02
:1023A00000970396CDE9015469464846FEF752FE70
:1023B00005B0BDE8F08300000010024000080140B5
:1023C0000010014010B596B000240F9410941194A1
:1023D000129413941C2168461494FDF7B8FE202132
:1023E00007A8FDF7B4FE34483249C0E900142021A3
:1023F000816040F28331C0E903148021C0E90541C6
:10240000FFF79CFA08B1FEF7B3FD4FF480500F9030
:102410000FA92948FFF714FB08B1FEF7A9FD2648CC
:10242000FFF7BDFC08B1FEF7A3FD139413A92248E2
:102430001494FFF74FFA08B1FEF79AFD6020009060
:102440004FF41670CDE9010403940494059400221E
:10245000694619480694FFF73CFC08B1FEF788FD71
:102460004FF4C8700190042269461348FFF731FC0D
:1024700008B1FEF77DFDC8200190082269460E488C
:10248000FFF727FC08B1FEF773FD07940894099441
:102490004FF400500A94CDE90B4007A906480E946A
:1024A000FFF7EEF908B1FEF763FD0348FFF7EAFB1B
:1024B00016B010BD002C01407000002010B586B091
:1024C00000241648009401940294039404944FF05D
:1024D0008041059401602321C0E9011442F20F718B
:1024E000C0E903148461FFF729FA08B1FEF740FD43
:1024F0004FF48050009069460848FFF7A1FA08B1F0
:10250000FEF736FD049404A904480594FFF7E2F9A8
:10251000002801D0FEF72CFD06B010BDB800002049
:102520000C4810B50A4901604FF4E13141600021C7
:1025300081600C22C160C0E904128161C161FFF7B2
:10254000F1FD002803D0BDE81040FEF711BD10BD1D
:102550000044004000010020FEE7FEE7704770479E
:10256000FEF774BE30B58FB028216846FDF7EFFD49
:1025700014210AA8FDF7EBFD022501200490009527
:102580001020059000244FF4E010CDE90840079595
:102590006846FEF7CFFF08B172B6FEE70F200A903B
:1025A000CDE90B540D9401210AA80E94FEF7E6FE26
:1025B000002801D072B6FEE70FB030BD0148FFF72A
:1025C000AEBA0000B8000020F0B50268164B174CF8
:1025D000174D4FF08047984205D0B84203D0A04233
:1025E00001D0A84203D122F070064A6832439842D3
:1025F00005D0B84203D0A04201D0A84203D122F4B2
:102600004074CA6822434C6922F08002224302606F
:102610008A68C2620A688262984201D109690163CC
:1026200001214161F0BD0000002C01400004004088
:102630000008004010B501F01F030121046A994011
:102640008C430462016A9A401143016210BD10B5C7
:10265000846842EA032224F47F440A4322438260CE
:1026600010BD826822F070020A4342F007018160C7
:102670007047000030B5036A026A22F0010202626C
:102680004268846924F073050C682C4323F002052A
:102690008B682B430A4DA8420BD123F00805CB6869
:1026A00022F440722B434D6923F0040315438A69D9
:1026B0002A434260846149684163036230BD00007F
:1026C000002C014030B5026A036A23F01003036254
:1026D000436884690D6824F4E64444EA05248D685F
:1026E00022F0200242EA05120B4DA8420ED1CD681D
:1026F00022F0800242EA05124D6923F4406343EA66
:1027000085038D6922F0400243EA850343608461BA
:1027100049688163026230BD002C014030B5036A14
:10272000026A22F4807202624268C46923F4007370
:1027300024F073050C682C438D6843EA05230C4D87
:10274000A8420ED1CD6823F4006343EA05234D6906
:1027500022F4405242EA05128D6923F4806342EA72
:1027600005124260C4614968C163036230BD000064
:10277000002C014030B5046A026A22F480520262E1
:102780004268C3690D6823F4E64343EA05238D6874
:1027900024F4005444EA0534064DA84204D14D699E
:1027A00022F4804242EA85124260C36149680164B2
:1027B000046230BD002C014010B5036A046A24F0A5
:1027C00001040462846924F0F00444EA021423F052
:1027D0000A020A438461026210BD10B5036A046AEA
:1027E00024F010040462846923F0A00324F47044EC
:1027F00044EA023243EA01118261016210BD10B560
:10280000406A0021C185C184FFF754FB10BD0168F7
:102810000C3151E8002F22F4907241E80023002B84
:10282000F5D10168143151E8002F22F0010241E88E
:102830000023002BF5D1016B012909D101680C316E
:1028400051E8002F22F0100241E80023002BF5D1BF
:10285000202180F8421000210163704708B590F8EC
:102860004210222901D0022008BD82684FF4805313
:102870009A4201D1016921B1816A9A421BD04AB1C1
:102880000AE00268816A5268C2F308020A80816A1B
:10289000891C08E0026972B10268526802F07F0286
:1028A0000A70816A491C8162C18D491E0904090CA4
:1028B000C18503D01BE002685268F1E70168CA686D
:1028C00022F02002CA600168CA6822F48072CA60DD
:1028D00001684A6922F001024A61202180F8421011
:1028E00000214163026B012A03D0FFF79BFC00200B
:1028F00008BD016301680C3151E8002F22F010027D
:1029000041E80023002BF5D101680A68D20602D500
:102910000A6849680091818DFFF7CBFAE7E700006C
:1029200070B5044600680169E26821F44051114322
:1029300001612169A0680843616908432168CA6888
:1029400041F20C639A430243CA6020684169A2695C
:1029500021F44071114341611E492068884202D12F
:10296000FEF7B2FD01E0FEF79FFD00EBC00101EBB9
:102970000012606864218000B2FBF0F3B3FBF1F356
:102980006FF018067343B2FBF0F5B2FBF0F605EBFF
:102990008305322303EB0515B5FBF1F5B6FBF1F624
:1029A00005F0F00505EB0615B2FBF0F6B2FBF0F012
:1029B000B0FBF1F06FF01802504306EB800003EB20
:1029C0000010B0FBF1F0216800F00F00284488608F
:1029D00070BD00000038014081628285C2850021FF
:1029E0004164222180F84210016921B10168CA685E
:1029F00042F48072CA6001684A6942F001024A6189
:102A00000068C16841F02001C160002070472DE9D5
:102A1000F041984617460E460446069D27E0681C7E
:102A200025D02DB1FEF70CFCA0EB0800A8421ED962
:102A300020680C3050E8001F21F4D07140E80012EB
:102A4000002AF5D12068143050E8001F21F0010160
:102A500040E80012002AF5D1202084F8410084F8D3
:102A60004200002084F840000320BDE8F081206887
:102A7000006836EA000004D00020B842CFD0002021
:102A8000F3E70120F9E700000148FFF715BA00005D
:102A900000010020FEE700000FB4054B10B503A9AC
:102AA000044A029800F0A4F910BC5DF814FB000081
:102AB000F53B000808000020490050EAC12018BF7B
:102AC00004204A0D18BF40F0010040F2FF72B2EB43
:102AD000515F08BF40F00200012808BF0520704781
:102AE0000907090E002804DB00F1E02080F800143B
:102AF000704700F00F0000F1E02080F8141D7047CF
:102B00002DE9F0414F1E00EBC7010446D1E9000159
:102B100015461E4637F006020DD02A463346FDF70D
:102B20009CFC7F1E04EBC703D3E90023FDF7EEFBFB
:102B300037F00602F1D1022F25D0042F13D0062F33
:102B400018BFBDE8F0812A463346FDF786FCD4E97C
:102B50000A23FDF7DBFB2A463346FDF77EFCD4E96A
:102B60000823FDF7D3FB2A463346FDF776FCD4E96C
:102B70000623FDF7CBFB2A463346FDF76EFCD4E96E
:102B80000423FDF7C3FB2A463346FDF766FCD4E970
:102B90000223FDF7BBFB2A463346FDF75EFCD4E972
:102BA0000023BDE8F041FDF7B1BB0122FEF7A6B955
:102BB000FDF7ACBB0022134610461146FDF7BFBC23
:102BC000024A00201107FEF799B9000001FDFFFF3E
:102BD00001480068704700004C00002002E008C86F
:102BE000121F08C1002AFAD170477047002001E087
:102BF00001C1121F002AFBD1704700000149086083
:102C0000704700004C00002010B504460846FDF750
:102C100005FD2146BDE81040FDF7FCBA2DE9FF5F38
:102C200082B00021DDE90430020DDDF840B003433D
:102C300018D044F61050A2F2FF32424315141198F6
:102C400001281FD0A5EB0B00401C5FEA000A4FF0E3
:102C500000064E4FDFF83891B046504615D5CAF100
:102C6000000413E0119801244AA3012801D16FEA5E
:102C70000B010298119AC0E90031C0E9024206B086
:102C8000BDE8F09FCBF10000DFE704460021404A99
:102C9000491842EB0450CDE9001012E0E00707D0DC
:102CA00032463B4640464946FDF7D7FB80468946BB
:102CB00032463B4610461946FDF7CFFB06460F4607
:102CC0006410002CEAD1DDE90401DDE90023BAF14A
:102CD000000F06DAFDF7C1FB42464B46FDF7BDFB90
:102CE00005E0FDF72CFC42464B46FDF728FC044668
:102CF0000E460022284BFDF71DFD03D84FF0FF3094
:102D0000014607E00022254B20463146FDF7FEFA3A
:102D1000FDF7DBFE102409E0002C0ADB0A22002369
:102D2000FDF75CFD039B30321A55641E50EA010228
:102D3000F2D1641C039AC4F111031444119A012ABC
:102D400003D0012208430DD10AE0084304D000203B
:102D50004FF0110B119072E7A3EB0B056D1E0DE008
:102D60005B4504DD4FF0000205F1010504E003DAE4
:102D70004FF00002A5F10105002AECD0029811994C
:102D8000C0E90231C0E9004579E7000000001440C5
:102D90000000F03F300000000000F0430000E03F82
:102DA00030380A2801D20120704700207047000007
:102DB00070B5FDF7ABFC0C4C0C4D22462B4600F0D9
:102DC000CFFEFDF7CFFC10F1FF4F02D2FDF79EFCC6
:102DD00005E0FDF79BFC22462B46FDF797FABDE880
:102DE0007040FDF7BFBC0000EA2E4454FB2119409F
:102DF0002DE9FF4F95B09A46884606460025EEE13C
:102E0000252877D100242746F94A0121039400E0C0
:102E1000044316F8013F203B01FA03F01042F7D1BA
:102E200030782A2811D06FF02F033078A0F13002CB
:102E3000092A16D8039A44F0020402EB820203EB3B
:102E400042021044761C0390EFE758F8042B0392DB
:102E5000002A03DA504244F40054039044F0020480
:102E6000761C30782E2816D116F8010F44F0040491
:102E70002A280DD06FF02F023078A0F13003092BF3
:102E800009D807EB870302EB4303C718761CF3E767
:102E900058F8047B761C30786C280FD006DC4C2860
:102EA00017D068280DD06A2814D104E0742810D0F7
:102EB0007A280FD10DE044F400140AE044F48014A1
:102EC00001E044F440147278824202D104F5801487
:102ED000761C761C307866280BD013DC582877D007
:102EE00009DC002875D04528F6D04628F4D04728BC
:102EF0001AD193E118E0632835D0642879D0652889
:102F000012D18BE1702873D008DC6728F1D06928D2
:102F10006FD06E280DD06F2806D1ACE073282CD06E
:102F2000752874D0782853D05246179990476D1C55
:102F300054E1C4F30250022809D003280DD0D8F878
:102F4000001004280DD00D6008F1040846E1D8F8FF
:102F50000010EA17C1E90052F6E7D8F800100D801A
:102F6000F2E70D70F0E718F8041B8DF80010002050
:102F70008DF80100EB46012003E058F804BB4FF048
:102F8000FF3061074FF0000102D40DE009F10101AB
:102F90008946B9420FDA8145F8DB1BF80910002990
:102FA000F4D108E009F1010189468142FADB1BF8FE
:102FB00009100029F6D103985346A0EB09072146D2
:102FC0003846179A00F080FA284400EB090507E01C
:102FD00044E008E10DE01BF8010B524617999047B9
:102FE000B9F10109F7D2534621463846179AF2E063
:102FF00039E00A21C4F302524FF0000B0091022A7B
:1030000006D058F8040BC117032A09D00AE023E0C0
:1030100008F1070020F00702F2E80201904605E0FF
:1030200000B2C117042A01D140B2C117002906DA43
:103030000A460021404261EB02012D2202E02205F6
:1030400004D52B228DF80420012203E0E20701D0F1
:103050002022F7E7914657E00A2100E010214FF0C7
:10306000000B00910BE010214FF0000B44F0040422
:103070000827009103E008204FF0000B0090C4F3F4
:103080000252022A05D058F8040B0021032A08D066
:1030900008E008F1070020F00702F2E8020190467C
:1030A00003E080B2042A00D1C0B24FF00009220729
:1030B0002AD53278702A07D0DDF800C08CF0100CC9
:1030C0005CEA0B0C05D00EE040228DF804200122B2
:1030D00008E050EA010306D030238DF804308DF863
:1030E000052002229146009B83F0080353EA0B035C
:1030F0000AD150EA010201D1620705D530228DF8CC
:1031000004204FF001097F1E3278582A04D039A2DA
:103110000C920CAA02920BE03BA2F9E75B46009AE4
:10312000FDF75CFB0C9B9B5C029A521E0292137093
:1031300050EA0102F2D1029804A9081A00F1200B0A
:10314000600702D524F4803400E001275F4502DDEA
:10315000A7EB0B0000E0002000EB0B0100900398B0
:103160004944401A0390E00306D453462146179A77
:10317000039800F0A9F90544002706E001A852468B
:10318000C05D179990476D1C7F1C4F45F6DBE0032F
:103190000CD553462146179A039800F095F905443B
:1031A00004E030205246179990476D1C0099481E44
:1031B00000900029F5DC08E0029802995246007858
:1031C000491C0291179990476D1CBBF10001ABF1AE
:1031D000010BF1DC5BE100F065F90544761C307809
:1031E00000287FF40DAE19B02846BDE8F08F00002E
:1031F00009280100303132333435363738396162CD
:103200006364656600000000303132333435363790
:10321000383941424344454600000000600700D46D
:10322000062708F1070020F00700F0E80223804697
:1032300003F0004C5FEA0C0001D097A009E02005E4
:1032400001D596A005E0E00701D095A001E0AFF21E
:103250004C001390307823F0004365280CD006DC36
:10326000452809D046281DD047287FD13BE0662855
:1032700018D067287AD136E00021112F01DB112008
:1032800000E0781CCDE9000104A90CA8FFF7C6FCFA
:10329000DDE90D010C9A4FF0000B07F101091092C6
:1032A00000914EE04FF000400097CDE9011004A9D5
:1032B0000CA8FFF7B3FCDDE90D020C9B0F994FF052
:1032C000000B91461093009211B9791C00EB010993
:1032D000B7EB090003D4C0F1FF3B07F10109A9EBEB
:1032E0000700019042E0012F00DA01270021112F91
:1032F00001DD112000E03846CDE9000104A90CA849
:10330000FFF78CFCDDE90D010C9A00914FF0000BEA
:10331000B946109221070FD4009A4A4503DA914624
:1033200001E0A9F10109B9F1010F05DD109AA9F138
:103330000101515C3029F4D0B84202DA10F1040FD7
:1033400003DA0121CDE9011010E0002803DC8344F9
:10335000A9EB000102E0411C494500DD8946A0EBD4
:103360000B00401C01904FF000400290200705D454
:103370000198484502DB4FF0FF30019000208DF8A6
:103380004B0002980DF14B07B0F1004F25D0022001
:103390000C902B200D90029800280CDA40420290ED
:1033A0002D200D9007E00A210298FDF701FA303137
:1033B000029007F8011D0C99481E0C900029F2DCC0
:1033C00002980028EFD1791E0D980870307800F02F
:1033D000200040F0450007F8020D11A8C01BC01DD9
:1033E00002901398007800B1012000EB09010198C8
:1033F00001EBE071029801440398401A401E0390CB
:10340000E00306D453462146179A039800F05CF86F
:1034100005441398007818B15246179990476D1CCF
:10342000E00323D553462146179A039800F04CF841
:1034300005441BE0BBF1000F07DB0098584504DD95
:103440001098179910F80B0001E017993020524698
:10345000904701980BF1010B401E05F10105019009
:1034600004D12E205246179990476D1CB9F10001E6
:10347000A9F10109DEDC05E017F8010B52461799A6
:1034800090476D1C0299481E02900029F4DC5346B7
:103490002146179A03989EE62D0000002B0000009D
:1034A000200000002DE9F041044600251E46174685
:1034B000880404D405E039462020B0476D1C641E02
:1034C000F9D52846BDE8F0812DE9F04104460025F4
:1034D0001E469046C80301D5302700E02027880407
:1034E00004D505E041463846B0476D1C641EF9D549
:1034F0002846BDE8F08100002DE9F05F05463E4F0B
:10350000DFF8F8A0DFF8F8903E4EDFF8FCB0FDF7EA
:10351000FDF83E4A3E4BFCF7A0FF88460446BD42FC
:1035200017DA00221346FDF705F9204641464FF011
:1035300000024B4602D8FCF7E9FE01E0FCF787FFEA
:10354000FDF7ACF856F82000FDF776F85A465346DA
:103550004CE03048854214DA002220461346FDF73D
:10356000E9F8204641464FF000024B4602D8FCF7EE
:10357000CDFE01E0FCF76BFFFDF790F8C0F5C770DA
:10358000E0E72548254F85424FF0000220461346CC
:1035900015DAFDF7CFF8204641464FF000024B46C2
:1035A00002D8FCF7B3FE01E0FCF751FFFDF776F817
:1035B00006EB8000A0F58050D0F8C80912E0FDF7B6
:1035C000B9F8204641464FF000024B4602D8FCF7BE
:1035D0009DFE01E0FCF73BFFFDF760F8C0F547708A
:1035E00056F82000FDF728F85A463B46FCF735FF11
:1035F000BDE8F05FFDF7B6B8DB0FC93FE2361A3F12
:103600000000E03F604000082D431CEB9CA223B962
:10361000FCAB5F40DB0F4940E4CB9640E2361ABF7B
:103620000249A1EB6001FCF7F5BD0000865A375F47
:103630002DE9F04781464FF0E0208569304C314F4D
:10364000314EA068DFF8C480854201D2401B03E000
:103650006FF07F41491B0844FCF7E9FF3946FCF74E
:103660000BFEFDF753F832464346FCF7F6FEFDF736
:1036700079F8A560264D064610F0FF4F02D0B6F14E
:103680007C5F00DD234E20693146FCF7C3FD074611
:1036900048462968FCF7B8FD20F000403946FDF7A0
:1036A0007DF81DD2296848460F46FCF7ADFD10F1A4
:1036B000FF4F02D34FF0FF3005E0B0F5000F01DB04
:1036C000012000E00020FCF7A9FF2169FCF7A2FD22
:1036D0003146FCF79FFD3946FCF744FD286002E0C7
:1036E0004846C5F80090E6686169FFF78DFA024622
:1036F0000021304600F01EFB3046BDE8F087000098
:1037000034000020000010428DEDB5A0F7C6B03E99
:103710001C0000206F12833A2DE9F84F04460D4635
:1037200021F0004000917349814211DC72498842C6
:1037300001DC06D12CB120462946BDE8F84FFFF741
:1037400034BA6E48002DCCBF6D496E49BDE8F88F84
:103750006D49814211DD6D498142D8BF4FF0FF367E
:103760006DDD20462946FFF7A7F9042808BFFFF7BB
:1037700027FA20462946BDE8F88F6549654F25F0B0
:103780000045814233DD6449814219DD002632461D
:103790004FF0804320462946FCF7B8FD80468A4614
:1037A000012220462946FDF7A9FB00223B46FCF7F3
:1037B0004EFE42465346FCF7C2FE04460D463EE02E
:1037C00001260022BA463B4620462946FCF79EFDCC
:1037D00080460F460022534620462946FCF737FE16
:1037E00042463B46FCF7ABFE04460D4627E04B49FC
:1037F00081421BDDDFF828A1022600225346204625
:103800002946FCF72AFE00223B46FCF77FFD804656
:103810000F460022534620462946FCF718FE424632
:103820003B46FCF78CFE04460D4608E00326224684
:103830002B4600203B49FCF782FE04460D462246FB
:103840002B4610461946FCF708FE8B468246024678
:103850000B46FCF702FE07460246334888460B46F5
:1038600006217844FFF74CF952465B46FCF7F5FD1C
:1038700082462E488B463A46434605217844FFF758
:103880003FF93A464346FCF7E8FD02460B46002E58
:10389000504659460CDAFCF739FD22462B46FCF718
:1038A000DCFD01B022462B46BDE8F04FFCF7D2BD4F
:1038B000FCF72CFD22462B46FCF7CFFD1C4A7A4430
:1038C00002EBC603D3E90023FCF7C1FD22462B46D9
:1038D000FCF7BDFD174A7A4402EBC603D3E9002387
:1038E000FCF7B8FD009A002AB8BF81F00041BDE89E
:1038F000F88F0000000010440000F07F182D4454A1
:10390000FB21F93FFB21F9BF0000DC3F0000203E16
:103910000000F33F0000F03F0000E63F008003405E
:103920000000F83F0000F0BF820B0000400B0000D9
:10393000DE0A0000A60A00002DE9F04D9446CCF105
:10394000000423F000464CEA0404594F46EAD474BC
:103950009A46884621F00042BC4206D8454240EAD9
:10396000050442EAD474BC4204D9BDE8F04D624675
:10397000FFF71EB9AAF14055A5F17F6555EA0C0481
:103980000BD0022404EAAA744A4DDFF82CE144EA81
:10399000D87452EA000B04D00CE0BDE8F04DFFF7FC
:1039A000BBBE002C14BF012CBDE8F08D022C30D022
:1039B000032C32D056EA0C0B0AD0BE4220D1BA42B8
:1039C00009D126F0804622F080423346114617E0A6
:1039D00000291ADB25E0DFF8E4B0FB44002C04BF2B
:1039E000DBE90001BDE8F08D012C02BFDBE900013D
:1039F00081F00041BDE8F08D022C0AD0032C0CD0E0
:103A0000BA4212D1B8F1000F0BDA2A482C49BDE8AE
:103A1000F08D28462B49BDE8F08D28467146BDE85B
:103A2000F08D24482849BDE8F08D921B12153C2AE0
:103A3000C4BF204F244E10DCBAF1000FBEBF12F1FC
:103A40003C0F00273E4608DB6246FCF778FD21F07C
:103A50000041FFF761FE07460E4694B1012C08BFF6
:103A600086F000460DD0194A194B022C38463146D3
:103A700015D0FCF7ECFC2A46BDE8F04D114BFCF7E5
:103A8000E6BC0022134638463146FDF737F804BF3E
:103A90000220FFF7B3F838463146BDE8F08DFCF759
:103AA000D6FC2A46BDE8F04D064BFCF7D3BC00001F
:103AB0000000F07F182D4454FB2109C03A0A000091
:103AC000FB21F9BFFB210940FB21F93F075C1433BF
:103AD00026A6A13C30B583B00446FFF779F8054629
:103AE0000020CDE90000024621466846FCF7E3FECF
:103AF0002846FFF783F8DDE9000103B030BD000080
:103B000010B50E4C2088022808D10D4801785429A0
:103B100005D00CA0FEF7C0FF0020208010BD401C87
:103B2000FFF7D8FFFCF71EFE6060FCF7EFFD0246D2
:103B30000B4608A0FEF7B0FFEEE7000000000020F3
:103B400050000020696E707574206572726F720D7E
:103B50000A00000052783D252E34660D0A00000050
:103B600070B514461D460E46002814BF01210021E1
:103B7000314321F00041C1F17F6101F1E041C90F02
:103B800016D1002C14BF01210021294321F000414E
:103B9000C1F17F6101F1E041C90F09D11449B1EBD5
:103BA000460F08BF00281CD0690008BF002C18D0A1
:103BB0003146FCF747FF024640F2FF7030EA1150F1
:103BC0000DD0F017B0EBE17F09D0084665F31E0079
:103BD00084460B4620466146FCF73CFC02461046F4
:103BE00070BD0120FFF70AF8BDE87040FEF7E2BFA4
:103BF0000000E0FF13B54FF6FF730122694602484B
:103C0000FEF742FB00981CBD00010020FDF726FBDB
:103C1000FEF7A8FCFEF788FBFEF782FCFEF7D2FB5E
:103C2000FEF74CFC214920480860224920480860E2
:103C300022492148086022490320087021490720B1
:103C4000086000212048FEF7D9F804211E48FEF73D
:103C5000D5F808211C48FEF7D1F81C48FDF7C4FE32
:103C60001B4C012291022046FDF7E4FA0122D10209
:103C70002046FDF7DFFA012211032046FDF7DAFAAC
:103C8000012240211348FDF7D5FA13A0FEF704FFE7
:103C9000012215491548FEF7B7FA1649144848603D
:103CA000FFF72EFFFCE700000000C04138000020B5
:103CB00000004040400000200000A04144000020DF
:103CC000300000204800002070000020B8000020D4
:103CD00000100140000801404D6F746F7220526562
:103CE0006164792E0D0A00005000002000010020C0
:103CF000000020410000002070B50A4900250A4C50
:103D00000978032909D0042906D108490860FFF77A
:103D10008FFC00BFC4E9005070BD0549086000F089
:103D20003DF9F7E7300000202800002024000020A3
:103D3000200000202DE9FE4F82460F4601F0FF448F
:103D40008D4E1046FCF7E2FC8846054614B35146FA
:103D50000846FCF75FFA044639460846FCF75AFA6B
:103D60002146FCF7FFF9FFF75BFC7168FCF784FA6A
:103D700081463846FCF7CAFC07460C465046FCF71D
:103D8000C5FC3A462346FFF7D7FD02460B462846B8
:103D9000414608E050467168FCF76EFA81462846B5
:103DA0004146764A764BFCF7B1FAFCF7DBFCFEF7AE
:103DB000FFFFFCF7ABFC0446724A734B0191FCF722
:103DC000BEFB0022714BFCF7A1FAFCF786FC824691
:103DD0004846FCF79BFC054688465046019FFCF789
:103DE0003CFC8146674A684B0291FCF736FB224651
:103DF0003B46FCF72CFBFCF7B5FCFFF77DFBFCF723
:103E000085FCDFF88CB1634B5A46FCF726FB434632
:103E10002A46FCF722FBFCF7A5FC009047464846E3
:103E200000225A4B0299FCF712FB564A564BFCF7FC
:103E300014FB02460B4620460199FCF708FBFCF7F1
:103E400091FCFFF759FBFCF761FC5A46514BFCF71C
:103E500004FB2A463B46FCF700FBFCF783FC80464C
:103E60004FF07E500099FCF7CFF94146FCF7CCF9B2
:103E70004FF0FF31BAF1070F5CD2DFE80AF05B04C4
:103E8000122230404D00FCF735FA074641460098B3
:103E9000FCF768F93946FCF765F9054638464146AE
:103EA0000BE0FCF727FA07460099FCF75BF905469B
:103EB00041460098FCF756F93946FCF753F9044699
:103EC0003BE0FCF717FA054641460098FCF74AF933
:103ED0002946FCF747F90446284641460BE0FCF723
:103EE00009FA05460099FCF73DF904464146009859
:103EF000FCF738F92946FCF735F907461DE0FCF7D1
:103F0000F9F904464146FCF72DF90546414600986B
:103F1000FCF728F92146EEE7FCF7ECF904464146A8
:103F20000098FCF71FF92146FCF71CF905462046CE
:103F30000099E0E700252C462F463068FCF76EFB21
:103F400006462946FCF766F9FCF794FB124D2968F2
:103F5000486330462146FCF75DF9FCF78BFB296886
:103F6000886330463946FCF755F9FCF783FB29682E
:103F7000C863BDE8FE8F000034000020F4D643542F
:103F8000FB21F93F40AF2D3852C1F03F0000F03F18
:103F90006B6058E87AB6FB3F700000202DE9F047CF
:103FA00081464FF0E02085691C4C1D4F1D4EA068D6
:103FB000DFF87480854201D2401B03E06FF07F413F
:103FC000491B0844FCF733FB3946FCF755F9FCF76D
:103FD0009DFB32464346FCF740FAFCF7C3FB014623
:103FE00010F0FF4FA56002D0B1F17C5F00DD0F49FA
:103FF0004846FCF70FF90E4D2968FCF7B3F8FEF7B9
:10400000D7FE2860E5686169FEF7FEFD02460021E3
:104010002846FFF78FFE2846BDE8F08734000020D1
:10402000000010428DEDB5A0F7C6B03E6F12833A86
:104030001C000020010202030405060708090A0B00
:104040000C0D0E0F10100000000000000000010217
:104050000304060708090000000001020304000031
:10406000000000004F0000009E000000ED00000076
:104070003C0100008B010000D90100002802000073
:1040800077020000C6020000150300006303000071
:10409000B2030000000400004F0400009D04000073
:1040A000EC0400003A05000088050000D605000079
:1040B0002406000072060000C00600000E07000083
:1040C0005B070000A9070000F60700004308000096
:1040D00090080000DD0800002A09000077090000B0
:1040E000C30900000F0A00005C0A0000A80A0000D3
:1040F000F40A00003F0B00008B0B0000D60B000001
:10410000210C00006C0C0000B70C0000010D000039
:104110004C0D0000960D0000E00D0000290E00007F
:10412000730E0000BC0E0000050F00004E0F0000D3
:10413000960F0000DF0F0000271000006E10000037
:10414000B6100000FD100000441100008B110000AB
:10415000D1110000171200005D120000A212000031
:10416000E81200002D13000071130000B6130000C8
:10417000F91300003D14000081140000C414000075
:1041800006150000491500008B150000CC15000035
:104190000E1600004F1600008F160000CF1600000C
:1041A0000F1700004F1700008E170000CD170000FA
:1041B0000B1800004918000087180000C418000000
:1041C000011900003D19000079190000B51900001F
:1041D000F01900002B1A0000661A00009F1A000058
:1041E000D91A0000121B00004B1B0000831B0000AB
:1041F000BB1B0000F21B0000291C0000601C00001B
:10420000961C0000CB1C0000001D0000351D0000A6
:10421000691D00009D1D0000D01D0000031E000050
:10422000351E0000671E0000981E0000C91E000019
:10423000FA1E0000291F0000591F0000881F0000FF
:10424000B61F0000E41F0000112000003E20000007
:104250006A20000096200000C1200000EC20000031
:104260001621000040210000692100009221000079
:10427000BA210000E1210000082200002F220000E6
:10428000552200007A2200009F220000C322000075
:10429000E72200000A2300002D2300004F23000026
:1042A0007023000091230000B2230000D1230000FE
:1042B000F12300000F2400002D2400004B240000F7
:1042C0006824000084240000A0240000BB24000017
:1042D000D5240000EF24000009250000222500005D
:1042E0003A25000052250000692500007F250000C6
:1042F00095250000AA250000BF250000D325000059
:10430000E6250000F92500000B2600001D26000010
:104310002E2600003E2600004E2600005D260000EE
:104320006C2600007A2600008726000094260000F4
:10433000A0260000AB260000B6260000C026000024
:10434000CA260000D3260000DB260000E32600007A
:10435000EA260000F1260000F7260000FC260000F7
:104360000127000005270000082700000B27000098
:104370000D2700000F270000102700001027000065
:104380004FBB610567ACDD3F182D4454FB21E93F6D
:104390009BF681D20B73EF3F182D4454FB21F93F5C
:1043A000E2652F227F2B7A3C075C143326A6813CE2
:1043B000BDCBF07A8807703C075C143326A6913C8D
:1043C000C4EB98999999C9BF711623FEC671BCBFF9
:1043D0006D9A74AFF2B0B3BF9AFDDE522DDEADBF61
:1043E0002F6C6A2C44B4A2BF0D5555555555D53F79
:1043F000FF8300922449C23F6E204CC5CD45B73F94
:10440000513DD0A0660DB13FEB0D76244B7BA93F0B
:1044100011DA22E33AAD903F0000000000000000F6
:10442000DDDDDDDDDCBBBBDDDDDDDDDDDDDDDDDD01
:104430009888888888888888777777777788888841
:1044400085555556666666666666666666688888D9
:104450008333333222222222222222222228888DD2
:10446000804400080000002050000000DC2B000801
:10447000D044000850000020F8040000EC2B000895
:10448000000000000000000000000000010000002B
:1044900010000000000000000024F40000000000F4
:1044A000000000000000000000000000000000000C
:1044B0000000000084030000000000000000000075
:1044C00000000000000000000000000000000000EC
:04000005080000ED02
:00000001FF
