:020000040800F2
:1000000068070020A10100088F240008EB220008E7
:100010008D240008B91100083928000800000000EC
:100020000000000000000000000000009324000811
:10003000BB1100080000000091240008952400086E
:10004000B7010008B7010008B7010008B7010008B0
:10005000B7010008B7010008B7010008B7010008A0
:10006000B7010008B7010008B7010008B701000890
:10007000B7010008B7010008B7010008B701000880
:10008000B7010008B7010008B7010008B701000870
:10009000B7010008B7010008B7010008B701000860
:1000A000B7010008B7010008B7010008B701000850
:1000B000F1240008B7010008B7010008B7010008E3
:1000C000B7010008B7010008B7010008B701000830
:1000D000B7010008B7010008B7010008B701000820
:1000E000B7010008B7010008B701000800F002F8E6
:1000F00000F047F80AA090E8000C82448344AAF17B
:100100000107DA4501D100F03CF8AFF2090EBAE878
:100110000F0013F0010F18BFFB1A43F0010318473B
:100120007C3800009C380000103A24BF78C878C1A1
:10013000FAD8520724BF30C830C144BF04680C60ED
:10014000704700000023002400250026103A28BF35
:1001500078C1FBD8520728BF30C148BF0B60704739
:10016000662903F0B683002070471FB500F0CEFA71
:1001700004000020002102F0C9FCE0601FBD10B5A2
:1001800010BD00F0E3FB1146FFF7EFFF02F00CFC9F
:1001900000F001FC03B4FFF7F2FF03BC02F090FB98
:1001A00008480047FEE7FEE7FEE7FEE7FEE7FEE75A
:1001B000FEE7FEE7FEE7FEE703480449044A054B75
:1001C00070470000ED00000868010020680700206B
:1001D0006803002068030020704700000FB4044942
:1001E00010B503AA029800F07FFA10BC5DF814FB6A
:1001F0001C0000202DE9F0410E460446002020623C
:100200002046E168884730B3252805D0D4E901218C
:100210009047206A401CF2E7E168204600278847A3
:10022000050018D0A5F14100192802D820354FF457
:1002300000673246294620462760FFF791FF40B10C
:10024000012804D0F61D26F007060836D8E7361D2B
:10025000D6E72846DAE7206ABDE8F0814FF00002D1
:1002600000B5134694469646203922BFA0E80C50AC
:10027000A0E80C50B1F12001BFF4F7AF090728BF87
:10028000A0E80C5048BF0CC05DF804EB890028BF03
:1002900040F8042B08BF704748BF20F8022B11F02C
:1002A000804F18BF00F8012B7047704770477047A8
:1002B000704710B500F02EFA006810BD10B5044666
:1002C00000F028FA046010BD70472DE9FF4F0C467E
:1002D0001E464FF0FF378BB0D2E90001DDF8608099
:1002E0000A908A46C1F30A5505B93D4600210846E1
:1002F0004FF00000BAF1000F00F4400005DA00EB07
:1003000080004FF4400101EA50004FEA9059B9F1E2
:10031000010F00DDB9460A9850EA4A000ED044F6B3
:100320001050A5F2FF3545432F14B8F1000F1ED031
:100330007542291E1EDDC9F100021CE0B8F1010F53
:100340004FF0000001D0302103E0F24305E02154DA
:10035000401CB042FBDB30460022002121540B99A7
:10036000C1F80880C1E900200FB0BDE8F08FBD1BC7
:100370006D1CDEE74A4600DA694206A800F06CFA16
:1003800006AB93E8070003AB83E8070050460A99E1
:1003900000F04AFB8DE80700A0F500501F380090E0
:1003A0000398002D0ADD42F21F014A46084400234B
:1003B00003A90390684600F0B3FD09E0A0F50050E2
:1003C0004A461F38002303A90390684600F0BDFD8C
:1003D0008DE807000004000C03D04FF0FF30410807
:1003E00000E01046B8F1000F03D00022009215463D
:1003F0001EE0751E05D400F091F9303262556D1E75
:10040000F9D5B3460122084302D000227F1C04E044
:100410002078302801D100227F1E002A099784D03D
:100420001DE0112D07DA00F079F9303262556D1CAC
:1004300050EA0102F5D1084302D00098C8B10EE09D
:100440000021681E05E0235C625C63542254401E58
:10045000491C8142F7DBAB46A81B401E09900020D7
:1004600004F80B000B98099AC0F80880C0E9002B2B
:100470007AE711264FF0000857E72DE9F04F88463C
:100480000446D21D22F0070191B0D1E90001CDE967
:100490000A0102F0D2F902460B98C00F01D02D20BC
:1004A00007E02068810701D52B2002E0202101EA26
:1004B000C000032A099001D0072A05DB0346414604
:1004C000204600F089F90BE12078800601D5E0692B
:1004D00000E00620B8F1650F814606D0B8F1660F3E
:1004E00018D0B8F1670F70D131E00020B9F1110FC9
:1004F000009001DB112301E009F101030AAA01A91F
:100500000CA8FFF7E2FEDDE90C70002609F10105F9
:10051000834647E001204B4600904FF000470AAA6F
:1005200001A90CA8FFF7D1FEDDE90DB00C995D46DD
:10053000002610B909F101000D18B9EB050003D42C
:10054000C0F1FF3609F10105A5EB09002BE0B9F177
:10055000010F01DA4FF001090020B9F1110F0090ED
:10056000484601DD112300E003460AAA01A90CA8B0
:10057000FFF7ABFEDDE90C704D4600268346207880
:1005800000070AD4AB4500DA5D4601A8012D04DD61
:10059000411911F8011C302907D04F4502DA17F133
:1005A000040F04DA012082460FE06D1EEEE7002FF3
:1005B00002DCED1B3E4403E0781CA84200DD7D1CFC
:1005C000B81B00F1010A4FF000472078000703D460
:1005D000AA4501DB4FF0FF3A0021B7F1004F0DF1C2
:1005E00043088DF8431024D002202B23002F01DA7A
:1005F0007F422D230A21021EA0F1010000DC5FB121
:1006000097FBF1FC97FBF1F201FB1C7C17460CF108
:10061000300C08F801CDEEE7A8F101000370218845
:10062000090501D5452100E06521A0F1010800F888
:10063000011C09980FA9A1EB0807FF1D00B10120BB
:10064000411901EBEA70A1693844081A401EA06103
:100650002078C00602D42046AFF30080099828B164
:10066000D4E901219047206A401C20622078C0060E
:1006700022D52046AFF300801EE0002E04DBB345F8
:1006800002DD01A8805D00E03020D4E9012190471F
:10069000206A401C2062761CAAF101005FEA000A71
:1006A0000AD100F033F8C0680168405CD4E9012148
:1006B0009047206A401C2062281EA5F10105DCDC61
:1006C00007E0D4E9012118F8010B9047206A401C8B
:1006D0002062381EA7F10107F3DC2046AFF300804B
:1006E000032011B041E60000074B70B50D467B4476
:1006F00000F05FF80446284600F020F910B14FF0F2
:10070000FF3070BD204670BD672200000048704772
:1007100028010020004870470801002030B5B0F1E2
:100720000A024FEA900E71F100034EEA817EB0EBAF
:100730000E0061EB91014FEA101E4EEA017E10EBB4
:100740000E0041EB11114FEA102E4EEA016E10EB34
:100750000E0041EB11214FEA104E4EEA014E10EB14
:100760000E0041EB1141401841F100014FEAD00069
:1007700040EA41704FEAD10110EB80054FEA810455
:1007800044EA907444EB01046D1944EB0404521BD9
:10079000A3414FF0000348BF0A3200D530BD401CD2
:1007A00041F1000130BD000001694A1C0261087876
:1007B000704700B58FB0CDE90131002105910549A1
:1007C0007944CDE9031011466846FFF713FD0FB0D9
:1007D00000BD0000E5FFFFFF2DE9F0411F46044684
:1007E00003260168072A01F4006004DB08B116A59E
:1007F00005E016A503E008B115A500E015A521F058
:1008000010002060A069C01EA0610FB1401EA06151
:100810002046AFF300804FB1D4E90121384690471C
:10082000206A401C2062C01C206206E0206AFAE7B1
:10083000D4E9012115F8010B9047761EF8D2204625
:10084000AFF30080BDE8F0814E414E006E616E0056
:10085000494E4600696E66002DE9F047814616460E
:100860008AB0354878440DC88DE80D003248784488
:10087000801C03AC0DC884E80D0041F69B30084491
:10088000372190FBF1F290FBF1F5A5F1800501FB1A
:1008900012041B3C02D56442012000E00020DFF876
:1008A00098A080460027FA44AAF1BE0A0EE0E007AD
:1008B0000AD03246684607EB470101230AEB810163
:1008C00000F043FB8DE8070064107F1C002CEED184
:1008D000194F7F44AE3F19E0E80715D007EB04102D
:1008E0000DF1180A90E80E008AE80E00C068F04288
:1008F00001D1981908903246012306A903A800F0F7
:1009000024FB03AB83E807006D10641C002DE3D1CA
:100910004FF0010332466946B8F1000F03A802D038
:1009200000F0FEFA01E000F010FBC9E90001C9F88F
:1009300008200AB0BDE8F0871C310000007B00F001
:100940008000704700487047080100207546FFF797
:10095000F9FFAE4605006946534620F0070085467C
:1009600018B020B5FFF728FCBDE820404FF0000686
:100970004FF000074FF000084FF0000B21F0070187
:10098000AC46ACE8C009ACE8C009ACE8C009ACE8CA
:10099000C0098D46704710B50446AFF3008020466D
:1009A000BDE81040FFF7F6BB4FF0013C50F8042BB8
:1009B00051F8043B9A4221D1A2EB0C03934313EA72
:1009C000CC1317D150F8042B51F8043B9A4215D19F
:1009D000A2EB0C03934313EACC130BD150F8042B76
:1009E00051F8043B9A4209D1A2EB0C03934313EA5A
:1009F000CC13DBD04FF00000704700BFD01A01BA13
:100A0000B1FA81F101F0180122FA01F0CB40C1F1F5
:100A10002001DBB2C0B2C01A2CFA01F3D11A914303
:100A200011EAC311E6D170475FEA400C08BF91F0AC
:100A3000000F4FEA8C234FEAC12243EA51514FEA9B
:100A40001C5018BF00F5F0404FEA300018BF41F0CD
:100A500000415FEA6C5C00F02980BCF1FF3F08BFF9
:100A600040F080407047130C06BF12044FF0100C8A
:100A70004FF0000C130E04BF12020CF1080C130F00
:100A800004BF12010CF1040C930F04BF92000CF18F
:100A9000020CD30F04BF52000CF1010C11464FF0B1
:100AA0000002A0F11F00A0EB0C00704711F0004FF6
:100AB00008BF704731F000413FF4D5AF0B0C06BFC3
:100AC00009044FF0100C4FF0000C0B0E04BF09028C
:100AD0000CF1080C0B0F04BF09010CF1040C8B0F77
:100AE00004BF89000CF1020CCB0F04BF49000CF1CC
:100AF000010CCCF12003A0EB0C0022FA03F302FA64
:100B00000CF241EA030100F10100704720F07F4C34
:100B100080EA030023F07F47ACEB070303F57C5327
:100B200000F0004003F1FF032DE980494FEA154B27
:100B300009B44FEA144325EA0B4E24EA03480FF2A6
:100B4000042606EB132749083E785FEA320203FBCE
:100B50000667C7F5000707FB06F64FEA54374FEA6A
:100B6000D64606F1020607FB066CCCF1005C4FEAA4
:100B70001C472CEA074C07FB06F40CFB06F504EBBC
:100B800015464FEA961634BF00204FF000404FEA5A
:100B9000D13706FB07FC4FEA1C4C0CFB0BF7D21BB2
:100BA00003FB0CF761EB07010CFB0EF7B0EB074002
:100BB00072EB17420CFB08F734BFA2EB0742B2EB13
:100BC000074261EB17414FEA0C444FEA910706FBDD
:100BD00007FC4FEA1C4C0CFB0BF7B0EBC74072EB69
:100BE000573203FB0CF734BFA2EBC742B2EBC7424C
:100BF00061EB57310CFB0EF7B0EBC70072EB57728D
:100C00000CFB08F734BFA2EBC702B2EBC70261EBE3
:100C10005771039F4FEA816141EA921104EBCC04C2
:100C20004FEAD1374FEA826206FB07FC42EA901294
:100C30004FEA80604FEA1C4C0CFB0BF7D21B03FB06
:100C40000CF761EB07010CFB0EF7B0EB074072EB02
:100C500017420CFB08F734BFA2EB0742B2EB074286
:100C600061EB17414FEA8C554FEA910704EB9C2446
:100C700006FB07FC4FEA1C4C0CFB0BF7B0EBC74024
:100C800072EB573203FB0CF734BFA2EBC742B2EB57
:100C9000C74261EB57310CFB0EF7B0EBC70072EBAC
:100CA00057720CFB08F734BFA2EBC702B2EBC702C6
:100CB00061EB577115EB4C254FEA816141EA9211C6
:100CC0004FEA82624FEAD13742EA901206FB07FCF4
:100CD00044F100044FEA80604FEA1C4C0CFB0BF718
:100CE000D21B03FB0CF761EB07010CFB0EF7B0EB1B
:100CF000074072EB17420CFB08F734BFA2EB074228
:100D0000B2EB074261EB174115EB1C154FEA81313D
:100D100041EA92414FEA823242EA90424FEA803001
:100D20004FEA0C7644F1000448EA03434EEA0B48CC
:100D30004FF0000EB2EB080C71EB030724BF6246C4
:100D400039464EEB0E0E4FF0000B00185241494150
:100D50004BEB0B0BB2EB080C71EB03077BF1000BB9
:100D600024BF624639464EEB0E0E4FF0000B0018C2
:100D7000524149414BEB0B0BB2EB080C71EB0307F3
:100D80007BF1000B24BF624639464EEB0E0E51EA52
:100D9000020718BF46F0010616EB0E7655F1000269
:100DA00054F1000103D5BDE88901BDE80088BDE824
:100DB0008901BDE80048B619524141EB0101A3F198
:100DC0000103704780807F7E7D7C7B7A797877769F
:100DD00076757473727171706F6E6E6D6C6C6B6A18
:100DE0006A696868676666656464636362616160B6
:100DF000605F5F5E5E5D5D5C5C5B5B5A5A59595833
:100E0000585757565655555554545353525252519C
:100E1000515050504F4F4F4E4E4D4D4D4C4C4C4BF2
:100E20004B4B4A4A4A494949484848474747474639
:100E30004646454545444444444343434342424275
:100E400042414141002B9C4630D477002BD01CB549
:100E50004FEA370703B44FF010004FF01001BAF11A
:100E6000000F06D0BCF1000FDCBF40F0080040F0DE
:100E700008014FF000000FBCBDE810400BF1010B62
:100E8000BBF1010F08BF5FEA170722BF12F1010291
:100E900011F101014FF0004143F1000300F0004067
:100EA00043EA00007047F9D35708D0E746EA064600
:100EB00013F1400F4FEA16461FDD13F1200FDFBF7D
:100EC00016430A46002120335B42BED0C3F12007FF
:100ED00046EA064602FA07F74FEA164646EA0706CA
:100EE000C3F1200722FA03F201FA07F721FA03F10E
:100EF0004FF0000342EA0702A7E746EA020646EA85
:100F000006464FEA164646EA0106BCBF46EA0646D2
:100F1000360C4FF000034FF000024FF0000194E751
:100F20002DE9804C9A46934670B491E8380007C882
:100F300031EA400C48BF34EA430C03D5FFF7E6FD25
:100F4000FFF780FFF0BCBDE8008C2DE9804C9A468D
:100F5000934670B491E8380007C810F0804F08BF7E
:100F600013F0804F03D100F005F8FFF76BFFF0BCE2
:100F7000BDE8008C20F07F4780EA030023F07F4C1F
:100F800007EB0C03A3F57C5300F00040A3F1FE0334
:100F900092F0000F00F0B38095F0000F00F0778022
:100FA0002DE901494FEA11404FEA144621EA004871
:100FB00000FB06FC24EA064708FB06F607FB08F8D8
:100FC00000FB07F718EB06484CEB164C4FEA124BA8
:100FD00018EB07484FEA15464CEB174022EA0B4E38
:100FE0000BFB06FC25EA06470EFB06F607FB0EFE8A
:100FF0000BFB07F71EEB064E4CEB164C4FF00006B2
:101000001EEB074E4CEB174B18EB0B0840F10000A2
:1010100018EB0E0B58EB000840F100008F1A4FF050
:1010200000013CBFC943661B14BFB5EB040C002193
:101030003CBFC943F61B4FEA17444EEA8E0E27EA1F
:1010400004454FEA1C4704FB07622CEA074C05FBEA
:1010500007F70CFB05F604FB0CFC16EB074642EB0E
:10106000174216EB0C4642EB1C421BEB060658EBF4
:101070000202414146EA9E0601D5BDE80189B61942
:10108000524141EB0101A3F10103BDE801894FEA9F
:1010900014454FEA114724EA054621EA074C05FBAF
:1010A00007F406FB07F70CFB06F105FB0CFC11EB44
:1010B000074144EB17444FEA124711EB0C4144EB54
:1010C0001C4422EA074C05FB07F206FB07F70CFB62
:1010D00006F605FB0CFC16EB074642EB174216EB37
:1010E0000C4642EB1C456A1854F1000148BF70479A
:1010F000B619524141EB0101A3F10103704795F08C
:10110000000F37D04FEA11424FEA144721EA024656
:1011100024EA074C02FB07F106FB07F70CFB06F479
:1011200002FB0CFC14EB074441EB17414FEA154757
:1011300014EB0C4441EB1C4125EA074C02FB07F57C
:1011400006FB07F70CFB06F602FB0CFC16EB07464A
:1011500045EB174516EB0C4645EB1C42121951F1B5
:10116000000148BF7047B619524141EB0101A3F19C
:10117000010370474FEA14454FEA114724EA054638
:1011800021EA074C05FB07F106FB07F70CFB06F20B
:101190004FF0000605FB0CFC12EB074241EB174138
:1011A00012EB0C4251EB1C4148BF7047921841EBC7
:1011B0000101A3F101037047FEE7704772B6FEE735
:1011C00070B54FF40041094800F004F9084D44009F
:1011D0000821284600F0FEF820434006040E291599
:1011E000284600F0F7F8204370BD000000080140D9
:1011F000000C01402DE9F84FDFF8B8910024A9F167
:10120000040B23460F2709F1040AABF1040EC9E0D1
:101210000125A5402A40AA427DD1674ED1F804C0DD
:10122000ACEB0608B44532D014DCBCF1030F3AD065
:1012300009DCBCF1000F2AD0BCF1010F1CD0BCF1BD
:10124000020F31D11DE0BCF1110F17D0BCF1120F0C
:101250002AD119E0B8F5881F19D006DCB8F5803F0F
:1012600015D0B8F5801F1FD111E0B8F5001F0ED0C2
:10127000B8F5041F18D10AE0CB6815E0CB681B1D38
:1012800012E0CB6808330FE0CB680C330CE08B68BE
:101290002BB1012B4FF0080303D0456104E0042378
:1012A00002E0056100E00023FF2A01D8064601E0C4
:1012B00000F104064FEA840501D9A5F12005D6F80E
:1012C000008007FA05FC28EA0C0803FA05F548EA4D
:1012D0000508C6F800804D68ED0062D5374DAE694F
:1012E00046F00106AE61AD6924F0030605F0010584
:1012F0000095334D06EB050CDCF80850A607360FB9
:1013000007FA06F825EA0805DFF8B880404503D15A
:101310004FF0000817E044E0DFF8AC80404502D110
:101320004FF001080FE0DFF8A480404502D14FF0F4
:10133000020808E0DFF89880404502D14FF003082A
:1013400001E04FF0040808FA06F848EA0508CCF86E
:1013500008804D68D9F80060ED024D4601D516436E
:1013600000E096432E604D68DAF80060AD02554605
:1013700001D5164300E096432E604D68DBF800600F
:10138000AD035D4601D5164300E096432E604D68DF
:10139000DEF80060ED03754601D5164300E0964384
:1013A0002E60641C0D682A46E5407FF431AFBDE82D
:1013B000F88F0000080401400000111000100240E6
:1013C0000000014000080140000C014000100140F5
:1013D000001401408068084000D0012070470000E0
:1013E00001488068704700002000002002488168A2
:1013F000027811448160704720000020074810B532
:10140000016841F010010160032000F075F80F2021
:1014100000F006F800F024F8002010BD0020024083
:1014200070B50D4D04464FF47A712878B1FBF0F099
:101430000A490968B1FBF0F000F0DCFA48B9102C59
:1014400007D200222146501E00F036F800206C60C2
:1014500070BD012070BD0000200000202C00002085
:101460000C4808B5816941F001018161816901F091
:1014700001010091C16941F08051C161C06900F072
:10148000805000900448416821F0E06141F0007113
:10149000416008BD0010024000000140002809DB47
:1014A00000F01F02012191404009800000F1E0207E
:1014B000C0F8001170470000F0B40E4B1B680C46DA
:1014C000C3F30223C3F10705042D00D90425191D18
:1014D000072901D2002300E0DB1E012606FA05F1F0
:1014E000491E214099409E40761E16403143F0BC73
:1014F00001F0B7B90CED00E0064900F007020868FA
:101500004FF6FF03184040EA0220034A10430860E8
:10151000704700000CED00E00000FA052DE9F047EF
:101520000F46050061D0434E306800F00700B84216
:1015300009D2306820F0070038433060306800F08E
:101540000700B84251D128683B4C810712D54007AB
:1015500003D5606840F4E06060602878000703D538
:10156000606840F4605060606068A96820F0F00036
:10157000084360602878C00728D06868012810D028
:101580002168022810D0890700292EDA616821F02D
:10159000030101436160FFF723FF804641F2883970
:1015A0000DE021688903EFE78901EDE7FFF718FFF8
:1015B000A0EB0801494502D90320BDE8F087606827
:1015C000696800F00C00B0EB810FEFD1306800F0DB
:1015D0000700B8420BD9306820F00700384330606C
:1015E000306800F00700B84201D00120E5E7287814
:1015F000400705D56068E96820F4E0600843606052
:101600002878000706D56068296920F4605040EA10
:10161000C100606000F038F86168084AC1F3031146
:10162000515CC8400649086006480068FFF7F8FEAC
:101630000020C2E70020024000100240F0380008FD
:101640002C00002024000020044805490068496857
:10165000044AC1F30221515CC84070472C000020AD
:101660000010024000390008044805490068496834
:10167000044AC1F3C221515CC84070472C000020CD
:1016800000100240003900080E4A51680E4801F06F
:101690000C03042B11D0082B0FD10C48C1F383434A
:1016A000C903C05C0AD55168084AC1F34041921E83
:1016B000515C054A5043B0FBF1F070470449484380
:1016C000704700000010024000127A00E038000865
:1016D00000093D002DE9F84F040070D02078C04D7E
:1016E000C00749D06868C0F38100012807D0686846
:1016F000C0F38100022809D16868C00306D52868B4
:10170000800339D560680028E7D035E06068B0F51F
:10171000803F0BD010B1B0F5A02F11D0286820F475
:1017200080302860286820F4802002E0286840F497
:1017300080302860606890B1FFF752FE06460AE0EC
:10174000286840F480202860F0E700BFFFF748FEDB
:10175000801B642873D828688003F7D50CE0FFF756
:101760003FFE064605E000BFFFF73AFE801B6428F7
:10177000F0D828688003F7D420789A4E80074FF07D
:1017800001094FF0000839D5686810F00C0F07D038
:101790006868C0F38100022809D16868C00306D4D4
:1017A0002868800714D52069012808D110E0206935
:1017B000B0B1C6F80090FFF713FE074605E00AE156
:1017C000FFF70EFEC01B0228C4D828688007F7D593
:1017D0002868616920F0F80040EAC10028600DE047
:1017E000C6F80080FFF7FCFD074604E0FFF7F8FDB0
:1017F000C01B022823D828688007F7D42078000768
:101800002CD57948A169D9B1C0F80090FFF7E8FD5F
:10181000074604E0FFF7E4FDC01B02280FD8686A02
:101820008007F7D571484FF4FA510068B0FBF1F02A
:10183000009000BF0098411E0091FAD20EE080E0B7
:10184000C0F80080FFF7CCFD074604E0FFF7C8FDB5
:10185000C01B022875D8686A8007F7D42078400733
:1018600060D5E8690027C00008D4E86940F08050DE
:10187000E861E869012700F0805000905C48016849
:10188000C90513D40168834641F480710160FFF7F4
:10189000A7FD824606E000BFFFF7A2FDA0EB0A000D
:1018A00064284ED8DBF80000C005F5D5E0680128B3
:1018B0000AD008B1052813D0286A20F00100286258
:1018C000286A20F0040002E0286A40F00100286243
:1018D000E06841F2883B98B1FFF782FD82460BE059
:1018E000286A40F004002862EEE700BFFFF778FDA9
:1018F000A0EB0A0159455AD8286A8007F6D50CE0B2
:10190000FFF76EFD824605E0FFF76AFDA0EB0A01D6
:1019100059454CD8286A8007F6D41FB1E86920F0F1
:101920008050E861E06988B36968C1F381010229E8
:1019300044D00228C6F8608004D0FFF751FD044669
:1019400038E034E0FFF74CFD074604E0FFF748FDC0
:10195000C01B02282BD828688001F7D4206AB0F574
:10196000803F05D16868A16820F4003008436860B2
:10197000D4E908010843696821F4741108436860D8
:10198000C6F86090FFF72CFD044606E025E000BF96
:10199000FFF726FD001B022809D828688001F7D52B
:1019A0001BE000BFFFF71CFD001B022802D903202B
:1019B000BDE8F88F28688001F4D40EE00128F7D044
:1019C0006868226A00F48031914204D1616A00F4AF
:1019D0007010884201D00120EAE70020E8E700000B
:1019E0000010024000004242800442422C000020CD
:1019F0000070004010B5401EB0F1807F01D301207F
:101A000010BD4FF0E02460610F21601700F029FF46
:101A10000020A06107202061002010BD70477047A2
:101A200070B590F83C20012A26D0012480F83C4073
:101A3000022280F83D2003685A689D6822F07006F3
:101A40000A6832435A600D4B02689A4208D0B2F1DC
:101A5000804F05D00A4B9A4202D00A4B9A4204D1D9
:101A6000496825F080031943916080F83D400021CA
:101A700080F83C10084670BD022070BD002C01406B
:101A8000000400400008004010B5040003D094F8A2
:101A90003D0010B107E0012010BD002084F83C009B
:101AA000204600F01FF8022084F83D00211D206828
:101AB00000F024FD012084F8460084F83E0084F8FC
:101AC0003F0084F8400084F8410084F8420084F824
:101AD000430084F8440084F8450084F83D00002069
:101AE00010BD000030B585B0002405460094019477
:101AF0000294039400682849B0F1804F0CD0274A23
:101B0000904207D1C86940F00200C861C86900F07E
:101B10000200049005B030BDC86940F00100C86102
:101B2000C86900F001000490886940F008008861ED
:101B3000886900F008000490886940F0040088611A
:101B40008869694600F0040004904FF481600090B9
:101B50001348FFF74FFB4FF40040CDE900046946FE
:101B600010480294FFF746FB0F48416821F440718A
:101B700041F0E06141F440714160002211461C20B7
:101B8000FFF79AFC1C20FFF789FC2868C16841F028
:101B90000201C160BEE700000010024000040040E6
:101BA000000C0140000801400000014090F83D1089
:101BB000012901D001207047022180F83D10006802
:101BC0000B49884208D0B0F1804F05D009498842BE
:101BD00002D00949884204D1816801F00701062931
:101BE00003D0016841F0010101600020704700004E
:101BF000002C0140000400400008004090F83D1017
:101C0000012901D001207047022180F83D100168B0
:101C1000CA6842F00102CA6000680B49884208D0D5
:101C2000B0F1804F05D00949884202D00849884266
:101C300004D1816801F00701062903D0016841F051
:101C40000101016000207047002C014000040040A9
:101C50000008004070B5044690F83C0000250128BB
:101C600017D0012684F83C60022084F83D002068EB
:101C7000826822F0770222F47F428260086850284E
:101C800038D00DDC20284FD005DC90B3102811D1BE
:101C90004AE0022070BD302846D040280AD13BE0FF
:101CA00060282FD070280DD0B0F5805F03D0B0F53C
:101CB000005F12D0012584F83D60002084F83C00CC
:101CC000284670BDCB68D1E90121206800F059FC9D
:101CD0002068816841F0770109E0CB68D1E90121F2
:101CE000206800F04EFC2068816841F480418160EA
:101CF000E1E719E0CA684968206800F09AFC5021C1
:101D0000206806E0CA684968206800F0CFFC6021BE
:101D1000206800F040FCCEE7CA684968206800F0FF
:101D200088FC40212068F4E7226801461046F0E76D
:101D30000268506820F0800008435060002070471F
:101D40000168B1F1804F04D1007F012801D100F07A
:101D500095BE70472DE9F041054690F83C000026FD
:101D60000C46012810D0012085F83C0072B1042AED
:101D70001CD0082A2CD00C2A50D00126002085F82F
:101D80003C003046BDE8F0810220FBE7D4E90012B8
:101D9000E368286800F05EFC2868816921F00C0186
:101DA000816128688169A26811430FE0D4E90012BB
:101DB000E368286800F08CFC2868816921F44061A0
:101DC000816128688169A26841EA02218161D5E7C1
:101DD0002868D4E9002C277B036A016A21F480710A
:101DE0000162C16923F4007321F0030141EA0C018F
:101DF00021F0F00C39074FF400774CEA116107EA43
:101E000002221A43C16102622868C16921F00C01F3
:101E1000C1612868C169A26811432BE02868D4E930
:101E20000021E768036AD0F820C02CF4805CC0F879
:101E300020C0D0F81CC023F400532CF4407C4CEAA2
:101E4000012121F4704C4FF6FF7101EA07314FF484
:101E5000005741EA0C0107EA02321A43C1610262EB
:101E60002868C16921F44061C1612868C169A2681C
:101E700041EA0221C16181E710B5040003D094F862
:101E80003D0010B107E0012010BD002084F83C00A7
:101E9000204600F01EF8022084F83D00211D206835
:101EA00000F02CFB012084F8460084F83E0084F802
:101EB0003F0084F8400084F8410084F8420084F830
:101EC000430084F8440084F8450084F83D00002075
:101ED00010BD704730B50446002551B104290DD01E
:101EE000082910D094F8410094F84520012811D118
:101EF0000EE094F83E0094F84220F7E794F83F0093
:101F000094F84320F2E794F8400094F84420EDE779
:101F1000012A01D0012030BD022059B1042912D07C
:101F2000082919D084F8410084F845000C2938D0DC
:101F3000012534E084F83E0084F842002068C2683D
:101F400042F0020210E084F83F0084F84300206869
:101F5000C26842F0040207E084F8400084F84400BC
:101F60002068C26842F00802C2600122206800F0C6
:101F7000FBFA0E492068884208D0B0F1804F05D0A6
:101F80000B49884202D00B49884204D1816801F094
:101F90000701062903D0016841F0010101602846CC
:101FA00030BD2068C26842F01002DDE7002C01401D
:101FB000000400400008004070B504460068016954
:101FC0004FF00005C943890715D4C168C943890783
:101FD00011D4E91E01610120207720688069800703
:101FE000204602D0FFF7ACFE04E000F098F820464F
:101FF00000F096F8257720680169C943490717D48E
:10200000C168C943490713D46FF00401016102207C
:1020100020772068806910F4407F204602D0FFF7C7
:102020008FFE04E000F07BF8204600F079F8257779
:1020300020680169C943090716D4C168C943090763
:1020400012D46FF008010161042020772068C06974
:102050008007204602D0FFF773FE04E000F05FF82F
:10206000204600F05DF8257720680169C943C9065C
:1020700017D4C168C943C90613D46FF010010161B8
:10208000082020772068C06910F4407F204602D0E5
:10209000FFF756FE04E000F042F8204600F040F85A
:1020A000257720680169C943C90708D1C168C943B8
:1020B000C90704D1891E0161204600F032F820686A
:1020C0000169C943090609D4C168C943090605D491
:1020D0006FF0800101612046FFF7A0FC20680169D4
:1020E000C943490609D4C168C943490605D46FF0FC
:1020F00040010161204600F040F820680169C943B1
:1021000089060BD4C168C943890607D46FF0200142
:1021100001612046BDE87040FFF781BC70BD70478B
:102120007047704770B5044690F83C00012812D003
:10213000012584F83C50022084F83D00204600F040
:1021400032FA01004FF0000007D084F83D5084F8C7
:102150003C00012070BD022070BD2168CA6822F0D9
:102160004002CA602168CA6822F48042CA6084F8CA
:102170003D5084F83C00002070BD704770B50400ED
:1021800004D094F84100002510B106E0012070BD94
:1021900084F84050204600F023F8242084F84100C1
:1021A0002068C16821F40051C160204600F0ACFAFB
:1021B0002068016921F4904101612068416921F0A2
:1021C0002A0141612068C16841F40051C160656421
:1021D000202084F8410084F842006563002070BD2F
:1021E00030B585B0002400940194029403940068F3
:1021F0001449884223D11448C16941F40031C161B6
:10220000C16901F400310491816941F004018161E7
:1022100080690E4D00F0040004900420009002201C
:1022200001900320039069462846FEF7E3FF08204B
:10223000CDE90004694628460294FEF7DBFF05B0AD
:1022400030BD000000440040001002400008014082
:102250002DE9F843044690F841001F4616460D4606
:10226000202802D00220BDE8F8837DB176B100209D
:102270006064212084F84100FFF7B2F8A68480460C
:10228000E684A068B0F5805F02D003E00120EAE7B1
:10229000206910B12E4600250EE000260CE08021BA
:1022A000204600F08DFAA0B9AEB116F8010B2168F6
:1022B0004860E08C401EE084E08C43464FF0000212
:1022C00000970028EBD14FF04001204600F078FA4B
:1022D00030B10320C7E735F8020BC0F30800E6E78A
:1022E000202084F841000020BDE7FEE70D4808B536
:1022F000816941F020018161816901F02001009133
:10230000816941F004018161816901F0040100915A
:10231000816941F008018161806900F00800009046
:1023200008BD00000010024010B58AB000242E48FD
:1023300004940594069407940894099400940194D5
:1023400002944FF080410394016040F2AF41C0E934
:10235000011442F20F71C0E903148461FFF794FB8A
:1023600008B1FEF72BFF4FF48050049004A91E48DB
:10237000FFF770FC08B1FEF721FF1B48FFF77CFD5B
:1023800008B1FEF71BFF089408A917480994FFF746
:1023900047FB08B1FEF712FF0320CDE9004002948D
:1023A0000022694610480394FFF7D4FC08B1FEF7F9
:1023B00005FF042269460C48FFF7CCFC08B1FEF784
:1023C000FDFE082269460848FFF7C4FC08B1FEF785
:1023D000F5FE80210448FFF7ABFC002801D0FEF792
:1023E000EDFE0AB010BD00003000002010B586B030
:1023F0000024174800940194029403940494134910
:10240000059401600B21C0E901144FF6FF71C0E98A
:1024100003148461FFF738FB08B1FEF7CFFE4FF4D9
:102420008050009069460A48FFF714FC08B1FEF797
:10243000C5FE049404A906480594FFF7F1FA0028A4
:1024400001D0FEF7BBFE06B010BD00000004004046
:10245000780000200C4810B50A4901604FF416516D
:102460004160002181600C22C160C0E904128161D9
:10247000C161FFF783FE002803D0BDE81040FEF7DE
:102480009DBE10BD00440040C0000020FEE7FEE7F6
:1024900070477047FEF7AABF30B58FB02821684655
:1024A000FDF7DCFE14210AA8FDF7D8FE0225012065
:1024B000049000951020059000248003CDE9084089
:1024C00007956846FFF706F908B172B6FEE70F20D8
:1024D0000A90CDE90B540D9400210AA80E94FFF741
:1024E0001DF8002801D072B6FEE70FB030BD000025
:1024F0000148FFF761BD000030000020F0B5026820
:10250000164B174C174D4FF08047984205D0B842F4
:1025100003D0A04201D0A84203D122F070064A683D
:102520003243984205D0B84203D0A04201D0A8421D
:1025300003D122F44074CA6822434C6922F080021D
:10254000224302608A68C2620A688262984201D1AC
:102550000969016301214161F0BD0000002C0140C7
:10256000000400400008004010B501F01F030121E5
:10257000046A99408C430462016A9A4011430162E3
:1025800010BD10B5846842EA032224F47F440A4354
:102590002243826010BD826822F070020A4342F03A
:1025A00007018160704770B5036800249A6822F0C3
:1025B00070054A682A4322F007050A682A439A6090
:1025C0004A6812F00F0F31D11211082A2ED2DFE81B
:1025D00002F02E2E2E2E0B2127040B69D1E90221A9
:1025E0000068FFF7CEFF22E00A68052A10D00268D3
:1025F000136A156A25F00105156202689569096973
:1026000025F0F00545EA01119161006803620EE0D2
:10261000012070BD0A698968006800F00AF806E0C8
:102620000A698968006800F041F800E0012420464A
:1026300070BD10B5036A046A24F001040462846961
:1026400024F0F00444EA021423F00A020A438461ED
:10265000026210BD70B5056A046A24F001040462C8
:1026600084690F4EB04208D0B0F1804F05D00D4EB6
:10267000B04202D00C4EB04203D124F00304144304
:1026800001E044F001041A0724F0F00444EA126265
:1026900025F00A0301F00A0119438261016270BD4D
:1026A000002C0140000400400008004010B5036AFF
:1026B000046A24F010040462846923F0A00324F463
:1026C000704444EA023243EA01118261016210BDA2
:1026D00030B5046A056A25F010050562856925F4A0
:1026E000407545EA022222F470454FF6FF7202EA75
:1026F000033224F0A0032A43A02404EA0111194361
:102700008261016230BD000070B504460068016955
:10271000E26821F44051114301612169A068084336
:10272000616908432168CA6841F20C639A43024315
:10273000CA6020684169A26921F440711143416176
:102740001E492068884202D1FEF78EFF01E0FEF7A5
:102750007BFF00EBC00101EB001260686421800088
:10276000B2FBF0F3B3FBF1F36FF018067343B2FB67
:10277000F0F5B2FBF0F605EB8305322303EB05150C
:10278000B5FBF1F5B6FBF1F605F0F00505EB061526
:10279000B2FBF0F6B2FBF0F0B0FBF1F06FF0180214
:1027A000504306EB800003EB0010B0FBF1F0216812
:1027B00000F00F002844886070BD00000038014020
:1027C0002DE9F041984617460E460446069D27E03F
:1027D000681C25D02DB1FEF703FEA0EB0800A8422F
:1027E0001ED920680C3050E8001F21F4D07140E859
:1027F0000012002AF5D12068143050E8001F21F0A3
:10280000010140E80012002AF5D1202084F841009F
:1028100084F84200002084F840000320BDE8F081E5
:102820002068006836EA000004D00020B842CFD00B
:102830000020F3E70120F9E7FEE7490050EAC12054
:1028400018BF04204A0D18BF40F0010040F2FF728B
:10285000B2EB515F08BF40F00200012808BF05201D
:1028600070470907090E002804DB00F1E02080F81A
:102870000014704700F00F0000F1E02080F8141DF4
:102880007047002213461046114600F02FBA000090
:1028900010B500F075FD4FF0C042074B00F012F884
:1028A00000F04AF910F1FF4F04D3BDE8104003498E
:1028B00000F092BD10BD0000FB211940DB0FC940A4
:1028C0007047000070B514461D460E46002814BF20
:1028D00001210021314321F00041C1F17F6101F16B
:1028E000E041C90F16D1002C14BF0121002129435A
:1028F00021F00041C1F17F6101F1E041C90F09D12F
:102900001449B1EB460F08BF00281CD0690008BF6E
:10291000002C18D0314600F08FFB024640F2FF70C9
:1029200030EA11500DD0F017B0EBE17F09D0084626
:1029300065F31E0084460B462046614600F02AFCE3
:102940000246104670BD0120FDF7B8FCBDE870409E
:10295000FFF797BF0000E0FF13B54FF6FF730122AA
:1029600069460248FFF774FC00981CBDC0000020B7
:1029700070B50B4D686800F053FE0446E86895F9A1
:10298000001000EB400001EB400000F049FE214642
:1029900000F084FDBDE87040024900F059BE00001F
:1029A00000000020DB0FC94088B0FEF727FDFFF7CD
:1029B00073FDFFF79BFCFFF7B7FCFFF74BFDFFF73D
:1029C00015FD2048FFF7F2F800244020CDE9024031
:1029D0000A20049002A91C48FFF7A4FB1A48FFF73D
:1029E0000DF900211848FFF775FA4FF0E02017495C
:1029F0004161174AF02182F8141D846107210161A9
:102A000014A0FDF7EBFB154DFFF7B2FF294600F0D0
:102A10001FFEFFF73DFF00F0B3FC04460E46FFF734
:102A2000A7FFFFF735FF294600F012FEFFF730FF42
:102A300000F0A6FCCDE9004602460B4608A0FDF7D3
:102A4000CDFBE1E77800002030000020FEFFFF0012
:102A50000FE000E072656164790D0A000000E0405B
:102A6000616E676C655F31203A2566202020616EBB
:102A7000676C655F32203A25660D0A0010B54FF08D
:102A8000E0208469FEF79CFB41B21E4890F90120CA
:102A9000914233D041701C4990F90120895690F938
:102AA00000208B1A4FF0FF32032B05DD0261C26854
:102AB00003691A44C2600DE090F90030CB1A13F19B
:102AC000030F01DA0122F1E790F90030994200DDAD
:102AD0000122026101700169826891420FD181690E
:102AE0008C4202D28169091B04E06FF07F41826948
:102AF000091B1144416184610169816010BD00219D
:102B0000F8E7000000000020D638000810B50029C2
:102B10000AD00878002807D005487844FDF744FF1C
:102B2000002801D0002010BD0248784410BD0000EC
:102B3000A20E00009A0E000021F00042A2F16052A5
:102B4000B2F5801F01F0004328BFD2F17F6C0BD992
:102B50005FEA001C43EAC20242EB507018BF7047A4
:102B600028BF20F001007047B2F5801FBCBF184697
:102B700070474FEA410C1CF5001F02D2084600F0D6
:102B80002EBE70B500F00AFA00000089FFF7F6BF0C
:102B90004FF00040A0F580007047000010B591EAAA
:102BA000030F48BF83F0004300F10883841A71EBE0
:102BB000030C05D2121943EB0C03001B61EB0C0153
:102BC000DFF824E14FEA1154A4EB135C1EEA430F33
:102BD00018BF9EEA445F73D023EA0E03DCF1200E97
:102BE00021EA045143F4801332D322FA0CFE10EB95
:102BF0000E0023FA0CFE41EB0E01CCF1200E03FA7D
:102C00000EFE10EB0E0051F10001B1F5801FCCF16A
:102C1000200E32D201EB045112FA0EF2BDE8104040
:102C200058BF7047401C38BF5FEA420218BF704768
:102C3000002814BF20F0010041F100014FEA4103D8
:102C400013F5001F38BF7047A1F1C04100F09CBAD6
:102C5000012A43EB0302ACF1200CDCF11F0E32BF62
:102C60004FF0000E23FA0CF310EB030041EB04517C
:102C7000B4EB115FD0D0A1EB045101F580114908EC
:102C80005FEA300001EB04510ED350F1000038BF71
:102C900012FA0EFE08D1BDE81040C9E7401C38BF4B
:102CA0005FEA4202CAD1C3E7BDE810404FEA4103E0
:102CB00013F5001F38BF7047A1F1C04100F064BA9E
:102CC0009EEA445F08D011EA5E0FBDE8104004BFE1
:102CD00001F0004100207047BDE8104070B500F0E1
:102CE0005DF900BF64FBBE3E0000E0FF2DE9C0417E
:102CF00030B4DFF8A0C23CEA111418BF3CEA131448
:102D000000F0EC8081EA03051CEA111444EAD57452
:102D100018BF1CEA131500F0C780A4EB05044FF0A0
:102D2000004545EAC12145EAC32341EA505143EA3F
:102D3000525304F17F74994204F500344FEAC020E5
:102D40004FEAC22208BF904200F09C804FEA136510
:102D50000FF24016765D4FEA134506FB05F7C7F103
:102D6000807706FB07F74FEAD737A7FB0368764261
:102D7000C8F58038A7FB06CE38BFA8F1010807FBCD
:102D800008E64FF0000EA6FB028CE6FB03CEDCF15A
:102D9000000CCEF1004E38BFAEF1010EA6FB0C5870
:102DA0004FF000074FF00005E6FB0E87A1FB08C6B9
:102DB000A0FB07CE16EB0E0645F10005E1FB07650B
:102DC00015F1E04E7EBFA4F580345FEA46066D4102
:102DD00016F1800745F100054FEA17274FEA06660E
:102DE00047EA0567A6F1DE46B6F1805F4FEA152592
:102DF0001FD9384624F0010C05EBC471BCF1FE6FFD
:102E000001EB0C1102D8F0BCBDE8008124425CBF8C
:102E100001F5801E9EEAC47F02D4F0BCBDE80081AB
:102E2000244238D4F0BCA1F1C041BDE8004100F01B
:102E3000ABB94FEAD22242EA43524FEAD323A7FB6F
:102E400002864FEAD02040EA415007FB03661EEAA3
:102E50000E0F4FEAD12105FB026658BFA6EB0056C4
:102E6000B6EB00564FEA520E4EEAC37E18EB0E0E3A
:102E700056EB530EBDD518EB02085E417F1C55F191
:102E80000005B6E74FF480154FF000074FF000063D
:102E90004FF00008ADE7F0BC4FF0000001F1C04179
:102EA00001F00041BDE8008111EA0C1F0CEA131586
:102EB00000D00CE013EA0C1F00F025804FF000005A
:102EC000F0BC81EA030101F00041BDE80081F0BCE3
:102ED000BDE8004181EA030100F056B9F0BCBDE84D
:102EE000004170B500F05AF8097EFC3E00F007B8CA
:102EF00081EA03014FF0000001F00041704781EAD0
:102F0000030100F041B9F0BCBDE800414FF0000002
:102F100021497047FFFDFBF9F7F5F4F2F0EEEDEB18
:102F2000E9E8E6E4E3E1E0DEDDDBDAD8D7D5D4D3C7
:102F3000D1D0CFCDCCCBCAC8C7C6C5C4C2C1C0BF13
:102F4000BEBDBCBBBAB9B8B7B6B5B4B3B2B1B0AF19
:102F5000AEADACABAAA9A8A8A7A6A5A4A3A3A2A1FD
:102F6000A09F9F9E9D9C9C9B9A99999897979695B8
:102F700095949393929191908F8F8E8E8D8C8C8B54
:102F80008B8A8989888887878685858484838382DC
:102F9000828181800000FF070000F87F0EF1020EA1
:102FA0002EF0030E5EF8046B364205D4012A43EB83
:102FB000030515F5001F12D8012841EB010C1CF583
:102FC000001F0CD80ED14FEAD17C15F5001F0CEB79
:102FD0004C0C0CF1020C08BF4CEBD37C04E04FF01E
:102FE000080C01E04FEAD37C0CEB4C0526FA05F601
:102FF00006F00706B6F1040C06D20EEB860CBDE80F
:1030000070404CF0010C6047DFE80CF0090B020245
:103010004FF000414FF00000A1F5002170BD1946AE
:103020001046012851EB010418BFD4F5001484BFE9
:10303000002001F0004170BDDFF844C170B53CEAEA
:10304000111418BF3CEA131500F08F8011F1004FE6
:103050001CEA13150CEA111468BF45F0050518BFEA
:1030600011EA0C1F00F079802E4621EA4C1123EA68
:103070004C1341F4801143F48013A5F58035AC4224
:103080003DDD801A9941A4F5803609D54042C1F151
:10309000000134BFB1F10101B1F1000185F001057A
:1030A00011F4F01F08D011F4801FE8D1400041EB6B
:1030B0000101A4F58034F6E721F00041B1FA81F670
:1030C000202E04BFB0FA80FE0EF12006A6F10B06FA
:1030D000B6F1200EA4EB06440CD2C6F1200E01FA84
:1030E00006F120FA0EF641EA0601CEF1200600FABA
:1030F00006F003E000FA0EF14FF00000BFE750EADF
:10310000410E23D04FEA244EBEEB254F0FDB9942F0
:1031100008BF904204D00AD3520043EB0303B0E748
:103120004FEA1646B6EB144F08BF85F00105B4F51B
:10313000803401EB041181EAC57100DB70BD01F13F
:10314000C0414FF0000001F0004170BD4FEA4571F1
:103150004FF0000001F0004170BD1CEA131F09D0C0
:103160004FF0000001F0004170BDFFF717FF00BFF6
:10317000EDFFFF3EBDE870404FF000000149704791
:103180000000FF070000F87F0808A0F500114FEAD3
:103190003101704791EA030F10B581F000413FF50E
:1031A00005AD83F0004300F009B8000010B591EAC6
:1031B000030F48BF83F000433FF5F8AC841A71EB6E
:1031C000030C07D212198CF0004C43EB0C03001BCC
:1031D00061EB0C01DFF8A4E14FEA1154A4EB135C9E
:1031E0001EEA430F18BF9EEA445F00F0B08023EA56
:1031F0006E03524221EA0451C3EB6E0338BF5B1EDB
:10320000DCF1200E25D322FA0CFE10EB0E0043FA5F
:103210000CFE41EB0E01CCF1200E03FA0EFE10EB7A
:103220000E0051F10001CCF1200E29D412FA0EF259
:1032300001EB0451BDE8104058BF7047401C1CBF53
:10324000B2F1004F704700280CBF491C20F001006C
:10325000704712EB020E43EB030218BF4FF0010E52
:103260004EEA4202ACF1200CDCF11E0E54D943FAB6
:103270000CFE10EB0E0051F1FF31CCF11E0ED5D536
:103280000EF1010E12FA0EFE404141EB010101EB7D
:10329000445C5FEA5C5C10D910EBDE7001EB04511A
:1032A00038BFBEF1004FBDE8104018BF704700287E
:1032B0000CBF491C20F00100704730D24FEAD42CDB
:1032C00011F5001124F400641BD0B1FA81F20B3A1D
:1032D000A41AA41ED2F12003914030FA03F319433B
:1032E000904001EBCC71002C01EB0451BDE8104083
:1032F000A8BF704701F1C0414FF0000001F000414C
:103300007047B0FA80F310FA03F100D110BDE41A4F
:10331000173C4805C90AE4E701EB045110BD491008
:1033200001EB0451BDE810404FEA300002E04FF0DD
:10333000000170474A0008BF0042F8D0B2F5001FF4
:1033400028BF704701F000414FF0000070479EEA2F
:10335000445F07D011EA5E0FBDE8104004BF0021B2
:1033600000207047BDE8104070B5FFF717FE00BFA2
:1033700040DFF63E83F00041104670470000E0FF5A
:1033800043004FEAD30C4FEA3C0C43401FBF4007B9
:103390000CF1605113F0FE4F70471CF0006F03D129
:1033A00000200CF0004170470CF0004343EA5070DD
:1033B00010B540EACC0000F0CCF900BF000000924C
:1033C0004FEA0001FFF7E0BE4FF000414FF0000070
:1033D000A1F500217047000090EA010F48BF81F07D
:1033E000004100F10882421A3CBF801A89184FEA56
:1033F000D0524FF07F4C1CEA410FA2EBD15318BFC3
:103400009CEA026F00F03B804FF0004C4CEA002039
:103410004CEA012121FA03FC10EB0C0C1ED202F144
:10342000FF325FEA1C2040EBC25038BF70471CF0EF
:103430007F0F4FEA400C18BFBCF17F4F38BF704779
:10344000C3F12003994008BF20F00100BCF17F4F79
:1034500038BF7047A0F1C04000F0C1B94FEA3C004E
:10346000000A40EBC25028BF1CF0FF0F4FEA400C8F
:10347000E6D018BFBCF17F4F38BF7047EAE79CEA3F
:10348000026F05D010EA5C0F08BF00F000407047E3
:1034900010B500F05EF900BF64FBBE3E4FF47F0C38
:1034A0001CEAD0121EBF1CEAD11392EA0C0F93EA59
:1034B0000C0F00F0858090EA010F48BF42F4807243
:1034C00040F4000C41F400002CF07F4120F07F40DC
:1034D00000B58142A2EB03020FF2081CACEB504E88
:1034E000C0F100009EF800E04FEA4E0E00FB0EFC1B
:1034F00038BF49004FEA2C1C02F5FA020CFB0EF310
:103500004FEACE1E4FEA112C4FEAC1210EEB635E4B
:1035100042EB22420EFB0CFC4FEA1C5300FB031152
:103520004FEA112C4FEA01310EFB0CFC4FEADC4C48
:1035300000FB0C11C14228BF09184CEB03335DF8A6
:1035400004EB10EB410143EBC250B2F57C0F38BFE6
:10355000704729D512F0F00F1CBF00F1C04000F0F9
:1035600000407047008182838485868788898B8CA0
:103570008D8E8F919293959697999A9C9D9FA0A2DC
:10358000A3A5A7A8AAACAEB0B2B3B5B7B9BCBEC02C
:10359000C2C5C7C9CCCED1D4D7D9DCDFE2E6E9ECCD
:1035A000F0F3F7FAFE0000004FEA400C0CF1807CCB
:1035B000BCF17E4F28BF7047B0F1C04000F00FB99A
:1035C00090EA010F0CEAD11348BF42F480726245C1
:1035D00038BF634507D213F47F0F16D080EA01008D
:1035E00000F00040704710B500F0B3F8097EFC3ED3
:1035F00000F005B880EA010000F00040704780EA62
:10360000010000F0004000F0EAB812F47F0F04BFA0
:103610000248704780EA010000F0E1B80000C07F76
:1036200010F0004148BF4042B0FA80F310FA03F2B4
:10363000C3F19D030BD051EAC35101EB1220530695
:1036400038BF704700F1010008BF20F0010070474B
:103650004FF47F0C1CEAD0121EBF1CEAD11392EA71
:103660000C0F93EA0C0F00F0478090EA010F48BF5F
:1036700042F480724FF0004C4CEA00204CEA0121E9
:1036800002EB0302A0FB0113A2F50002002918BF00
:1036900043F001035B0028BF4FEA330342EB2242B1
:1036A0005FEA132C4CEBC2502EBFBCEB436FB2F55C
:1036B0007C0F70474FEA036CBCF1004F08BF20F04D
:1036C0000100B2F57C0F38BF70470BD582F0FF02C6
:1036D00012F5803FC8BF704700F1C040D8BF00F06E
:1036E0000040704700F5000C5FEA4C0C48BF704783
:1036F000B0F1C04000F073B890EA010F0CEAD113AA
:1037000048BF42F48072624538BF634504D280EA04
:10371000010000F00040704710B500F01AF800BF3B
:103720008900013E00F007B800F009B85FEA410CDB
:103730005FEA1C6C08D080EA010000F050B85FEA34
:10374000400C5FEA1C6CF6D14FF00040A0F5800001
:1037500070470EF1020E2EF0030E5EF8044B244269
:1037600004D44FEA4102B2F17F4F11D84FEA40032F
:10377000B3F17F4F0CD80ED14FEAD07CB2F17F4F1E
:103780000CEB4C0C0CF1020C08BF4CEBD17C04E0B0
:103790004FF0080C01E04FEAD17C0CEB4C0324FA0B
:1037A00003F404F00704B4F1040C06D20EEB840C0D
:1037B000BDE810404CF0010C6047DFE80CF0070852
:1037C00002024FF00040A0F5800010BD0846420004
:1037D00018BFD2F1807288BF00F0004010BDFF21F9
:1037E00041EAD050C005704790EA010F48BF81F010
:1037F00000413FF5F8AD421A04D882F00042A0EB38
:10380000020011444FEAD0524FF07F4C1CEA410FA6
:10381000A2EBD15318BF9CEA026F4AD04FF0004C84
:103820004CEA00204CEA012121FA03FCB0EB0C0C1D
:103830000FD412F0FE0F36D05FEA4C001DD50012F7
:1038400040EBC25038BF70471CF03F0F18BF7047A5
:103850000BE0A2F101025FEA1C2040EBC25038BF2E
:1038600070471CF07F0F18BF7047C3F120039940C9
:1038700014BF401E20F00100704780084FEA122359
:1038800008BF7047B0FA80FCA2EB0C02CCF1280C08
:1038900060FA0CF093EA122F04BF00EBC25070479D
:1038A0004FEAC3707047130A5FEADC1008BF704725
:1038B000F6E79CEA026F04D010EA5C0F08BF002014
:1038C000704710B5FFF745FF40DFF63E81F000403E
:1038D0007047FCF7D2BDFF000405020103FF01029F
:1038E00002030405060708090A0B0C0D0E0F101041
:1038F00000000000000000000102030406070809A0
:10390000000000000102030402400000000000A0CB
:103910000000000005400000000000C8000000009A
:103920000C4000000000409C000000001940000016
:103930000020BCBE0000000034400000BFC91B8E48
:1039400000000004B5400000504BCFD06607E2CF26
:10395000010000006C4100003E8251AADFEEA73456
:1039600001000000D9420000DCB5A0E23A301F9708
:10397000FFFFFFFFB4450000FD25A0C8E9A3C14F2C
:10398000FFFFFFFFFF3F000000000080000000007D
:10399000FF3F00000000008000000000D839000850
:1039A000000000203000000028010008083A00084C
:1039B0003000002038070000440100081C0000000F
:1039C00043000000F8FFFFFF0C0000000E000000A5
:1039D0000F0000002E000000000000002A00000080
:1039E00000000000000000000000000000000000D7
:1039F00000000000000000000100000010000000B6
:083A0000000000000024F400A6
:04000005080000ED02
:00000001FF
