:020000040800F2
:10000000C806002005010008133400083530000838
:1000100011340008BD100008653C00080000000015
:10002000000000000000000000000000FB35000898
:10003000F710000800000000F9350008FD35000841
:100040001B0100081B0100081B0100081B01000820
:100050001B0100081B0100081B0100081B01000810
:100060001B0100081B0100081B010008C11000084B
:100070001B0100081B0100081B0100081B010008F0
:100080001B0100081B0100086D0F00081B01000880
:100090001B0100081B0100081B0100081B010008D0
:1000A0001B0100081B0100081B0100081B010008C0
:1000B000713600081B0100081B0100081B01000825
:1000C0001B0100081B0100081B0100081B010008A0
:1000D0001B0100081B010008593C00081B01000817
:1000E0001B0100081B0100081B010008DFF810D0ED
:1000F00000F01CFD0048004769520008AFF3008083
:10010000C806002005480047FEE7FEE7FEE7FEE7D9
:10011000FEE7FEE7FEE7FEE7FEE7FEE7ED0000088C
:10012000202A04DB203A21FA02F00021704721FA4C
:1001300002F3D040C2F120029140084319467047B3
:10014000D2B201E000F8012B491EFBD27047002219
:10015000F6E710B513460A4604461946FFF7F0FFC6
:10016000204610BDF0B480EA0102D40F4200B2EB89
:10017000410F02D20246084611464A0042D0C30D42
:10018000DDB2C1F3C752AD1A202D35DAC1F3160125
:1001900041F4000204B15242C5F1200602FA06F110
:1001A0002A411044B3EBD05F23D0C4B1012DA0EBA2
:1001B000C35009DCF0BC4FF0004202EAC352DBB28C
:1001C00000F5000000F0B3BB400000F1807000EBD0
:1001D000C350A0F1807040EAD170490009E049089D
:1001E00041EAC071A0EBC35000F50000400800EBED
:1001F000C350F0BC00F092BB6142012202EB41010E
:10020000001BF6E7F0BC704781F00041AAE780F0E0
:100210000040A7E780EA010210B502F00043400069
:1002200022D04A001FD0010E01EB1261C0F356002C
:10023000C2F3560240F4000042F40002A0FB022088
:1002400000047F39140400D0401C50EA124001D44D
:100250004000491EC2B20C0604EBD010401C4008FE
:10026000802A02D003E0002010BD20F00100002908
:1002700000DA0020184310BD30B480EA010202F019
:10028000004530F0004221F0004013D090B1C30D82
:10029000D40DC2F31601C0F31600E41A41F40001B4
:1002A00040F400027D34914201D3641C00E0490017
:1002B000002C02DA30BC002070474FF4000000230D
:1002C000914201D3891A034340084FEA4101F7D113
:1002D00051B1914202D14FF0004105E002D24FF0FE
:1002E000010101E06FF0010103EBC450284430BC70
:1002F00000F014BB420005D0C0F3C75252429142F5
:1003000001DC0020704700EBC15070472DE9FE4F23
:10031000804681EA0300C00F0C46009021F00041A6
:1003200023F00045B8EB0200A94105D24046214622
:1003300090461C460B46024623F00040104347D02F
:10034000270DC7F30A00C3F30A510290401A019027
:1003500040286BDAC3F3130040F4801B00989246E8
:1003600020B10023D2EB030A63EB0B0B0198594633
:10037000C0F14002504600F062FA06460D46504673
:100380005946019A00F06AFA10EB08006141002416
:1003900087EA115284EAE7731A4340D0009A62B3A5
:1003A000019A012A4FEA075215DC001B61EB02019A
:1003B0004FF0004202EA0752CDE90042001C41F52D
:1003C000801132462B4600F0EFFA03B0BDE8F08F03
:1003D00040462146F9E7001B61EB0201001C41F594
:1003E000801300185B412018A2F5001747EB0301AA
:1003F00040EAD570B6196D4111E06D084FEA360636
:1004000045EAC0754FEA0752001B61EB0201001C70
:1004100041F5801149084FEA300000195141324638
:100420002B4603B0BDE8F04F00F0AFBA00980122B0
:1004300040000023D0EB020263EBE07300982146FA
:100440004FEAE074B8EB000061EB0401E9E783F0E8
:1004500000435BE781F0004158E72DE9FE4F81EA58
:10046000030404F0004421F0004100944FF0000B1D
:1004700023F0004350EA01045ED052EA03045BD04B
:10048000C3F30A54C1F30A552C44A4F2F334019483
:10049000A0FB0254C1F3130141F48011C3F3130311
:1004A00043F4801301FB024400FB034E840A970AC5
:1004B00044EA815447EA8357A4FB076802958D0AF2
:1004C00005FB07854FEA932C04FB0C542705029D7E
:1004D0004FEA065847EA1637B5EB08056EEB070CEE
:1004E000870E920E47EA811742EA8312A7FB0201A8
:1004F000B6EB0B0164EB00042B0D43EA0C335E18E2
:1005000044EB1C50DA465146E7FB0201C5F31304E5
:100510004FEA0B3343EA14534FEA0432019C43EA97
:100520000603A4F10C040294009CCDE900B400F091
:100530003BFA03B0BDE8F08F00200146F9E72DE952
:10054000F04D81EA030404F0004B21F0004514460D
:100550004FF0000A23F0004150EA050220D054EA8F
:1005600001021DD0C5F30A570246C5F31303C1F3B8
:100570001300C1F30A5640F4801543F48013A7EB2F
:100580000608101BD64608F2FD3873EB050002D3AF
:1005900008F1010801E092185B41B8F1000F03DA9D
:1005A00000200146BDE8F08D00204FF48011064682
:1005B00084460EE0171B73EB050705D3121B63EB94
:1005C000050306434CEA010C49084FEA3000921833
:1005D0005B4150EA0107EDD152EA030012D082EAF2
:1005E000040083EA0501084305D0101BAB4106D285
:1005F0000122002306E000224FF0004302E06FF0EA
:10060000010253101AEB06004CEB085110EB0A00E4
:1006100041EB0B01BDE8F04D00F0B7B9C10F80EA26
:10062000E0700844CA079623002100F080B99623A1
:100630000022114600F07BB90EB5C10F80EAE070D0
:100640000844CA07002140F233438DE80E000A46F1
:100650000B4600F0A9F903B000BD0EB540F23341DE
:1006600002910021CDE900110A460B4600F09CF9E9
:1006700003B000BD20F00040C10DC0F3160040F4EF
:1006800000007F2901DA00207047962903DCC1F1C0
:100690009601C840704796398840704770B5C1F3DD
:1006A0000A5201F000450024C1F3130140F2FF3368
:1006B00041F480119A4201DA002070BD40F23343C8
:1006C0009A42A2F2334203DC5242FFF729FD00E0D6
:1006D00090402C43F1D0404270BDC1F30A5210B596
:1006E000C1F3130140F2FF3341F480119A4201DA61
:1006F000002010BD40F233439A42A2F2334203DCA1
:100700005242FFF70DFD10BD904010BD00F00042B9
:1007100030F000400AD0C10D01F56071C0F3160041
:1007200042EA0151C20840071143704700200146C8
:100730007047000030B5041E71F1000404DB4FF077
:100740000044404264EB0101141E73F1000405DB18
:100750001C464FF00043524263EB0403994208BF2A
:10076000904230BD01F0004330B421F0004150EA26
:10077000010206D00A0DA2F56072C1F31301002A2E
:1007800002DC30BC00207047440F44EAC104C100C1
:10079000E01830BC00EBC25000F0C0B8002801DB0C
:1007A000C0F10040002901DBC1F1004188427047DF
:1007B00030B50B46014600202022012409E021FA31
:1007C00002F59D4205D303FA02F5491B04FA02F52E
:1007D0002844151EA2F10102F1DC30BD2DE9F05FC5
:1007E0000546002092469B468846064681464024A0
:1007F0001BE02846414647462246FFF791FC5346F8
:100800005A46C01A914110D311461846224600F0AC
:1008100016F82D1A67EB01084F46224601200021E9
:1008200000F00DF817EB00094E41201EA4F1010461
:10083000DFDC484631462A464346BDE8F09F202A81
:1008400004DB203A00FA02F1002070479140C2F127
:10085000200320FA03F3194390407047202A06DB57
:10086000CB17203A41FA02F043EAE07306E041FA7E
:1008700002F3D040C2F1200291400843194670476C
:100880000FB4002300B589B00CA900910B996FF04B
:100890000042CB601E4B06931E4B07930423CDE909
:1008A00001321D4A089202466B46002000F0EAF928
:1008B00009B05DF814FB70B586B006464FF0FF3006
:1008C0000091CDE90101002015460C460490324606
:1008D000694604A8FFF7D4FF02460498211825B101
:1008E00008B1084600E020462860049800280DD092
:1008F000002A02DD0098884208D0081B0094CDE948
:1009000001043246694604A8FFF7BAFF06B070BD7D
:10091000BD0E0008DB0E0008510B00080029A8BF1F
:100920007047401C490008BF20F00100704710B418
:10093000B0FA80FC00FA0CF050EA010404BF10BCCD
:10094000704749B1CCF1200421FA04F411FA0CF1FA
:1009500018BF012121430843A3EB0C01CB1D4FEA33
:1009600000614FEA102042BF002010BC704700EB2E
:10097000C35010440029A4BF10BC7047401C49005C
:1009800008BF20F0010010BC704710B5141E73F1B1
:10099000000408DA401C41F1000192185B411A433F
:1009A00001D120F0010010BD2DE9F04D92469B468B
:1009B00011B1B1FA81F202E0B0FA80F22032904631
:1009C000FFF73DFF04460F4640EA0A0041EA0B01EB
:1009D00053465A46084313D0114653EA010019D032
:1009E000C8F140025046FFF79BFB05460E465046B5
:1009F00059464246FFF723FF084305D0012004E093
:100A000020463946BDE8F08D0020054346EAE076F1
:100A10002C4337430A986305E40AA0EB0800002240
:100A2000FD0A44EA47540A3002D500200146E9E7AE
:100A3000010510196941DDE9084500196941BDE862
:100A4000F04DA2E72DE9FE4FC3F30A5701F0004530
:100A50000024C1F30A56C3F31303C1F3130143F493
:100A6000801312EB020AA64641F48011009543EB75
:100A7000030CA7F1010B16E0B0EB0A0061EB0C01CF
:100A8000071E71F1000707DA4FF00008D0EB0800ED
:100A900085F0004568EB0101171A73EB0107EBD3F2
:100AA000761E001849415E45F6DA50EA010209D087
:100AB000CDE900E5002213460296FFF775FF03B06B
:100AC000BDE8F08F20460099F9E7C1F30A52C1F35F
:100AD000130140F2FF3341F480119A4202DA002000
:100AE0000146704740F233439A42A2F2334202DC9D
:100AF0005242FFF715BBFFF7A2BE000030B5041E3F
:100B000071F1000404DB4FF00044404264EB01014A
:100B1000141E73F1000405DB1C464FF000435242E3
:100B200063EB04038B4208BF824230BD064C074D85
:100B300006E0E06840F0010394E8070098471034AD
:100B4000AC42F6D3FFF7D6FAF85C0008185D00084F
:100B5000C0B24FF4F05100F0E9B900002DE9FF4FA9
:100B6000087883B09946FF2805D0491C2D2804D069
:100B70000024002008E000200BE00124F9E700EB4E
:100B8000800003EB4000491C0B78FF2BF7D104B128
:100B9000404200230293147819461D462D2C01D0A3
:100BA0002B2C04D1521C2D2C13D000240294AA46C5
:100BB0001478FF2C0FD00A25A3FB057801FB0581D3
:100BC0004FF0000C03FB0C11521CE3194AEB01011E
:100BD000EEE70124EAE7814453EA010002D019F567
:100BE000C87F06DA03980021C0E9001107B0BDE80C
:100BF000F08F0025AE4E2F46DFF8B882184600F081
:100C0000A9F9CDE90001B9F1000002DAC9F1000447
:100C100000E004460023A74A1AEB030B42EB045AF8
:100C200012E0E00707D02A46334638464146FFF730
:100C300014FC074688462A46334610461946FFF7F5
:100C40000CFC05460E466410002CEAD1DDE90001DB
:100C5000B9F1000F5A46534606DAFFF770FC3A46E0
:100C60004346FFF76CFC05E0FFF7F7FB3A464346C7
:100C7000FFF7F3FB029A0AB181F00041039AC2E93F
:100C80000001B3E72DE9FF4F1F468DB0D7E90146BC
:100C90004FF0FF382E2045464FF000090B90B96900
:100CA0006D1C0E988847396A824688470028F6D11D
:100CB000BAF1FF3F0AD024F4D064002E11DDBAF15E
:100CC0002B0F08D0BAF12D0F0BD102E0404611B026
:100CD0008DE744F48064B9696D1C0E98884782469C
:100CE000761E6946600501D52D2000E02B208DF889
:100CF000000001F1010B0DF1200809E0B9696D1C3C
:100D00000E98884782460F9844F40074761E05605A
:100D1000002E02DDBAF1300FF0D00B998A453ED19A
:100D200044F0800406E00F99681CA9F1010944F41D
:100D300000740860B9696D1C761E0E98884782465B
:100D40003028F0D02BE00B998A4505D1200603D43A
:100D500044F08004761E18E0504603F037F908B3DB
:100D60000DF11301761E44F400748B4508D2AAF1EC
:100D700030000BF8010B200607D5A9F1010003E0B4
:100D8000200602D409F101008146A00502D50F9981
:100D9000681C0860B9696D1C0E9888478246002E51
:100DA000D1DC53E0002E51DDBAF1650F02D0BAF16B
:100DB000450F4BD1A00549D5B9696D1C24F4407489
:100DC000761E0E9888478246002E0CDD2B2804D014
:100DD000BAF12D0F07D144F48074B9696D1C0E98D7
:100DE00088478246761EE00501D52D2100E02B21A3
:100DF00008F8011BCDF82C8021E00DF12901761EA9
:100E000044F4007488450CD2AAF1300010F0FF00C1
:100E100088F8000002D10B99884509D908F101082A
:100E200006E0E00501D5244801E042F20F7081465A
:100E3000B9696D1C0E98884782460F980560002E90
:100E400004DD504603F0C2F80028D6D1F9690E98A7
:100E50008847FF208BF8000088F8000000200690EB
:100E600007904B466A4608A906A8FFF777FEA0053B
:100E700002D46FF001002AE714F0240F0AD0E00733
:100E800014D1DDE906123868031D3B600068C0E933
:100E900000120BE0DDE90601FFF764FC0146E00704
:100EA00004D13868021D3A600068016028460EE7E8
:100EB000000014400000F03FF1D8FFFF426842B14B
:100EC000016811F8013B23B1521EC0E90012184617
:100ED00070470121C160881E704742685AB1C368DB
:100EE000016843B983688B4205D0491E521CC0E992
:100EF0000012002070474FF0FF30704770B521F0AE
:100F0000004303430CD0C1F30A550024D5EB04057C
:100F100064EB0403D617AD1AB34102DB002001468F
:100F200070BD201841EB025170BD00007F2801D92F
:100F3000002208E0064A02EB5002C007127800D1F6
:100F4000120902F00F020120904008407047000093
:100F5000B85C00080EB540F2334202920022CDE99F
:100F600000221346FFF720FD03B000BD014800F04A
:100F700075B90000C400002070B50446006881689F
:100F8000C943C90717D1816821F00101816000F0D0
:100F9000C3FD05460AE000BF00F0BEFD401B02286D
:100FA00004D920688068C043C00706D020688068E4
:100FB000C043C007F0D0002070BDA06A40F0100010
:100FC000A062E06A40F00100E062012070BD10B54F
:100FD0000146406A826A12F0500F05D0006A026B27
:100FE000BDE8104008461047816A41F400718162F3
:100FF00001688968C1F3424107290CD1017B51B9CD
:10100000816A21F480718162816AC90403D4816A92
:1010100041F00101816200F00BF910BD10B5406A8A
:10102000816A41F040018162C16A41F00401C162FC
:1010300000F013F910BD10B5406A00F00DF910BDB5
:10104000F8B500260446009600688168C943C907C0
:101050002DD0816841F00101816016481649006871
:10106000B0FBF1F000E0401E00900028FBD100F042
:1010700053FD054616E000BF00F04EFD401B022860
:1010800010D920688068C043C0070BD0A06A40F028
:101090001000A062E06A40F00100E06284F8246081
:1010A0000120F8BD20688068C043C007E4D100205B
:1010B000F8BD00002400002040420F00FEE70000C1
:1010C000014800F01FBB0000F400002030B590F88C
:1010D00040500124AC40C56B6C6004686360436899
:1010E000102B036803D099600068C26030BD9A601D
:1010F0000068C16030BD704772B6FEE770B54FF44E
:101100000041094800F0FEFC084D44000821284633
:1011100000F0F8FC20434006040E2915284600F094
:10112000F1FC204370BD000000080140000C0140AC
:1011300070470000F8B50024009490F8242025465C
:10114000012A12D0012280F824204A681F23072A8E
:101150000DD20668776B521E02EB820293409F43CA
:101160000B6893401F43776319E00220F8BD0668BF
:101170000D2A0AD2376BD21F02EB820293409F43A3
:101180000B6893401F43376309E0F76A0D3A02EB9F
:10119000820293409F430B6893401F43F7620A68A3
:1011A000072306680A2A0AD3F7680A3A02EB4202C2
:1011B00093409F438B6893401F43F76008E0376973
:1011C00002EB420293409F438B6893401F43376179
:1011D0000A68102A01D0112A20D1124B02689A42C3
:1011E00017D193681B0219D4936843F400039360EA
:1011F0000968102912D10C490C4A0968B1FBF2F1B7
:1012000001EB8101490000E0491E00910029FBD15A
:1012100004E0816A41F020018162012480F82450B9
:101220002046F8BD002401402400002040420F0069
:10123000074988420AD10749A1F110000A8843886A
:10124000D21A028149888288891A41817047000038
:10125000C4000020100000207047704770B504469D
:10126000006806684568A90625D5B10723D5A16A97
:10127000C90603D4A16A41F40071A1628168C1F377
:101280004241072910D1217B71B9416821F0200129
:101290004160A06A20F48070A062A06AC00403D4F8
:1012A000A06A40F00100A0622046FFF7C1FF21685C
:1012B0006FF01200086028062ED570072CD5A06AA2
:1012C000C00603D4A06A40F40050A0622068816880
:1012D000C1F30231072909D04168490515D4816855
:1012E000C1F34241072910D1217B71B9416821F036
:1012F00080014160A06A20F48050A062A06AC0050D
:1013000003D4A06A40F00100A0622046FFF710FF5E
:1013100021686FF00C00086068060CD5F0070AD051
:10132000A06A40F48030A062204600F093F8216863
:101330006FF00100086070BD2DE9F0414FF000072B
:1013400004003D467ED0A06A002628B9E66284F8F3
:101350002460204600F080F82046FFF70DFEA16AC9
:10136000C90600D420B1A06A40F01000A06269E074
:10137000A16A21F4885141F00201A1626268E16929
:10138000237B0A4347EA43010A43A1684FF480776D
:10139000B94209D0012907D05FF0000194F814C0C8
:1013A000BCF1010F02D00AE03946F7E7F3B1A36AB6
:1013B00043F02003A362E36A43F00103E36223687E
:1013C000D3F804C02CF4694C4CEA010CC3F804C0F7
:1013D00021688B68DFF870C003EA0C0313438B604D
:1013E000A168B9420BD0012909D00CE0DFF85CC03C
:1013F000A3690CEB43330B4343F40061DFE7218A1D
:101400000D05A5F580152168CB6A23F470032B43E5
:10141000CB62216889680E4B1940914208D1E6627F
:10142000A16A21F0020141F00101A162BDE8F08151
:10143000A06A20F0020040F01000A062E06A40F0D4
:101440000100E0620120F1E7FDF7E1FF00E0FFFFAE
:10145000FE0E1FFF7047000070B586B000250646DF
:10146000009501950295039500682549884244D16D
:101470002449886940F400708861886900F400702C
:101480000490886940F010008861886900F01000BD
:101490000490886940F0040088618869032400F0A2
:1014A000040004900220CDE900046946164800F0CB
:1014B00039FA0120CDE900046946144800F032FAF7
:1014C000144C1348C4E900058020C4E902504000D0
:1014D00020618000C4E905052046E56100F0BCF903
:1014E00008B1FFF709FE346200221146122066623D
:1014F00000F07EFB122000F06DFB06B070BD000016
:10150000002401400010024000100140000801408A
:1015100008000240F40000202DE9F0478946044607
:101520003B4900683B4F0E1D9046884201D0B842AF
:1015300007D1306810F4702F03D001252846BDE88C
:10154000F08794F8240001280CD0012084F82400AE
:101550002046FFF775FD05004FF0000004D084F829
:101560002400EBE70220EAE7A16A40F6016291431A
:1015700041F48071A1622168B94218D1326812F435
:10158000702F14D0A16A41F48011A162316849051D
:1015900005D5A16A21F4005141F48051A162A16AEC
:1015A000C9040AD5E16A21F00601E16206E0A26AF7
:1015B00022F48012A2624968E9E7E06284F824001C
:1015C000216A15488862216A1448C862216A144851
:1015D000086321686FF0020008602068816841F4A8
:1015E00080718160216843464A464C31206A00F090
:1015F00061F920688168C1F342410729816803D0FD
:1016000041F48011816099E741F4A001FAE70000FC
:101610000024014000280140CF0F000837100008C7
:101620001D10000810B590F821100022022905D0E5
:101630000421816380F82020012010BD01680B681F
:1016400023F00E030B6001680B6823F001030B60AD
:1016500090F84030C46B012101FA03F3636080F815
:10166000211080F82020104610BD000010B590F821
:1016700021100024022903D00421816301243DE0CC
:1016800001680A6822F00E020A6001680A6822F006
:1016900001020A601A4A0168914201D1012121E048
:1016A000174A1432914201D110211BE0144A28320A
:1016B000914201D1891515E0114A3C32914201D184
:1016C00089140FE00E4A5032914202D14FF480311A
:1016D00008E00B4A6432914202D14FF4801101E0DC
:1016E0004FF08071064A083A5160012180F82110BC
:1016F000002180F82010416B01B18847204610BDC1
:10170000080002402DE9F05FC16B0C6801680B68AE
:10171000D0F840C0042202FA0CF2494DDFF824A1AF
:10172000494E4A4FDFF828B1DFF828E122422CD099
:101730005A072AD50A68920603D40A6822F00402DE
:101740000A600168A94201D1042219E0514501D182
:10175000402215E0B14202D14FF4806210E0B9425C
:1017600002D14FF480420BE0594502D14FF4802260
:1017700006E0714502D14FF4800201E04FF0806233
:101780002F4908394A60C16A3BE04FF0020808FA65
:101790000CF818EA040F4FF000094FF0010235D0A1
:1017A0005FEA837832D50B689B0605D40B6823F07B
:1017B0000A030B6080F821200168A94201D10222AE
:1017C00019E0514501D1202215E0B14202D14FF478
:1017D000007210E0B94202D14FF400520BE05945BB
:1017E00002D14FF4003206E0714502D14FF40012ED
:1017F00001E04FF00072124908394A6080F82090E9
:10180000816A00291AD0BDE8F05F0847082505FA6B
:101810000CF5254212D01B0710D50B6823F00E03E0
:101820000B6090F84010C36B02FA01F159608263BB
:1018300080F8212080F82090016BE2E7BDE8F09F5E
:10184000080002401C0002403000024044000240F8
:10185000580002406C00024030B528B308C8134954
:1018600014221944B1FBF2F18900C163104981636C
:10187000022141771A6843F6F0718A43D0E90014D7
:101880002143D0E902452C432143046921434469A3
:1018900021438469214311431960002141630122DE
:1018A00042770177084630BD012030BDF8FFFDBF0B
:1018B0000000024070B5044690F820000025012881
:1018C0000CD0012084F8200094F821600020012E23
:1018D00006D084F820000225284670BD022070BD85
:1018E000022684F82160A0632068066826F00106BD
:1018F00006602046FFF7EAFBE06A002820680168DE
:1019000002D041F00E0106E021F0040101602068E0
:10191000016841F00A0101602068016841F001019D
:101920000160D9E72DE9F84FDFF8B8910024A9F15B
:10193000040B23460F2709F1040AABF1040EC9E09A
:101940000125A5402A40AA427DD1674ED1F804C0A6
:10195000ACEB0608B44532D014DCBCF1030F3AD02E
:1019600009DCBCF1000F2AD0BCF1010F1CD0BCF186
:10197000020F31D11DE0BCF1110F17D0BCF1120FD5
:101980002AD119E0B8F5881F19D006DCB8F5803FD8
:1019900015D0B8F5801F1FD111E0B8F5001F0ED08B
:1019A000B8F5041F18D10AE0CB6815E0CB681B1D01
:1019B00012E0CB6808330FE0CB680C330CE08B6887
:1019C0002BB1012B4FF0080303D0456104E0042341
:1019D00002E0056100E00023FF2A01D8064601E08D
:1019E00000F104064FEA840501D9A5F12005D6F8D7
:1019F000008007FA05FC28EA0C0803FA05F548EA16
:101A00000508C6F800804D68ED0062D5374DAE6917
:101A100046F00106AE61AD6924F0030605F001054C
:101A20000095334D06EB050CDCF80850A607360F81
:101A300007FA06F825EA0805DFF8B880404503D123
:101A40004FF0000817E044E0DFF8AC80404502D1D9
:101A50004FF001080FE0DFF8A480404502D14FF0BD
:101A6000020808E0DFF89880404502D14FF00308F3
:101A700001E04FF0040808FA06F848EA0508CCF837
:101A800008804D68D9F80060ED024D4601D5164337
:101A900000E096432E604D68DAF80060AD025546CE
:101AA00001D5164300E096432E604D68DBF80060D8
:101AB000AD035D4601D5164300E096432E604D68A8
:101AC000DEF80060ED03754601D5164300E096434D
:101AD0002E60641C0D682A46E5407FF431AFBDE8F6
:101AE000F88F0000080401400000111000100240AF
:101AF0000000014000080140000C014000100140BE
:101B0000001401408068084000D0012070470AB1ED
:101B1000016170470904FBE70148806870470000D5
:101B200018000020024881680278114481607047E3
:101B300018000020074810B5016841F0100101604D
:101B4000032000F075F80F2000F006F800F024F8EC
:101B5000002010BD0020024070B50D4D04464FF42A
:101B60007A712878B1FBF0F00A490968B1FBF0F00E
:101B700000F058FB48B9102C07D200222146501E15
:101B800000F036F800206C6070BD012070BD0000D0
:101B900018000020240000200C4808B5816941F09D
:101BA00001018161816901F001010091C16941F088
:101BB0008051C161C06900F08050009004484168C4
:101BC00021F0E06141F00071416008BD0010024069
:101BD00000000140002809DB00F01F0201219140B4
:101BE0004009800000F1E020C0F8001170470000BB
:101BF000F0B40E4B1B680C46C3F30223C3F1070578
:101C0000042D00D90425191D072901D2002300E065
:101C1000DB1E012606FA05F1491E214099409E402F
:101C2000761E16403143F0BC02F042B80CED00E0E5
:101C3000064900F0070208684FF6FF03184040EA23
:101C40000220034A10430860704700000CED00E0DA
:101C50000000FA052DE9F84305460078354CC00729
:101C600054D0E0690026C00008D4E06940F08050FC
:101C7000E061E069012600F0805000902E48016884
:101C8000C90512D40168804641F480710160FFF7F4
:101C900043FF074605E000BFFFF73EFFC01B642877
:101CA00023D8D8F80000C005F6D5206A10F440709B
:101CB00021D0A98801F4407181421CD0206A1F49BB
:101CC000012220F440700A6000220A602062C007EE
:101CD00011D0FFF721FF074641F2883808E000BF26
:101CE000FFF71AFFC11B414502D90320BDE8F88365
:101CF000206A8007F4D5206A696820F440700843A0
:101D000020621EB1E06920F08050E06128788007F1
:101D100005D56068A96820F44040084360602878D1
:101D2000C00605D56068E96820F48000084360605B
:101D30000020DBE7001002400070004040044242F7
:101D40002DE9F0470F46050061D0434E306800F0A2
:101D50000700B84209D2306820F0070038433060ED
:101D6000306800F00700B84251D128683B4C810729
:101D700012D5400703D5606840F4E06060602878C1
:101D8000000703D5606840F4605060606068A9682F
:101D900020F0F000084360602878C00728D0686809
:101DA000012810D02168022810D0890700292EDAD6
:101DB000616821F0030101436160FFF7ADFE8046D9
:101DC00041F288390DE021688903EFE78901EDE7E9
:101DD000FFF7A2FEA0EB0801494502D90320BDE8A8
:101DE000F0876068696800F00C00B0EB810FEFD1FC
:101DF000306800F00700B8420BD9306820F00700C7
:101E000038433060306800F00700B84201D001204C
:101E1000E5E72878400705D56068E96820F4E060C8
:101E2000084360602878000706D56068296920F4B7
:101E3000605040EAC100606000F03EF86168084A06
:101E4000C1F30311515CC8400649086006480068A8
:101E5000FFF782FE0020C2E700200240001002408F
:101E6000D2580008240000201C000020014800680F
:101E700070470000240000200448054900684968B4
:101E8000044AC1F30221515CC8407047240000207D
:101E900000100240E25800080448054900684968FB
:101EA000044AC1F3C221515CC8407047240000209D
:101EB00000100240E25800080E4A51680E4801F036
:101EC0000C03042B11D0082B0FD10C48C1F3834312
:101ED000C903C05C0AD55168084AC1F34041921E4B
:101EE000515C054A5043B0FBF1F070470449484348
:101EF000704700000010024000127A00C25800082B
:101F000000093D002DE9F84F040070D02078C04D45
:101F1000C00749D06868C0F38100012807D068680D
:101F2000C0F38100022809D16868C00306D528687B
:101F3000800339D560680028E7D035E06068B0F5E7
:101F4000803F0BD010B1B0F5A02F11D0286820F43D
:101F500080302860286820F4802002E0286840F45F
:101F600080302860606890B1FFF7D6FD06460AE031
:101F7000286840F480202860F0E700BFFFF7CCFD20
:101F8000801B642873D828688003F7D50CE0FFF71E
:101F9000C3FD064605E000BFFFF7BEFD801B6428B9
:101FA000F0D828688003F7D420789A4E80074FF045
:101FB00001094FF0000839D5686810F00C0F07D000
:101FC0006868C0F38100022809D16868C00306D49C
:101FD0002868800714D52069012808D110E02069FD
:101FE000B0B1C6F80090FFF797FD074605E00AE19B
:101FF000FFF792FDC01B0228C4D828688007F7D5D8
:102000002868616920F0F80040EAC10028600DE00E
:10201000C6F80080FFF780FD074604E0FFF77CFD6F
:10202000C01B022823D828688007F7D4207800072F
:102030002CD57948A169D9B1C0F80090FFF76CFDA3
:10204000074604E0FFF768FDC01B02280FD8686A46
:102050008007F7D571484FF4FA510068B0FBF1F0F2
:10206000009000BF0098411E0091FAD20EE080E07F
:10207000C0F80080FFF750FD074604E0FFF74CFD75
:10208000C01B022875D8686A8007F7D420784007FB
:1020900060D5E8690027C00008D4E86940F08050A6
:1020A000E861E869012700F0805000905C48016811
:1020B000C90513D40168834641F480710160FFF7BC
:1020C0002BFD824606E000BFFFF726FDA0EB0A00CD
:1020D00064284ED8DBF80000C005F5D5E06801287B
:1020E0000AD008B1052813D0286A20F00100286220
:1020F000286A20F0040002E0286A40F0010028620B
:10210000E06841F2883B98B1FFF706FD82460BE09C
:10211000286A40F004002862EEE700BFFFF7FCFCED
:10212000A0EB0A0159455AD8286A8007F6D50CE079
:10213000FFF7F2FC824605E0FFF7EEFCA0EB0A0198
:1021400059454CD8286A8007F6D41FB1E86920F0B9
:102150008050E861E06988B36968C1F381010229B0
:1021600044D00228C6F8608004D0FFF7D5FC0446AE
:1021700038E034E0FFF7D0FC074604E0FFF7CCFC82
:10218000C01B02282BD828688001F7D4206AB0F53C
:10219000803F05D16868A16820F40030084368607A
:1021A000D4E908010843696821F4741108436860A0
:1021B000C6F86090FFF7B0FC044606E025E000BFDB
:1021C000FFF7AAFC001B022809D828688001F7D570
:1021D0001BE000BFFFF7A0FC001B022802D9032070
:1021E000BDE8F88F28688001F4D40EE00128F7D00C
:1021F0006868226A00F48031914204D1616A00F477
:102200007010884201D00120EAE70020E8E70000D2
:10221000001002400000424280044242240000209C
:102220000070004010B5401EB0F1807F01D3012046
:1022300010BD4FF0E02460610F21601701F038FD00
:102240000020A06107202061002010BD704770476A
:1022500010B590F83C20012A22D0012280F83C20C1
:10226000CA688C6822F4407222434C6822F480626F
:1022700022430C6822F4006222430C6922F480524B
:1022800022434C6922F400522243C969002322F4FC
:1022900080420A4301684A6480F83C30002010BD47
:1022A000022010BD70B590F83C20012A26D00124F0
:1022B00080F83C40022280F83D2003685A689D68FF
:1022C00022F070060A6832435A600D4B02689A4247
:1022D00008D0B2F1804F05D00A4B9A4202D00A4B87
:1022E0009A4204D1496825F080031943916080F82F
:1022F0003D40002180F83C10084670BD022070BDB2
:10230000002C0140000400400008004010B504000B
:1023100003D094F83D0010B107E0012010BD00206B
:1023200084F83C00204600F01FF8022084F83D00AD
:10233000211D206801F0A2F9012084F8460084F8EC
:102340003E0084F83F0084F8400084F8410084F89F
:10235000420084F8430084F8440084F8450084F87F
:102360003D00002010BD000030B585B000240546BA
:1023700000940194029403940068284A28499042EA
:1023800009D1886940F400608861886900F40060C0
:10239000049005B030BDB0F1804FFAD1C86940F06B
:1023A0000100C861C86900F001000490886940F02C
:1023B00008008861886900F008000490886940F08E
:1023C000040088618869694600F0040004904FF4B5
:1023D000816000901348FFF7A5FA4FF40040CDE963
:1023E0000004694610480294FFF79CFA0F484168C0
:1023F00021F4407141F0E06141F4407141600022FC
:1024000011461C20FFF7F4FB1C20FFF7E3FB2868B4
:10241000C16841F00201C160BBE70000002C01402F
:1024200000100240000C0140000801400000014083
:1024300090F83D10012901D001207047022180F859
:102440003D100168CA6842F00102CA6000680B4989
:10245000884208D0B0F1804F05D00949884202D0A7
:102460000849884204D1816801F00701062903D098
:10247000016841F00101016000207047002C01401B
:10248000000400400008004070B5044690F83C008D
:102490000025012817D0012684F83C60022084F82A
:1024A0003D002068826822F0770222F47F42826039
:1024B0000868502838D00DDC20284FD005DC90B3B8
:1024C000102811D14AE0022070BD302846D04028A3
:1024D0000AD13BE060282FD070280DD0B0F5805F86
:1024E00003D0B0F5005F12D0012584F83D600020D4
:1024F00084F83C00284670BDCB68D1E901212068F2
:1025000001F0FFF82068816841F0770109E0CB68AD
:10251000D1E90121206801F0F4F82068816841F4D4
:1025200080418160E1E719E0CA684968206801F0EC
:10253000E3F95021206806E0CA684968206801F084
:1025400019FA6021206801F0E6F8CEE7CA68496808
:10255000206801F0D1F940212068F4E722680146A3
:102560001046F0E70268506820F080000843506091
:10257000002070470168B1F1804F04D1007F01282D
:1025800001D103F009B970472DE9F041054690F8F3
:102590003C0000260C46012810D0012085F83C00A4
:1025A00072B1042A1CD0082A2CD00C2A50D0012643
:1025B000002085F83C003046BDE8F0810220FBE7B2
:1025C000D4E90012E368286801F0A8F92868816955
:1025D00021F00C01816128688169A26811430FE034
:1025E000D4E90012E368286801F0D6F92868816907
:1025F00021F44061816128688169A26841EA022171
:102600008161D5E72868D4E9002C277B036A016A39
:1026100021F480710162C16923F4007321F0030188
:1026200041EA0C0121F0F00C39074FF400774CEA35
:10263000116107EA02221A43C16102622868C16976
:1026400021F00C01C1612868C169A26811432BE027
:102650002868D4E90021E768036AD0F820C02CF488
:10266000805CC0F820C0D0F81CC023F400532CF4C8
:10267000407C4CEA012121F4704C4FF6FF7101EAD5
:1026800007314FF4005741EA0C0107EA02321A43BE
:10269000C16102622868C16921F44061C161286892
:1026A000C169A26841EA0221C16181E710B5040055
:1026B00003D094F83D0010B107E0012010BD0020C8
:1026C00084F83C00204600F01EF8022084F83D000B
:1026D000211D206800F0D2FF012084F8460084F814
:1026E0003E0084F83F0084F8400084F8410084F8FC
:1026F000420084F8430084F8440084F8450084F8DC
:102700003D00002010BD704730B50446002551B192
:1027100004290DD0082910D094F8410094F84520E0
:10272000012811D10EE094F83E0094F84220F7E71A
:1027300094F83F0094F84320F2E794F8400094F8AE
:102740004420EDE7012A01D0012030BD022059B11B
:10275000042912D0082919D084F8410084F84500D2
:102760000C2938D0012534E084F83E0084F842007A
:102770002068C26842F0020210E084F83F0084F84A
:1027800043002068C26842F0040207E084F8400079
:1027900084F844002068C26842F00802C260012246
:1027A000206800F0A1FF0E492068884208D0B0F1EF
:1027B000804F05D00B49884202D00B49884204D192
:1027C000816801F00701062903D0016841F0010189
:1027D0000160284630BD2068C26842F01002DDE783
:1027E000002C0140000400400008004070B5044681
:1027F000006801694FF00005C943890715D4C16815
:10280000C943890711D4E91E01610120207720689E
:1028100080698007204602D0FFF7ACFE04E000F09C
:10282000BFF8204600F051F9257720680169C943B7
:10283000490717D4C168C943490713D46FF004018D
:102840000161022020772068806910F4407F2046D3
:1028500002D0FFF78FFE04E000F0A2F8204600F05F
:1028600034F9257720680169C943090716D4C1687E
:10287000C943090712D46FF00801016104202077D1
:102880002068C0698007204602D0FFF773FE04E08D
:1028900000F086F8204600F018F9257720680169D5
:1028A000C943C90617D4C168C943C90613D46FF018
:1028B00010010161082020772068C06910F4407F72
:1028C000204602D0FFF756FE04E000F069F82046EB
:1028D00000F0FBF8257720680169C943C90708D1D2
:1028E000C168C943C90704D1891E0161204600F0AF
:1028F0003BF920680169C943090609D4C168C94385
:10290000090605D46FF0800101612046FFF79EFCA7
:1029100020680169C943490609D4C168C943490609
:1029200005D46FF040010161204600F049F92068AC
:102930000169C94389060BD4C168C943890607D414
:102940006FF0200101612046BDE87040FFF77FBCB9
:1029500070BD000000B585B0002100910191029189
:10296000039100680B49884212D10B48816941F0FC
:10297000040181618069694600F0040004904FF40D
:10298000E06000900220019003900448FEF7CAFF27
:1029900005B000BD002C01400010024000080140BD
:1029A000704770B5044690F83C0000260D4601289B
:1029B0000FD0012084F83C006AB1042A1DD0082AF7
:1029C0002FD00C2A3FD00126002084F83C0030464E
:1029D00070BD022070BD206800F0A6FE20688169ED
:1029E00041F0080181612068816921F00401816161
:1029F000206881692A69114311E0206800F0BCFE5B
:102A00002068816941F4006181612068816921F455
:102A100080618161206881692A6941EA02218161BE
:102A2000D2E7206800F0D4FE2068C16941F00801B7
:102A3000C1612068C16921F00401C1612068C169D8
:102A40002A69114311E0206800F0EEFE2068C16998
:102A500041F40061C1612068C16921F48061C161F4
:102A60002068C1692A6941EA0221C161ACE710B559
:102A7000040003D094F83D0010B107E0012010BD20
:102A8000002084F83C00204600F01EF8022084F864
:102A90003D00211D206800F0F1FD012084F8460072
:102AA00084F83E0084F83F0084F8400084F8410038
:102AB00084F8420084F8430084F8440084F8450018
:102AC00084F83D00002010BD7047704710B50446E3
:102AD000022249B104290ED0082913D094F84100EC
:102AE000012816D0012010BD94F83E000128F9D12C
:102AF00084F83E200FE094F83F000128F2D184F8DA
:102B00003F2008E094F840000128EBD184F84020F1
:102B100001E084F841200122206800F0E5FD0F4922
:102B20002068884203D1426C42F40042426420682B
:102B3000884208D0B0F1804F05D00949884202D0C0
:102B40000849884204D1816801F00701062903D0B1
:102B5000016841F001010160002010BD002C01401E
:102B60000004004000080040704770B5044690F82B
:102B70003C00012812D0012584F83C50022084F842
:102B80003D00204600F072FE01004FF0000007D02B
:102B900084F83D5084F83C00012070BD022070BDD7
:102BA0002168CA6822F04002CA602168CA6822F41B
:102BB0008042CA6084F83D5084F83C00002070BD1B
:102BC0007047704770470000F8B501680446086810
:102BD000CA684B6910F00F0F4FF0000559D003F091
:102BE000010602F49077374365D0C10705D0D105BF
:102BF00003D5616C41F001016164410705D5D90736
:102C000003D0616C41F002016164810705D5D907E9
:102C100003D0616C41F004016164010707D502F043
:102C20002001314303D0616C41F008016164616CA3
:102C300000293AD0800604D5900602D5204600F03F
:102C4000F5FE20684069616CC0F38010090700D46C
:102C500060B3204600F0C3FE20684069400621D5DD
:102C60002068143050E8001F21F0400140E80012B5
:102C7000002AF5D1E06BA8B16D494163E06BFEF726
:102C8000F5FC002811D0E06B416B01B0BDE8F040CD
:102C9000084783060FD593060DD52046BDE8F840BA
:102CA00000F0C4BE2046FFF78DFFF8BD2046FFF7B9
:102CB00089FF6564F8BD266B2023012E7CD1C606F2
:102CC0007AD5D60678D508684868009048694FF0EC
:102CD0000206400640D5E16B086840680004000C1D
:102CE000E8D0A28D8242E5D9E085886920282DD0E0
:102CF00020680C3050E8001F21F4807140E8001279
:102D0000002AF5D12068143050E8001F21F001019D
:102D100040E80012002AF5D12068143050E8001F66
:102D200021F0400140E80012002AF5D184F8423039
:102D3000256320680C3050E8001F21F0100140E8A6
:102D40000012002AF5D1E06BFEF76CFC6663A08DE3
:102D5000E18D401A81B22AE0A08DE18D401A81B246
:102D6000E08D0028A6D00029A4D022680C3252E8B9
:102D7000000F20F4907042E80007002FF5D1206882
:102D8000143050E8002F22F0010240E80027002F05
:102D9000F5D184F84230256320680C3050E8002FCC
:102DA00022F0100240E80023002BF5D16663204694
:102DB000FFF707FFF8BDFFE705062BD5150629D558
:102DC00094F841002128F5D1A068B0F5805F01D1C9
:102DD0002069B0B1206A411C2162216800784860F6
:102DE000E08C401E0004000CE084E3D12068C16840
:102DF00021F08001C1602068C16841F04001C160DC
:102E0000D8E7206A0088C0F308004860206A801C68
:102E10002062E5E74006CDD55006CBD5CA682046EE
:102E200022F04002CA6084F8413000F002F9C1E7A4
:102E3000CF39000870B5040004D094F84100002593
:102E400010B106E0012070BD84F84050204600F02B
:102E500023F8242084F841002068C16821F400513F
:102E6000C160204600F044FE2068016921F49041D1
:102E700001612068416921F02A0141612068C1682F
:102E800041F40051C1606564202084F8410084F859
:102E900042006563002070BD30B585B00024009409
:102EA0000194029403940068184988422BD1184871
:102EB000C16941F40031C161C16901F4003104917B
:102EC000816941F0040181618069124D00F00400C4
:102ED0000490042000900220019003200390694692
:102EE0002846FEF71FFD0820CDE900046946284664
:102EF0000294FEF717FD002211462620FEF778FE09
:102F00002620FEF767FE05B030BD000000440040FB
:102F1000001002400008014090F84230202B01D000
:102F20000220704721B11AB10023036300F03CBEB8
:102F30000120704700681449884224D11348144A7C
:102F4000C188491C89B2C1800388022B15D0012B8E
:102F5000114404D011F8011C0D290CD00DE011F81A
:102F6000013C00210A2B01D0018002E002230380F2
:102F7000D177C18001E001210180C08811180122B0
:102F80000448FFF7C9BF704700440040000000201C
:102F900090000020C80100202DE9F843044690F875
:102FA00041001F4616460D46202802D00220BDE8EB
:102FB000F8837DB176B100206064212084F841005F
:102FC000FEF7AAFDA6848046E684A068B0F5805F7F
:102FD00002D003E00120EAE7206910B12E46002567
:102FE0000EE000260CE08021204600F0F8FDA0B99C
:102FF000AEB116F8010B21684860E08C401EE084F9
:10300000E08C43464FF0000200970028EBD14FF0D0
:103010004001204600F0E3FD30B10320C7E735F85A
:10302000020BC0F30800E6E7202084F841000020EE
:10303000BDE77047FEE700000849074A0020C1E9E4
:10304000002088600C31C1E9002088600C31044AFE
:10305000C1E9002088607047CDCC4C3DA002002023
:1030600017B7D1382DE9F04104464FF0E0208846EB
:103070008569A0681B4E1C4FA84201D9401B03E084
:103080006FF07F41491B0844FDF7D1FA3146FDF747
:10309000F3F83946FDF7BEF801461448A5608142B1
:1030A00004DB4046C4F80480BDE8F081256828466A
:1030B000FDF758F801462846FDF7DEF806460146BA
:1030C0004FF07E50FDF7A0F84146FDF7A3F8054606
:1030D00030466168FDF79EF82946FDF743F86060C9
:1030E000E2E7000000004041BD3786359A99993EDD
:1030F0003EB50024164800940194144902940160DE
:103100008915816004730475022505614FF46021FF
:103110004460C161FEF710F908B1FDF7EDFF012031
:10312000CDE90040694602950948FEF703F808B169
:10313000FDF7E2FF0B20CDE9000569460448FDF7E5
:10314000F9FF002801D0FDF7D7FF3EBD0024014064
:10315000C4000020094808B5416941F001014161FE
:103160004069002200F00100009011460B20FEF79C
:103170003FFDBDE808400B20FEF72CBD00100240CB
:103180002DE9F04385B00024254800940194029471
:103190000394816941F020018161816901F020017E
:1031A0000491816941F010018161816901F0100190
:1031B0000491816941F004018161816901F0040198
:1031C0000491816941F0080181618069DFF85480D0
:1031D00000F008000490002240214046FEF797FCD2
:1031E000DFF844904FF4F057002239464846FEF786
:1031F0008EFC402001250226CDE90005CDE90246DE
:1032000069464046FEF78EFB00970396CDE90154D0
:1032100069464846FEF786FB05B0BDE8F08300002E
:1032200000100240000801400010014010B596B0A7
:1032300000240F9410941194129413941C21684646
:103240001494FCF784FF202107A8FCF780FF304886
:103250002E49C0E9001440F22B11C0E9024104617B
:1032600044618461FFF752F808B1FDF745FF4FF460
:1032700080500F900FA92648FFF706F908B1FDF717
:103280003BFF2348FFF7F3FB08B1FDF735FF13942D
:1032900013A91F481494FFF705F808B1FDF72CFF98
:1032A0006020CDE900040294039404940594002264
:1032B000694617480694FFF774FB08B1FDF71CFF39
:1032C000042269461248FFF76CFB08B1FDF714FFB2
:1032D000082269460E48FFF764FB08B1FDF70CFFB2
:1032E0000794089409944FF400500A94CDE90B40D8
:1032F00007A907480E94FEF7ABFF08B1FDF7FCFEE7
:103300000348FFF727FB16B010BD0000002C01405A
:103310003801002010B58AB000242E48049405948A
:1033200006940794089409940094019402944FF031
:1033300080410394016041F26F71C0E9011442F2CF
:103340000F71C0E903148461FEF7E0FF08B1FDF7D7
:10335000D3FE4FF48050049004A91E48FFF794F860
:1033600008B1FDF7C9FE1B48FFF7A0F908B1FDF74A
:10337000C3FE089408A917480994FEF793FF08B103
:10338000FDF7BAFE0320CDE9004002940022694611
:1033900010480394FFF7F8F808B1FDF7ADFE0422DA
:1033A00069460C48FFF7F0F808B1FDF7A5FE0822C2
:1033B00069460848FFF7E8F808B1FDF79DFE80214F
:1033C0000448FFF7CFF8002801D0FDF795FE0AB0BA
:1033D00010BD0000800100200C4810B50A490160B2
:1033E0004FF4E1314160002181600C22C160C0E9ED
:1033F00004128161C161FFF71DFD002803D0BDE803
:103400001040FDF779BE10BD00440040C801002007
:10341000FEE7FEE71E491D481E4A08608007486017
:103420000020C1E902021C4A13781C4A12685BB3EF
:103430001B4B1B680B6148618861C86108621449B5
:10344000184B2431C1E90030174B8860C8601B68F5
:10345000C1E904308861C86108626C394FF07C535F
:10346000C1E900308860C1E9030248618861C86130
:1034700008622431C1E900308860C1E90302486173
:103480008861C861086270470A61D4E7CDCCCC3D41
:1034900058020020000048426C0000207C00002000
:1034A000880000200000A041800000202DE9F047A6
:1034B00004464FF0E0208A468569206A4B4E4C4F07
:1034C000A84201D9401B03E06FF07F41491B08442B
:1034D000FDF7ADF83146FCF7CFFE3946FCF79AFE12
:1034E000064610F0FF4F256202D0B6F17C5F00DD8A
:1034F000404E51462068FCF78DFE8046504661697B
:10350000FCF730FE054631466068FCF783FE4FF05D
:10351000FF31FCF7EFFE2946FCF77CFEE169FCF782
:1035200021FE05462069294680F00040FDF736F966
:1035300003D2206980F0004505E028462169FDF7A7
:103540002DF900D2256950462F466169FCF75CFED3
:10355000A168FCF75FFE3146FCF78EFE0546394652
:103560004046FCF7FFFD2946FCF7FCFD05462069B7
:10357000294680F00040FDF711F903D2206980F060
:10358000004505E028462169FDF708F900D22569C4
:10359000E0688046B0F5000F21DB2846A169FCF702
:1035A00033FE3146FCF768FE81464146FDF7F6F8EA
:1035B000E06806D23146FCF72DFEA169FCF7D2FD8A
:1035C0000CE080F000404946FDF7E8F807D23146AC
:1035D000E068FCF71FFEA169FCF719FE0546C4F878
:1035E00014A0C4E906572846BDE8F0870000404112
:1035F000BD3786356F12833A70477047FEF792BA2F
:1036000030B593B028216846FCF7A1FD14210AA823
:10361000FCF79DFD0025022401200F9504900094E5
:103620001020059012958003CDE908501195109552
:1036300007946846FEF766FC08B172B6FEE70AA971
:103640000F2081E831000D9500210AA80E95FEF7A4
:1036500077FB08B172B6FEE70FA811950F94FEF73D
:10366000F9FA002801D072B6FEE713B030BD0000B1
:103670000148FFF7BBB8000080010020F0B50268E8
:10368000164B174C174D4FF08047984205D0B84263
:1036900003D0A04201D0A84203D122F070064A68AC
:1036A0003243984205D0B84203D0A04201D0A8428C
:1036B00003D122F44074CA6822434C6922F080028C
:1036C000224302608A68C2620A688262984201D11B
:1036D0000969016301214161F0BD0000002C014036
:1036E000000400400008004010B501F01F03012154
:1036F000046A99408C430462016A9A401143016252
:1037000010BD10B5846842EA032224F47F440A43C2
:103710002243826010BD826822F070020A4342F0A8
:10372000070181607047000030B5036A026A22F029
:10373000010202624268846924F073050C682C431C
:1037400023F002058B682B430A4DA8420BD123F0CE
:103750000805CB6822F440722B434D6923F0040323
:1037600015438A692A434260846149684163036260
:1037700030BD0000002C014030B5026A036A23F01E
:1037800010030362436884690D6824F4E64444EA44
:1037900005248D6822F0200242EA05120B4DA84252
:1037A0000ED1CD6822F0800242EA05124D6923F461
:1037B000406343EA85038D6922F0400243EA8503B2
:1037C0004360846149688163026230BD002C01401E
:1037D00030B5036A026A22F4807202624268C469E8
:1037E00023F4007324F073050C682C438D6843EABE
:1037F00005230C4DA8420ED1CD6823F4006343EAA3
:1038000005234D6922F4405242EA05128D6923F4E2
:10381000806342EA05124260C4614968C163036281
:1038200030BD0000002C014030B5046A026A22F469
:10383000805202624268C3690D6823F4E64343EA9A
:1038400005238D6824F4005444EA0534064DA8424B
:1038500004D14D6922F4804242EA85124260C3617C
:1038600049680164046230BD002C014070B50368F2
:1038700000249A6822F070054A682A4322F007055E
:103880000A682A439A604A6812F00F0F31D1121168
:10389000082A2ED2DFE802F02E2E2E2E0B2127042E
:1038A0000B69D1E902210068FFF72BFF22E00A68CB
:1038B000052A10D00268136A156A25F00105156201
:1038C00002689569096925F0F00545EA01119161E1
:1038D000006803620EE0012070BD0A698968006813
:1038E00000F00AF806E00A698968006800F042F80A
:1038F00000E00124204670BD10B5036A046A24F07C
:1039000001040462846924F0F00444EA021423F000
:103910000A020A438461026210BD000070B5056AA4
:10392000046A24F00104046284690F4EB04208D096
:10393000B0F1804F05D00D4EB04202D00C4EB042D7
:1039400003D124F00304144301E044F001041A07F6
:1039500024F0F00444EA126225F00A0301F00A019F
:1039600019438261016270BD002C014000040040D7
:103970000008004010B5036A046A24F010040462D1
:10398000846923F0A00324F4704444EA023243EA39
:1039900001118261016210BD30B5046A056A25F02B
:1039A00010050562856925F4407545EA022222F476
:1039B00070454FF6FF7202EA033224F0A0032A4357
:1039C000A02404EA011119438261016230BD10B5DF
:1039D000406A0021C185C184FFF7F4F810BD016879
:1039E0000C3151E8002F22F4907241E80023002BA3
:1039F000F5D10168143151E8002F22F0010241E8AD
:103A00000023002BF5D1016B012909D101680C318C
:103A100051E8002F22F0100241E80023002BF5D1DD
:103A2000202180F8421000210163704708B590F80A
:103A30004210222901D0022008BD82684FF4805331
:103A40009A4201D1016921B1816A9A421BD04AB1DF
:103A50000AE00268816A5268C2F308020A80816A39
:103A6000891C08E0026972B10268526802F07F02A4
:103A70000A70816A491C8162C18D491E0904090CC2
:103A8000C18503D01BE002685268F1E70168CA688B
:103A900022F02002CA600168CA6822F48072CA60FB
:103AA00001684A6922F001024A61202180F842102F
:103AB00000214163026B012A03D0FFF73BFA00208B
:103AC00008BD016301680C3151E8002F22F010029B
:103AD00041E80023002BF5D101680A68D20602D51F
:103AE0000A6849680091818DFFF76BF8E7E70000ED
:103AF00070B5044600680169E26821F44051114341
:103B000001612169A0680843616908432168CA68A6
:103B100041F20C639A430243CA6020684169A2697A
:103B200021F44071114341611E492068884202D14D
:103B3000FEF7B2F901E0FEF79FF900EBC00101EBDF
:103B40000012606864218000B2FBF0F3B3FBF1F374
:103B50006FF018067343B2FBF0F5B2FBF0F605EB1D
:103B60008305322303EB0515B5FBF1F5B6FBF1F642
:103B700005F0F00505EB0615B2FBF0F6B2FBF0F030
:103B8000B0FBF1F06FF01802504306EB800003EB3E
:103B90000010B0FBF1F0216800F00F0028448860AD
:103BA00070BD00000038014081628285C28500211D
:103BB0004164222180F84210016921B10168CA687C
:103BC00042F48072CA6001684A6942F001024A61A7
:103BD0000068C16841F02001C160002070472DE9F4
:103BE000F041984617460E460446069D27E0681C9D
:103BF00025D02DB1FDF790FFA0EB0800A8421ED9FB
:103C000020680C3050E8001F21F4D07140E8001209
:103C1000002AF5D12068143050E8001F21F001017E
:103C200040E80012002AF5D1202084F8410084F8F1
:103C30004200002084F840000320BDE8F0812068A5
:103C4000006836EA000004D00020B842CFD000203F
:103C5000F3E70120F9E700000148FEF7B5BF0000D7
:103C6000C8010020FEE700000FB4054B10B503A902
:103C7000044A029800F0D2F910BC5DF814FB000071
:103C8000214E000814000020490050EAC12018BF4E
:103C900004204A0D18BF40F0010040F2FF72B2EB61
:103CA000515F08BF40F00200012808BF052070479F
:103CB0000907090E002804DB00F1E02080F8001459
:103CC000704700F00F0000F1E02080F8141D7047ED
:103CD0002DE9F0414F1E00EBC7010446D1E9000178
:103CE00015461E4637F006020DD02A463346FCF72D
:103CF000B4FB7F1E04EBC703D3E90023FCF706FBEC
:103D000037F00602F1D1022F25D0042F13D0062F51
:103D100018BFBDE8F0812A463346FCF79EFBD4E984
:103D20000A23FCF7F3FA2A463346FCF796FBD4E95C
:103D30000823FCF7EBFA2A463346FCF78EFBD4E95E
:103D40000623FCF7E3FA2A463346FCF786FBD4E960
:103D50000423FCF7DBFA2A463346FCF77EFBD4E962
:103D60000223FCF7D3FA2A463346FCF776FBD4E964
:103D70000023BDE8F041FCF7C9BA0122FDF7BEB847
:103D8000FCF7C4BA0022134610461146FCF7D7BB15
:103D9000024A00201107FDF7B1B8000001FDFFFF46
:103DA00001480068704700008C00002002E008C84D
:103DB000121F08C1002AFAD170477047002001E0A5
:103DC00001C1121F002AFBD17047000001490860A1
:103DD000704700008C00002070B50646FCF796FC8A
:103DE0000F4A104BFCF792FAFCF7BCFC04460E4D50
:103DF0003046FCF78BFC0A4A0A4BFCF787FAFCF7C3
:103E0000B1FCFCF783FCAC4203DB084A084BFCF72F
:103E10001EFBFCF7A7FCBDE8704000F083BC00006F
:103E2000F4D64354FB21F93FDB0FC940EA2E44543A
:103E3000FB21194010B504460846FCF7EFFB21466C
:103E4000BDE81040FCF7E6B92DE9FF5F82B0002124
:103E5000DDE90430020DDDF840B0034318D044F62C
:103E60001050A2F2FF3242431514119801281FD0BE
:103E7000A5EB0B00401C5FEA000A4FF000064E4F16
:103E8000DFF83891B046504615D5CAF1000413E06A
:103E9000119801244AA3012801D16FEA0B0102986D
:103EA000119AC0E90031C0E9024206B0BDE8F09FB6
:103EB000CBF10000DFE704460021404A491842EBFD
:103EC0000450CDE9001012E0E00707D032463B462F
:103ED00040464946FCF7C1FA8046894632463B4691
:103EE00010461946FCF7B9FA06460F466410002C36
:103EF000EAD1DDE90401DDE90023BAF1000F06DAB9
:103F0000FCF7ABFA42464B46FCF7A7FA05E0FCF794
:103F100016FB42464B46FCF712FB04460E460022B7
:103F2000284BFCF707FC03D84FF0FF30014607E0B1
:103F30000022254B20463146FCF7E8F9FCF7C5FD89
:103F4000102409E0002C0ADB0A220023FCF746FCBF
:103F5000039B30321A55641E50EA0102F2D1641CF0
:103F6000039AC4F111031444119A012A03D00122C7
:103F700008430DD10AE0084304D000204FF0110B94
:103F8000119072E7A3EB0B056D1E0DE05B4504DDA0
:103F90004FF0000205F1010504E003DA4FF00002E2
:103FA000A5F10105002AECD002981199C0E902316F
:103FB000C0E9004579E70000000014400000F03F30
:103FC000300000000000F0430000E03F30380A28D5
:103FD00001D20120704700207047000070B5FCF747
:103FE00095FB0C4C0C4D22462B4600F0CFFEFCF707
:103FF000B9FB10F1FF4F02D2FCF788FB05E0FCF79C
:1040000085FB22462B46FCF781F9BDE87040FCF7A2
:10401000A9BB0000EA2E4454FB2119402DE9FF4FB3
:1040200095B09A46884606460025EEE1252877D1C8
:1040300000242746F94A0121039400E0044316F8BE
:10404000013F203B01FA03F01042F7D130782A28D3
:1040500011D06FF02F033078A0F13002092A16D862
:10406000039A44F0020402EB820203EB4202104482
:10407000761C0390EFE758F8042B0392002A03DA2A
:10408000504244F40054039044F00204761C30780B
:104090002E2816D116F8010F44F004042A280DD05A
:1040A0006FF02F023078A0F13003092B09D807EB0D
:1040B000870302EB4303C718761CF3E758F8047B29
:1040C000761C30786C280FD006DC4C2817D0682876
:1040D0000DD06A2814D104E0742810D07A280FD1AA
:1040E0000DE044F400140AE044F4801401E044F4C8
:1040F00040147278824202D104F58014761C761C3A
:10410000307866280BD013DC582877D009DC0028DB
:1041100075D04528F6D04628F4D047281AD193E127
:1041200018E0632835D0642879D0652812D18BE156
:10413000702873D008DC6728F1D069286FD06E280A
:104140000DD06F2806D1ACE073282CD0752874D020
:10415000782853D05246179990476D1C54E1C4F308
:104160000250022809D003280DD0D8F800100428E6
:104170000DD00D6008F1040846E1D8F80010EA17E8
:10418000C1E90052F6E7D8F800100D80F2E70D7093
:10419000F0E718F8041B8DF8001000208DF80100DE
:1041A000EB46012003E058F804BB4FF0FF306107F5
:1041B0004FF0000102D40DE009F101018946B94236
:1041C0000FDA8145F8DB1BF809100029F4D108E06B
:1041D00009F1010189468142FADB1BF80910002927
:1041E000F6D103985346A0EB090721463846179AA3
:1041F00000F080FA284400EB090507E044E008E1FC
:104200000DE01BF8010B524617999047B9F10109CF
:10421000F7D2534621463846179AF2E039E00A2190
:10422000C4F302524FF0000B0091022A06D058F856
:10423000040BC117032A09D00AE023E008F10700A4
:1042400020F00702F2E80201904605E000B2C11733
:10425000042A01D140B2C117002906DA0A4600211A
:10426000404261EB02012D2202E0220504D52B22FF
:104270008DF80420012203E0E20701D02022F7E7B5
:10428000914657E00A2100E010214FF0000B009109
:104290000BE010214FF0000B44F0040408270091BC
:1042A00003E008204FF0000B0090C4F30252022AF2
:1042B00005D058F8040B0021032A08D008E008F1C3
:1042C000070020F00702F2E80201904603E080B206
:1042D000042A00D1C0B24FF0000922072AD5327853
:1042E000702A07D0DDF800C08CF0100C5CEA0B0CD3
:1042F00005D00EE040228DF80420012208E050EAAB
:10430000010306D030238DF804308DF805200222F9
:104310009146009B83F0080353EA0B030AD150EA4D
:10432000010201D1620705D530228DF804204FF03B
:1043300001097F1E3278582A04D039A20C920CAAA7
:1043400002920BE03BA2F9E75B46009AFCF746FAC3
:104350000C9B9B5C029A521E0292137050EA01025F
:10436000F2D1029804A9081A00F1200B600702D5C7
:1043700024F4803400E001275F4502DDA7EB0B0049
:1043800000E0002000EB0B01009003984944401A24
:104390000390E00306D453462146179A039800F091
:1043A000A9F90544002706E001A85246C05D179907
:1043B00090476D1C7F1C4F45F6DBE0030CD5534640
:1043C0002146179A039800F095F9054404E030203F
:1043D0005246179990476D1C0099481E009000297D
:1043E000F5DC08E00298029952460078491C0291D7
:1043F000179990476D1CBBF10001ABF1010BF1DC8B
:104400005BE100F065F90544761C307800287FF404
:104410000DAE19B02846BDE8F08F00000928010054
:10442000303132333435363738396162636465662A
:1044300000000000303132333435363738394142EC
:104440004344454600000000600700D4062708F1F9
:10445000070020F00700F0E80223804603F0004C3C
:104460005FEA0C0001D097A009E0200501D596A0D5
:1044700005E0E00701D095A001E0AFF24C001390F9
:10448000307823F0004365280CD006DC452809D09D
:1044900046281DD047287FD13BE0662818D06728E2
:1044A0007AD136E00021112F01DB112000E0781CC9
:1044B000CDE9000104A90CA8FFF7C6FCDDE90D0158
:1044C0000C9A4FF0000B07F10109109200914EE099
:1044D0004FF000400097CDE9011004A90CA8FFF7A8
:1044E000B3FCDDE90D020C9B0F994FF0000B9146D8
:1044F0001093009211B9791C00EB0109B7EB090088
:1045000003D4C0F1FF3B07F10109A9EB07000190BB
:1045100042E0012F00DA01270021112F01DD1120D7
:1045200000E03846CDE9000104A90CA8FFF78CFC97
:10453000DDE90D010C9A00914FF0000BB946109285
:1045400021070FD4009A4A4503DA914601E0A9F108
:104550000109B9F1010F05DD109AA9F10101515CC2
:104560003029F4D0B84202DA10F1040F03DA012145
:10457000CDE9011010E0002803DC8344A9EB000121
:1045800002E0411C494500DD8946A0EB0B00401CC0
:1045900001904FF000400290200705D40198484553
:1045A00002DB4FF0FF30019000208DF84B000298A5
:1045B0000DF14B07B0F1004F25D002200C902B20BD
:1045C0000D90029800280CDA404202902D200D90A8
:1045D00007E00A210298FCF7EBF83031029007F867
:1045E000011D0C99481E0C900029F2DC029800284D
:1045F000EFD1791E0D980870307800F0200040F05F
:10460000450007F8020D11A8C01BC01D02901398A9
:10461000007800B1012000EB0901019801EBE07185
:10462000029801440398401A401E0390E00306D408
:1046300053462146179A039800F05CF805441398F6
:10464000007818B15246179990476D1CE00323D5A6
:1046500053462146179A039800F04CF805441BE096
:10466000BBF1000F07DB0098584504DD109817993F
:1046700010F80B0001E0179930205246904701983E
:104680000BF1010B401E05F10105019004D12E2014
:104690005246179990476D1CB9F10001A9F1010923
:1046A000DEDC05E017F8010B5246179990476D1CA8
:1046B0000299481E02900029F4DC53462146179ABD
:1046C00003989EE62D0000002B0000002000000053
:1046D0002DE9F041044600251E461746880404D4FF
:1046E00005E039462020B0476D1C641EF9D52846E8
:1046F000BDE8F0812DE9F041044600251E469046B4
:10470000C80301D5302700E02027880404D505E040
:1047100041463846B0476D1C641EF9D52846BDE8B1
:10472000F08100002DE9F05F05463E4FDFF8F8A06C
:10473000DFF8F8903E4EDFF8FCB0FBF7E7FF3E4AAB
:104740003E4BFBF78AFE88460446BD4217DA00223C
:104750001346FBF7EFFF204641464FF000024B4661
:1047600002D8FBF7D3FD01E0FBF771FEFBF796FFE4
:1047700056F82000FBF760FF5A4653464CE030489D
:10478000854214DA002220461346FBF7D3FF204669
:1047900041464FF000024B4602D8FBF7B7FD01E05F
:1047A000FBF755FEFBF77AFFC0F5C770E0E7254839
:1047B000254F85424FF000022046134615DAFBF7DD
:1047C000B9FF204641464FF000024B4602D8FBF7A6
:1047D0009DFD01E0FBF73BFEFBF760FF06EB800071
:1047E000A0F58050D0F8C80912E0FBF7A3FF2046DF
:1047F00041464FF000024B4602D8FBF787FD01E02F
:10480000FBF725FEFBF74AFFC0F5477056F820007E
:10481000FBF712FF5A463B46FBF71FFEBDE8F05F71
:10482000FBF7A0BFDB0FC93FE2361A3F0000E03FB5
:10483000F45800082D431CEB9CA223B9FCAB5F404D
:10484000DB0F4940E4CB9640E2361ABF0249A1EBA8
:104850006001FBF7DFBC0000865A375F2DE9F047A7
:1048600081464FF0E0208569304C314F314EA068D1
:10487000DFF8C480854201D2401B03E06FF07F4126
:10488000491B0844FBF7D3FE3946FBF7F5FCFBF761
:104890003DFF32464346FBF7E0FDFBF763FFA560B3
:1048A000264D064610F0FF4F02D0B6F17C5F00DDCA
:1048B000234E20693146FBF7ADFC07464846296880
:1048C000FBF7A2FC20F000403946FBF767FF1DD242
:1048D000296848460F46FBF797FC10F1FF4F02D3BB
:1048E0004FF0FF3005E0B0F5000F01DB012000E0E4
:1048F0000020FBF793FE2169FBF78CFC3146FBF7A8
:1049000089FC3946FBF72EFC286002E04846C5F8D2
:104910000090E6686169FFF78DFA02460021304693
:1049200000F0E4FD3046BDE8F08700007000002094
:10493000000040418DEDB5A0F7C6B03E4400002018
:104940006F12833A2DE9F84F04460D4621F00040DE
:1049500000917349814211DC7249884201DC06D121
:104960002CB120462946BDE8F84FFFF706BA6E483D
:10497000002DCCBF6D496E49BDE8F88F6D4981426D
:1049800011DD6D498142D8BF4FF0FF366DDD204605
:104990002946FFF779F9042808BFFFF7F9F92046FF
:1049A0002946BDE8F88F6549654F25F000458142ED
:1049B00033DD6449814219DD002632464FF08043E1
:1049C00020462946FBF7A2FC80468A460122204663
:1049D0002946FCF793FA00223B46FBF738FD424696
:1049E0005346FBF7ACFD04460D463EE0012600228F
:1049F000BA463B4620462946FBF788FC80460F46D0
:104A00000022534620462946FBF721FD42463B46FD
:104A1000FBF795FD04460D4627E04B4981421BDD1F
:104A2000DFF828A102260022534620462946FBF73C
:104A300014FD00223B46FBF769FC80460F4600222E
:104A4000534620462946FBF702FD42463B46FBF70C
:104A500076FD04460D4608E0032622462B4600203C
:104A60003B49FBF76CFD04460D4622462B4610469B
:104A70001946FBF7F2FC8B46824602460B46FBF7D3
:104A8000ECFC07460246334888460B46062178442C
:104A9000FFF71EF952465B46FBF7DFFC82462E48C5
:104AA0008B463A46434605217844FFF711F93A46CA
:104AB0004346FBF7D2FC02460B46002E50465946B1
:104AC0000CDAFBF723FC22462B46FBF7C6FC01B0B1
:104AD00022462B46BDE8F04FFBF7BCBCFBF716FCAB
:104AE00022462B46FBF7B9FC1C4A7A4402EBC6036C
:104AF000D3E90023FBF7ABFC22462B46FBF7A7FCD0
:104B0000174A7A4402EBC603D3E90023FBF7A2FC61
:104B1000009A002AB8BF81F00041BDE8F88F00007C
:104B2000000010440000F07F182D4454FB21F93F91
:104B3000FB21F9BF0000DC3F0000203E0000F33FF6
:104B40000000F03F0000E63F008003400000F83F17
:104B50000000F0BFEE110000AC1100004A1100008F
:104B6000121100002DE9F04D9446CCF1000423F021
:104B700000464CEA0404594F46EAD4749A468846E3
:104B800021F00042BC4206D8454240EA050442EA10
:104B9000D474BC4204D9BDE8F04D6246FFF7F0B8CA
:104BA000AAF14055A5F17F6555EA0C040BD002240B
:104BB00004EAAA744A4DDFF82CE144EAD87452EAB8
:104BC000000B04D00CE0BDE8F04DFFF7BBBE002C9D
:104BD00014BF012CBDE8F08D022C30D0032C32D054
:104BE00056EA0C0B0AD0BE4220D1BA4209D126F0B7
:104BF000804622F080423346114617E000291ADB36
:104C000025E0DFF8E4B0FB44002C04BFDBE9000141
:104C1000BDE8F08D012C02BFDBE9000181F000410D
:104C2000BDE8F08D022C0AD0032C0CD0BA4212D170
:104C3000B8F1000F0BDA2A482C49BDE8F08D284660
:104C40002B49BDE8F08D28467146BDE8F08D24481B
:104C50002849BDE8F08D921B12153C2AC4BF204F95
:104C6000244E10DCBAF1000FBEBF12F13C0F00273A
:104C70003E4608DB6246FBF762FC21F00041FFF78D
:104C800061FE07460E4694B1012C08BF86F000462F
:104C90000DD0194A194B022C3846314615D0FBF776
:104CA000D6FB2A46BDE8F04D114BFBF7D0BB0022E6
:104CB000134638463146FBF721FF04BF0220FFF7B9
:104CC00085F838463146BDE8F08DFBF7C0FB2A4633
:104CD000BDE8F04D064BFBF7BDBB00000000F07FC8
:104CE000182D4454FB2109C0A6100000FB21F9BF78
:104CF000FB210940FB21F93F075C143326A6A13CA8
:104D000030B583B00446FFF74BF805460020CDE9E7
:104D10000000024621466846FBF7CDFD2846FFF716
:104D200055F8DDE9000103B030BD000010B50E4CB0
:104D30002088022808D10D480178542905D00CA0FC
:104D4000FEF792FF0020208010BD401CFFF7D8FF27
:104D5000FBF708FDE060FBF7D9FC02460B4608A014
:104D6000FEF782FFEEE70000000000209000002028
:104D7000696E707574206572726F720D0A000000A2
:104D800052783D252E34660D0A00000070B5144699
:104D90001D460E46002814BF01210021314321F099
:104DA0000041C1F17F6101F1E041C90F16D1002C32
:104DB00014BF01210021294321F00041C1F17F618D
:104DC00001F1E041C90F09D11449B1EB460F08BF09
:104DD00000281CD0690008BF002C18D03146FBF712
:104DE00031FE024640F2FF7030EA11500DD0F0174C
:104DF000B0EBE17F09D0084665F31E0084460B4600
:104E000020466146FBF726FB0246104670BD012096
:104E1000FEF7DCFFBDE87040FEF7B4BF0000E0FF26
:104E200013B54FF6FF73012269460248FEF7B4F846
:104E300000981CBDC801002070B50D4C6068FBF7E0
:104E4000EDFB0546E06894F9001000EB400001EB33
:104E50004000FBF7E3FB2946FBF70EFAFBF756FC95
:104E6000044A054BFBF7F9FABDE87040FBF77ABC42
:104E700028000020EA2E4454FB2119402DE9FE4F62
:104E800083464FF07E57684600F0DEF89DE87000DC
:104E9000DFF8CC80DFF8CC90DFF8CCA016F0FF4F25
:104EA00042D029462046FBF75DF93146FBF75AF917
:104EB0002E49FBF7AFF9064620463146FBF7A4F929
:104EC000044628463146FBF79FF900BFFBF71EFC5E
:104ED00042464B46FBF7C1FA05460E462046FBF715
:104EE00015FC42465346FBF7B8FA2A463346FBF711
:104EF0000DFAFBF737FC05461BF0FF4F1BD0584659
:104F0000FFF710FC2146FBF785F906465846FEF7E9
:104F100063FF2946FBF77EF93146FBF775F9B0F5DB
:104F2000000F03DB012003E02846CFE74FF0FF30FE
:104F3000FBF774FB074629460846FBF76BF9054665
:104F400021460846FBF766F92946FBF70BF9FFF700
:104F50007DFC03B03946BDE8F04FFBF75BB90000BC
:104F600047409045A779F23FA779E23FABAAAA3E16
:104F70002DE9FE4F82468B46684600F065F89DE8B5
:104F800070002D4FDFF8B480DFF8B49016F0FF4FBB
:104F90004FD029462046FBF7E5F83146FBF7E2F80B
:104FA0002849FBF737F9064620463146FBF72CF92E
:104FB000044628463146FBF727F900BFFBF7A6FB5E
:104FC0003A464346FBF749FA05460E462046FBF7AC
:104FD0009DFB3A464B46FBF740FA2A463346FBF721
:104FE00095F9FBF7BFFB05465846FEF7F5FE8046F0
:104FF0005846FFF797FB074601462846FBF70AF994
:10500000064641462046FBF705F93146FBF7AAF86C
:10501000064639462046FBF7FDF804464146284639
:10502000FBF7F8F82146FBF7EFF8CAE90060BDE8A6
:10503000FE8F2846C2E7000047409045A779F23F1F
:10504000A779E23FABAAAA3E2DE9F04781460222AA
:1050500017491848FCF760FA1748B0F90000FBF749
:10506000EBFA164E4FF066352A463346FBF7F5F954
:10507000134FDFF850803A464346FBF760FAFBF7E0
:1050800071FB04461048B0F90000FBF7D5FA2A4638
:105090003346FBF7E2F93A464346FBF750FAFBF793
:1050A00061FBC9E900400022C9F80820BDE8F0878B
:1050B00010000020C40000200800002066660A409E
:1050C000A6B8AAECBB22A0400A0000202DE9F041BE
:1050D0001A4EB169706930B14FF0E0229269511AED
:1050E000B1EB400F02DD0020BDE8F081FBF796FA3E
:1050F0001349FBF7C1F8FBF709FB04460D46B04620
:105100007068FBF78BFAFBF701FB02460B460D4874
:105110000D49FBF714FA07460E46D8F81000FBF7C6
:105120008BFA3A463346FBF798F922462B46FBF7B3
:1051300006FABDE8F041FBF715BB0000280000208F
:10514000001B374BEA2E4454FB2119402DE9FC414A
:105150003048007804285BD0032859D0FFF76CFE54
:105160002D49044608602D484069FBF757FA21464F
:10517000FBF750F8FEF732FF294E2A492A4D3060DE
:10518000097841B1294C2A4F01290CD002291DD0A0
:1051900028A0FEF769FDD5E90010326802B0BDE82D
:1051A000F04100F0A3B9FFF769FE014660602A48AC
:1051B000FDF758FF014660603868FBF725F80146A7
:1051C0002648FEF773F9686000201FE00146684634
:1051D000FFF7CEFEDDE90001C4E900011E48FDF73E
:1051E00041FF60601E482168FDF73CFF2060616858
:1051F0003868FBF709F801461848FEF757F9686068
:10520000206880F000411748FEF750F92860C2E797
:10521000BDE8FC816D0000204400002070000020EB
:10522000480000206C0000205C000020640000208A
:10523000500000204D4F543A206E6F20746F7271F1
:10524000756520636F6E74726F6C2073656C656337
:105250007465642100000000A002002010020020FC
:10526000AC0200203402002086B0FCF763FCFEF79D
:10527000C7F9FDF785FFFDF76DFFFDF7D7FFFEF7D7
:1052800049F8FEF7A9F8FDF733FF4A4948480724D3
:1052900008604A49484808604A49494808604B49FB
:1052A000494808604A49022008704A4901200870AC
:1052B0004948002104604948FDF708FC042147489B
:1052C000FDF704FC08214548FDF700FC444D012290
:1052D00091022846FCF71BFC0122D1022846FCF76C
:1052E00016FC012211032846FCF711FC0122402183
:1052F0003C48FCF70CFC01223B493C48FDF70CFE06
:1053000000254020CDE900500A2002906946384827
:10531000FDF72BFC3648FDF78BF800213448FDF7EC
:10532000F3F9FEF777F8FDF787FE4FF0E0203149FB
:105330004161314AF02182F8141D85610461304ECB
:10534000294C2E482034F06004EB850102222D48C0
:10535000FCF7E2F86D1C052DF6DB2BA0FEF784FCB4
:105360002088A188A2890844218911440844218AFF
:1053700001440520B1FBF0F171806188E288E38986
:10538000114462891A441144628A1144B1FBF0F05D
:10539000B080FCF76BFD01461FA0FEF765FCF068CE
:1053A00000F044F8FFF7D2FEFFF7C0FCF7E700007B
:1053B0000000C041740000200000A0407C000020DC
:1053C0000000A04180000020000020418800002053
:1053D0006C0000206D0000208400002038010020B7
:1053E000001001400008014090000020C80100208A
:1053F00080010020FEFFFF000FE000E00000C84237
:1054000000000020C40000204D6F746F7220726590
:105410006164790D0A00000048434C4B20467265D8
:105420007175656E63793A2025750A002DE9F0479C
:10543000054600F0A5F9DFF88CA001460027CAF860
:1054400000002148DFF88490214C0078214A224E48
:10545000DFF88880052809D2DFE800F0031A0C285D
:105460002D0099F8000018B1C8F80050BDE8F08789
:105470006560FBE71A49156028460968FAF7C4FE1B
:1054800001461848FEF712F83060DAF8001001E023
:1054900028463560FAF7B8FE01461348FEF706F8CD
:1054A000C8F8000099F8001049B1DFE728463560D8
:1054B00000F0BAF903E028461560FFF7CFF9C4E918
:1054C0000070D3E74C0000206D0000206C0000202D
:1054D0005C000020580000205400002050000020F4
:1054E000440000207C020020580200202DE9FE4FDD
:1054F00082460C4601F0FF45964F1046FBF706F931
:105500008846814615B351460846FAF783FE05469C
:1055100021460846FAF77EFE2946FAF723FEFFF7F2
:1055200095F97968FAF7A8FE05462046FBF7EEF8EC
:1055300004460E465046FBF7E9F822463346FFF78D
:1055400011FB02460B464846414608E05046796842
:10555000FAF792FE0546484641467F4A7F4BFAF7E6
:10556000D5FEFBF7FFF8FEF739FD02467C487D4982
:10557000854201DB054602E08D4200D90D4610460A
:10558000FBF7C4F80446784A784B0191FAF7D7FF45
:105590000022774BFAF7BAFEFBF79FF882462846BF
:1055A000FBF7B4F8064688465046019DFBF755F8D0
:1055B00081466D4A6D4B0291FAF74FFF22462B460A
:1055C000FAF745FFFBF7CEF8FFF7ACF8FBF79EF8CC
:1055D000DFF8A0B1684B5A46FAF73FFF4346324620
:1055E000FAF73BFFFBF7BEF83546009046464846C3
:1055F00000225F4B0299FAF72AFF5B4A5B4BFAF7EE
:105600002CFF02460B4620460199FAF720FFFBF7D4
:10561000A9F8FFF787F8FBF779F85A46564BFAF7DF
:105620001CFF2A463346FAF718FFFBF79BF8804623
:105630004FF07E500099FAF7E7FD4146FAF7E4FD96
:1056400002464FF0FF31BAF1070F62D2DFE80AF0ED
:1056500061041324334452001046FAF74BFE064609
:1056600041460098FAF77EFD3146FAF77BFD054684
:10567000304641460CE01046FAF73CFE06460099DB
:10568000FAF770FD054641460098FAF76BFD314682
:10569000FAF768FD04463FE01046FAF72BFE054690
:1056A00041460098FAF75EFD2946FAF75BFD04468D
:1056B000284641460CE01046FAF71CFE05460099C4
:1056C000FAF750FD044641460098FAF74BFD29468B
:1056D000FAF748FD06461FE01046FAF70BFE0446AF
:1056E0004146FAF73FFD054641460098FAF73AFD74
:1056F0002146EDE71046FAF7FDFD044641460098C5
:10570000FAF730FD2146FAF72DFD054620460099AF
:10571000DEE700252C462E463868FAF77FFF07465D
:105720002946FAF777FDFAF7A5FF144D2968486373
:1057300038462146FAF76EFDFAF79CFF2968886320
:1057400038463146FAF766FDFAF794FF2968C863D0
:10575000BDE8FE8F70000020F4D64354FB21F93FD2
:1057600046B6133F46B613BF40AF2D3852C1F03F87
:105770000000F03F6B6058E87AB6FB3F380100202C
:1057800010B5FFF7A3FC0146BDE810400148FDF746
:1057900069BC0000B802002010B54FF0E020846919
:1057A000FBF7ACFC41B21E4890F90120914233D086
:1057B00041701C4990F90120895690F900208B1AFC
:1057C0004FF0FF32032B05DD0261C26803691A4402
:1057D000C2600DE090F90030CB1A13F1030F01DA2B
:1057E0000122F1E790F90030994200DD01220261C7
:1057F00001700169826891420FD181698C4202D2A5
:105800008169091B04E06FF07F418269091B114423
:10581000416184610169816010BD0021F8E70000E9
:1058200028000020EA5800082DE9F04781464FF093
:10583000E02085691C4C1D4F1D4EA068DFF8748068
:10584000854201D2401B03E06FF07F41491B0844B1
:10585000FAF7EDFE3946FAF70FFDFAF757FF324631
:105860004346FAF7FAFDFAF77DFF014610F0FF4FC5
:10587000A56002D0B1F17C5F00DD0F494846FAF720
:10588000C9FC0E4D2968FAF76DFCFEF7A7FB2860EE
:10589000E5686169FEF7CEFA024600212846FFF767
:1058A00025FE2846BDE8F08770000020000040413A
:1058B0008DEDB5A0F7C6B03E6F12833A44000020CC
:1058C000010202030405060708090A0B0C0D0E0F5E
:1058D0001010000000000000000001020304060791
:1058E00008090000000001020304FF000405020192
:1058F00003FF0000000000004F0000009E000000B9
:10590000ED0000003C0100008B010000D901000007
:105910002802000077020000C60200001503000004
:1059200063030000B2030000000400004F04000005
:105930009D040000EC0400003A050000880500000A
:10594000D60500002406000072060000C006000014
:105950000E0700005B070000A9070000F607000023
:105960004308000090080000DD0800002A0900003C
:1059700077090000C30900000F0A00005C0A00005C
:10598000A80A0000F40A00003F0B00008B0B000087
:10599000D60B0000210C00006C0C0000B70C0000BE
:1059A000010D00004C0D0000960D0000E00D000000
:1059B000290E0000730E0000BC0E0000050F000051
:1059C0004E0F0000960F0000DF0F000027100000B0
:1059D0006E100000B6100000FD1000004411000021
:1059E0008B110000D1110000171200005D120000A1
:1059F000A2120000E81200002D1300007113000035
:105A0000B6130000F91300003D14000081140000DB
:105A1000C414000006150000491500008B15000095
:105A2000CC1500000E1600004F1600008F16000067
:105A3000CF1600000F1700004F1700008E17000050
:105A4000CD1700000B18000049180000871800004F
:105A5000C4180000011900003D1900007919000068
:105A6000B5190000F01900002B1A0000661A00009A
:105A70009F1A0000D91A0000121B00004B1B0000E7
:105A8000831B0000BB1B0000F21B0000291C000050
:105A9000601C0000961C0000CB1C0000001D0000D4
:105AA000351D0000691D00009D1D0000D01D000077
:105AB000031E0000351E0000671E0000981E000037
:105AC000C91E0000FA1E0000291F0000591F000017
:105AD000881F0000B61F0000E41F00001120000016
